:020000040800F2
:10000000A84B002041030008490300084B030008E7
:100010004D0300084F0300085103000800000000D2
:10002000000000000000000000000000790200084D
:100030005503000800000000F10200082D0300082D
:100040005B0300085B0300085B030008459600089B
:100050005B0300085B0300081144000831440008FA
:100060003944000841440008494400085B03000883
:100070005B0300085B0300085B0300085B030008E8
:100080005B0300085B0300085B0300085B030008D8
:100090005B0300085B0300085B0300085144000891
:1000A0005B0300085B0300085B0300085B030008B8
:1000B0005B0300085B0300082DAF00085B0300082A
:1000C0005B0300085B0300085B0300085B03000898
:1000D0005B0300085B0300085B030008CDB4000865
:1000E000194400085B0300085B03000800F002F8F5
:1000F00000F07CF80AA090E8000C82448344AAF146
:100100000107DA4501D100F071F8AFF2090EBAE843
:100110000F0013F0010F18BFFB1A43F0010318473B
:1001200048740100687401000A444FF0000C10F894
:10013000013B13F0070408BF10F8014B1D1108BF65
:1001400010F8015B641E05D010F8016B641E01F805
:10015000016BF9D113F0080F1EBF10F8014BAD1C55
:100160000C1B09D16D1E58BF01F801CBFAD505E073
:1001700014F8016B01F8016B6D1EF9D59142D6D3CD
:10018000704700000023002400250026103A28BFF5
:1001900078C1FBD8520728BF30C148BF0B607047F9
:1001A000662913F03484642900F07A81752900F0FF
:1001B0007781782900F0B081632900F09E87732948
:1001C00000F0A387002070471FB500F0A2FF0400D5
:1001D0000020002113F018F8E0601FBD10B510BD1D
:1001E00003B4FFF7FBFF03BC01F092F800F0CCF87A
:1001F0001146FFF7E9FF11F03DFB0448002111F023
:10020000FFFB11F049FB00F053FA00004000002012
:1002100080F309887047EFF309807047684680F3E0
:10022000098804480078C00714BF0220032080F327
:1002300014887047885F0108DFF818C0EFF3058362
:100240001B0618BF6047EFF31483DB0708BF604746
:1002500000DF7047011B0108DFF818C0EFF30583CA
:100260001B0618BF6047EFF31483DB0708BF604726
:1002700000DF7047E51C0108EFF30980816911F880
:10028000021CF1B990E80F10E047EFF3098C8CE8FD
:100290000700144B93E8060091420FD039B12CE9C6
:1002A000F00FC1F824C00CB412F050F80CBC1A6066
:1002B000D2F824C0BCE8F00F8CF309886FF0020E6E
:1002C000704710B5084A1268914209D8074C54F893
:1002D000214090E80F10A047EFF3098C8CE80F0045
:1002E00010BD0000CC010020141B0008141B0008E6
:1002F00011F0C8FE0C4B93E80600914210D0EFF3CA
:10030000098C2CE9F00FC1F824C00CB412F01EF8CF
:100310000CBC1A60D2F824C0BCE8F00F8CF309883A
:100320006FF0020E70470000CC01002012F0C4F8FC
:10033000E0E7000011F0B6FB12F0BEF8DAE70000CB
:100340000948804709480047FEE77047FEE7FEE797
:10035000FEE7FEE7FEE7FEE7FEE7FEE704480549A5
:10036000054A064B7047000045AE0008ED00000846
:10037000A8450020A84B0020A8470020A84700203F
:1003800000487047484500207546FFF7F9FFAE4624
:1003900005006946534620F00700854618B020B591
:1003A000FFF7DCFFBDE820404FF000064FF00007EC
:1003B0004FF000084FF0000B21F00701AC46ACE80D
:1003C000C009ACE8C009ACE8C009ACE8C0098D467A
:1003D000704700000FB41CB5074B06AA7B44694662
:1003E0000090059800F067FE0020694600F076FE58
:1003F0001CBC5DF814FB0000FD0C000070B5044649
:1004000085690068C10601D5302600E02026C007B6
:1004100008D070BDD4E9012130469047206A00F130
:10042000010020626D1EF5D570BD70B5044685696A
:100430000078C00708D170BDD4E901212020904781
:10044000206A00F1010020626D1EF5D570BD70B507
:100450000C460546012A05D02878800600D5EA69B1
:10046000002302E0012305E05B1C934202D2E05C22
:100470000028F9D1A869E618C01AA861286A1844AA
:1004800028622846FFF7BAFF04E0D5E9012114F8F5
:10049000010B9047B442F8D32846FFF7C6FF70BD62
:1004A0002DE9F0410646002410687529314616A54D
:1004B00011D0AFF30080002803DAC0F1000013A5CB
:1004C00007E031688A0701D511A502E0490704D584
:1004D00010A5012401E0AFF3008000210A2306F1FA
:1004E000240707E0B0FBF3F203FB1200303078542E
:1004F0001046491C0028F5D123462A463046BDE85F
:10050000F04100F067BB0000000000002D0000007B
:100510002B0000002000000070B504460D46214667
:100520001068AFF300802188090502D5104A7A448B
:1005300002E00F4A7A440E32002104F1240307E05E
:1005400000F00F064FEA1010965D5E5401F10101B4
:100550000028F5D103462078000704D5702D02D07D
:1005600009B1113202232046BDE8704000F032BBD1
:10057000C66901002DE9F05F894604464FF0000A84
:10058000DFF828B1FB44C0F820A02046E168884786
:1005900000287CD0252806D0D4E901219047206A84
:1005A000401C2062F1E700255F462046E16888474D
:1005B0002028064608DB312E06D207EB060010F88D
:1005C000200C08B10543F0E7A80701D525F0040584
:1005D000C4F81CA00027C4F818A02A2E09D0304661
:1005E0000CF087FC38B304EB8708303EC8F818607D
:1005F00019E059F8041B204604EB87029161E16879
:100600008847012F064618D1E069002820DA25F036
:1006100020051DE0D8F8180000EB800006EB400034
:100620003038C8F818002046E168884706460CF0C4
:1006300060FC0028EED1012F0AD02E2E08D12046D2
:10064000E16888477F1C0646022F45F02005C4DB81
:10065000A069002803DA404245F00105A061E807DF
:1006600001D025F0100596B1A6F14100192802D855
:10067000203645F400654A463146204625604D4601
:10068000FFF78EFD60B1012807D0ED1D00E009E005
:1006900025F0070000F1080977E705F1040974E780
:1006A000304679E7206ABDE8F09F000098690100B4
:1006B0000446AFF300802046FFF792FD40EA0103B5
:1006C000024630B59B0710D14FF0013400E008C25C
:1006D00008C91D1B9D4315EAC41FF8D013F0FF0184
:1006E00002F8011B0DD01B0AF8E711F8013B002BA3
:1006F00002F8013B05D011F8013B002B02F8013B49
:10070000F3D130BD10B5431C02E010F8011B71B1EC
:100710008107FAD14FF0013202C88C1A8C4314EAD7
:10072000C211F9D0C01A0A0603D0C01E10BDC01AEB
:1007300010BD0A0401D0801E10BD0902FCD0401E6D
:1007400010BD40EA010370B59B072ED14FF0013672
:10075000042A2AD308C810C9121F9D1B9D4315EAFD
:10076000C61517D0D8B2E1B2401A50EA056110D1CF
:1007700098B2A1B2401A50EA05410AD123F07F4055
:1007800024F07F41401A50EA052102D1180EA0EB57
:10079000146070BDA342DBD018BA21BA884201D9D7
:1007A000012070BD4FF0FF3070BD0AB9002070BD50
:1007B00010F8013B11F8014B63B1A3420AD1521E5C
:1007C00008D010F8013B11F8014B1BB1A34201D135
:1007D000521EEDD1181B70BD421E12F8013F002BB6
:1007E000FBD111F8013B002B02F8013BF9D1704716
:1007F000032A40F2308010F0030C00F0158011F84D
:10080000013BBCF1020F624498BF11F801CB00F824
:10081000013B38BF11F8013BA2F1040298BF00F878
:1008200001CB38BF00F8013B11F0030300F0258035
:10083000083AC0F0088051F8043B083A51F804CB5C
:10084000A0E80810F5E7121D5CBF51F8043B40F822
:10085000043BAFF30080D20724BF11F8013B11F82D
:1008600001CB48BF11F8012B24BF00F8013B00F871
:1008700001CB48BF00F8012B704710B5203AC0F0FB
:100880000B80B1E81850203AA0E81850B1E8185091
:10089000A0E81850BFF4F5AF5FEA027C24BFB1E8CE
:1008A0001850A0E8185044BF18C918C0BDE810403F
:1008B0005FEA827C24BF51F8043B40F8043B08BF48
:1008C0007047D20728BF31F8023B48BF11F8012B0F
:1008D00028BF20F8023B48BF00F8012B70474FF0BB
:1008E00000020429C0F0128010F0030C00F01B80FD
:1008F000CCF1040CBCF1020F18BF00F8012BA8BF0B
:1009000020F8022BA1EB0C0100F00DB85FEAC17CCE
:1009100024BF00F8012B00F8012B48BF00F8012B81
:1009200070474FF0000200B51346944696462039B2
:1009300022BFA0E80C50A0E80C50B1F12001BFF498
:10094000F7AF090728BFA0E80C5048BF0CC05DF8FE
:1009500004EB890028BF40F8042B08BF704748BF4C
:1009600020F8022B11F0804F18BF00F8012B7047C0
:1009700030B503681C1404EB21459BB289B21944BD
:1009800095FBF2F402FB145301EB034191FBF2F3EC
:1009900002FB131101E05B1E11440029FBDB016027
:1009A00003EB044030BD2DE9F04704464FF0FF3A19
:1009B00086B00068029060680390A0680490E068C8
:1009C0000190206900906569B5F1804F7EDCB5F13A
:1009D000404F7BDB3C22002102A8FFF7C9FF3C22ED
:1009E000014603A8FFF7C4FF1822014604A8FFF739
:1009F000BFFF411E40F2B55201A8FFF7B9FF0C221C
:100A0000064668460021FFF7B3FF00EB8600284446
:100A10003E4D00267D440FE09A1A491CCDE9001294
:100A2000022902D00C2907D104E0810704D0521C0E
:100A3000019201E0401C00960099019B6A5C9A4279
:100A4000EADD012906D11C2B04D1810702D0022145
:100A5000CDE90016A0F146018B2940D20199009BF7
:100A600000220F4602E0AE5C521C31449A42FADB8F
:100A7000012B02DD820700D0491E40F2B55540F23D
:100A80006D16C21700EB927292106A4300F00305D4
:100A900005FB062285070A4400D1521E049D02EB85
:100AA0004206DDF80C80A94605EBC605184EC5EBDD
:100AB0000515DDF808C008EB850535442E14ADB2E8
:100AC000C6EB0616C5EB0515B60000E007E00CEB1B
:100AD000850506EB154666F31F45360C03D05046D8
:100AE00006B0BDE8F0877F1CC4E90430521C072023
:100AF00092FBF0F304F1180600FB1320A6E80304B0
:100B00002846C4E90297C4E900C8E9E7196501006D
:100B1000A039CEFD70B50C46016800204A1C34D0C7
:100B200040F2B5553C23B1FBF3F203FB12112160F7
:100B3000B2FBF3F103FB112218236260B1FBF3F265
:100B400003FB1211A16046F2E0310A440721B2FB17
:100B5000F1F301FB1321B2FBF5F305FB1322A161B5
:100B60009900B2F5B77F06D3521EAD10B2FBF5F374
:100B7000194405FB13220F4BE261616189077B4435
:100B80000CD03B2A0AD3521C08E02C212046FFF748
:100B9000C8FE0120E0600AE0521A401C195C914234
:100BA000FAD9521CC4E903204FF0FF3020622046DE
:100BB00070BD0000AF63010070477047704710B50B
:100BC00000F0ACFA006810BD10B5044600F0A6FABB
:100BD000046010BD2DE9F0470D4699469246044643
:100BE00000F124080168880604D5E06921F01001AD
:100BF000216000E00120A84202DDA0EB050700E033
:100C00000027A16907EB050202EB0900A1EB000038
:100C1000A0612078C00602D42046FFF7EFFB002633
:100C200008E0D4E901211AF806009047206A401C28
:100C3000761C20624E45F4DB2078C0060AD520469B
:100C4000FFF7DCFB06E0D4E9012130209047206A61
:100C5000401C2062381EA7F10107F4DC07E0D4E94C
:100C6000012118F805009047206A401C2062281EC8
:100C7000A5F10105F3DC2046FFF7D7FB207800063D
:100C800002D50220BDE8F0870120FBE770472DE97F
:100C9000FF4F0C461E464FF0FF378BB0D2E90001E4
:100CA000DDF860800A908A46C1F30A5505B93D46D1
:100CB000002108464FF00000BAF1000F00F4400098
:100CC00005DA00EB80004FF4400101EA50004FEAE2
:100CD0009059B9F1010F00DDB9460A9850EA4A006F
:100CE0000ED044F61050A5F2FF3545432F14B8F14D
:100CF000000F1ED07542291E1EDDC9F100021CE046
:100D0000B8F1010F4FF0000001D0302103E0F243B1
:100D100005E02154401CB042FBDB3046002200219C
:100D200021540B99C1F80880C1E900200FB0BDE83B
:100D3000F08FBD1B6D1CDEE74A4600DA694206A84B
:100D400000F074FA06AB07CB03AB07C350460A9911
:100D500000F025FB8DE80700A0F500501F3800903B
:100D60000398002D09DD42F21F014A46084403A9F9
:100D70000390684600F084FD08E0A0F500504A4664
:100D80001F3803A90390684600F08EFD8DE8070028
:100D90000004000C03D04FF0FF30410800E0104683
:100DA000B8F1000F03D00022009215461FE0751E17
:100DB00006D400F0B5F902F1300262556D1EF8D587
:100DC000B3460122084302D000227F1C04E02078B1
:100DD000302801D100227F1E002A099787D01DE00C
:100DE000112D07DA00F09CF9303262556D1C50EA83
:100DF0000102F5D108430FD10021681E05E0235CF4
:100E0000625C6354491C2254401E8142F7DBAB46AE
:100E1000A81B401E099001E0009848B1002004F88A
:100E20000B000B98099AC0F80880C0E9002B7DE7F9
:100E300011264FF000085AE72DE9F04F8846044686
:100E4000D21D22F0070191B0D1E90001CDE90A01DC
:100E50000BF0ADFF02460B98C00F01D02D2007E02C
:100E60002068810701D52B2002E0202101EAC00083
:100E7000032A099001D0072A05DB03464146204694
:100E800000F094F90FE12078800601D5E06900E0D8
:100E90000620B8F1650F814606D0B8F1660F18D06C
:100EA000B8F1670F72D132E00020B9F1110F009054
:100EB00001DB112301E009F101030AAA01A90CA831
:100EC000FFF7E5FEDDE90C70002609F10105834618
:100ED00048E001204B4600904FF000470AAA01A9C4
:100EE0000CA8FFF7D4FEDDE90DB00C995D46002695
:100EF00018B909F1010001EB0005B9EB050003D4B5
:100F0000C0F1FF3609F10105A5EB09002BE0B9F1AD
:100F1000010F01DA4FF001090020B9F1110F009023
:100F2000484601DD112300E003460AAA01A90CA8E6
:100F3000FFF7ADFEDDE90C704D46002683462078B4
:100F400000070AD4AB4500DA5D4601A8012D04DD97
:100F5000411911F8011C302907D04F4502DA17F169
:100F6000040F04DA0120824610E06D1EEEE7002F28
:100F700002DCED1B3E4403E0781CA84200DD054680
:100F8000A7EB060000F1010A4FF0004720780007A8
:100F900003D4AA4501DB4FF0FF3A0021B7F1004F1F
:100FA0000DF143088DF8431023D002202B23002F8E
:100FB00001DA7F422D234FF00A0C011EA0F101003F
:100FC00000DC4FB197FBFCF10CFB11720F4602F1F4
:100FD000300208F8012DF0E7A8F101000370218824
:100FE000090501D5452100E06521A0F1010800F8BF
:100FF000011C09980FA9A1EB080707F1070700B129
:10100000012000EB050101EBEA70A1693844A1EB76
:101010000000A0F10100A0612078C00602D42046A3
:10102000FFF7ECF9099830B1D4E901219047206A23
:1010300000F1010020622078C00620D52046FFF78D
:10104000DDF91CE0002E04DBB34502DD01A8805D64
:1010500000E03020D4E901219047206A761C401C32
:10106000BAF1010A20620AD100F053F8C0680168A1
:10107000405CD4E901219047206A401C2062281E70
:10108000A5F10105DEDC07E0D4E9012118F8010B28
:101090009047206A401C2062381EA7F10107F3DC4C
:1010A0002046FFF7C2F9022011B040E601694A1C50
:1010B00002610878704700B58FB0CDE90131002199
:1010C000059105497944CDE9031011466846FFF7BB
:1010D00051FA0FB000BD0000E5FFFFFF0A6802F8FB
:1010E000010B0A60704710B5436913B1AFF300807C
:1010F00001E0FFF7ACF9012010BD127800F12401E6
:101100000A7000224A700122EDE711684FF0FF32A9
:10111000E9E710B5FFF734F9203010BD0BF05CBEE5
:1011200030B5B0F10A024FEA900E71F100034EEAB9
:10113000817EB0EB0E0061EB91014FEA101E4EEA8A
:10114000017E10EB0E0041EB11114FEA102E4EEA1A
:10115000016E10EB0E0041EB11214FEA104E4EEAEA
:10116000014E10EB0E0041EB1141401841F100011E
:101170004FEAD00040EA41704FEAD10110EB800500
:101180004FEA810444EA907444EB01046D1944EB86
:101190000404521BA3414FF0000348BF0A3200D59C
:1011A00030BD401C41F1000130BD00002DE9F0418F
:1011B0001F46044603260168072A01F4006004DB89
:1011C00008B116A505E016A503E008B115A500E0D5
:1011D00015A521F010002060A069C01EA0610FB10C
:1011E000401EA0612046FFF709F94FB1D4E9012163
:1011F00038469047206A401C2062C01C206206E0EE
:10120000206AFAE7D4E9012115F8010B9047761E10
:10121000F8D22046FFF709F9BDE8F0814E414E00B3
:101220006E616E00494E4600696E66002DE9F0471A
:10123000814616468AB035487844D0E90023806854
:101240000092CDE90130314878440C38D0E90223CE
:10125000006903924FF03702CDE9043041F69B302C
:10126000014491FBF2F0A0F1800502FB10141B3C3D
:1012700002D56442012000E00020DFF890A0804603
:101280000027FA44AAF1C60A0DE0E00709D0324669
:10129000684607EB47010AEB810100F005FB8DE88A
:1012A000070064107F1C002CEFD1184F7F44B43F1F
:1012B00017E0E80713D007EB04100DF1180A90E8C7
:1012C0000E00AAE80E00C068F04201D198190890FB
:1012D000324606A903A800F0E7FA03AB07C36D1076
:1012E000641C002DE5D132466946B8F1000F03A811
:1012F00002D000F0C5FA01E000F0D6FAC9E9000119
:10130000C9F808200AB0BDE8F0870000805D010040
:1013100001491820ABBEFEE7260002004FF0013C59
:1013200050F8042B51F8043B9A4221D1A2EB0C0354
:10133000934313EACC1317D150F8042B51F8043B14
:101340009A4215D1A2EB0C03934313EACC130BD1B1
:1013500050F8042B51F8043B9A4209D1A2EB0C033C
:10136000934313EACC13DBD04FF00000704700BF6B
:10137000D01A01BAB1FA81F101F0180122FA01F094
:10138000CB40C1F12001DBB2C0B2C01A2CFA01F38C
:10139000D11A914311EAC311E6D1704770475FEA51
:1013A000400C08BF91F0000F4FEA8C234FEAC12296
:1013B00043EA51514FEA1C5018BF00F5F0404FEA84
:1013C000300018BF41F000415FEA6C5C00F02980FA
:1013D000BCF1FF3F08BF40F080407047130C06BFD0
:1013E00012044FF0100C4FF0000C130E04BF120249
:1013F0000CF1080C130F04BF12010CF1040C930F35
:1014000004BF92000CF1020CD30F04BF52000CF188
:10141000010C11464FF00002A0F11F00A0EB0C00E0
:10142000704711F0004F08BF704731F000413FF4A2
:10143000D5AF0B0C06BF09044FF0100C4FF0000C99
:101440000B0E04BF09020CF1080C0B0F04BF0901BD
:101450000CF1040C8B0F04BF89000CF1020CCB0FB4
:1014600004BF49000CF1010CCCF12003A0EB0C00EF
:1014700022FA03F302FA0CF241EA030100F101003F
:10148000704720F07F4C80EA030023F07F47ACEBED
:10149000070303F57C5300F0004003F1FF032DE93F
:1014A00080494FEA154B09B44FEA144325EA0B4E25
:1014B00024EA03480FF2042606EB132749083E7876
:1014C0005FEA320203FB0667C7F5000707FB06F673
:1014D0004FEA54374FEAD64606F1020607FB066C80
:1014E000CCF1005C4FEA1C472CEA074C07FB06F4E2
:1014F0000CFB06F504EB15464FEA961634BF0020A8
:101500004FF000404FEAD13706FB07FC4FEA1C4C76
:101510000CFB0BF7D21B03FB0CF761EB07010CFB79
:101520000EF7B0EB074072EB17420CFB08F734BF25
:10153000A2EB0742B2EB074261EB17414FEA0C44C2
:101540004FEA910706FB07FC4FEA1C4C0CFB0BF71C
:10155000B0EBC74072EB573203FB0CF734BFA2EB82
:10156000C742B2EBC74261EB57310CFB0EF7B0EB51
:10157000C70072EB57720CFB08F734BFA2EBC7022F
:10158000B2EBC70261EB5771039F4FEA816141EAF9
:10159000921104EBCC044FEAD1374FEA826206FB8A
:1015A00007FC42EA90124FEA80604FEA1C4C0CFBA9
:1015B0000BF7D21B03FB0CF761EB07010CFB0EF7DB
:1015C000B0EB074072EB17420CFB08F734BFA2EBFD
:1015D0000742B2EB074261EB17414FEA8C554FEAE5
:1015E000910704EB9C2406FB07FC4FEA1C4C0CFB08
:1015F0000BF7B0EBC74072EB573203FB0CF734BF6D
:10160000A2EBC742B2EBC74261EB57310CFB0EF7BE
:10161000B0EBC70072EB57720CFB08F734BFA2EBBC
:10162000C702B2EBC70261EB577115EB4C254FEACD
:10163000816141EA92114FEA82624FEAD13742EA70
:10164000901206FB07FC44F100044FEA80604FEA69
:101650001C4C0CFB0BF7D21B03FB0CF761EB0701D7
:101660000CFB0EF7B0EB074072EB17420CFB08F7D0
:1016700034BFA2EB0742B2EB074261EB174115EB17
:101680001C154FEA813141EA92414FEA823242EA27
:1016900090424FEA80304FEA0C7644F1000448EA69
:1016A00003434EEA0B484FF0000EB2EB080C71EB0F
:1016B000030724BF624639464EEB0E0E4FF0000B77
:1016C0000018524149414BEB0B0BB2EB080C71EB8C
:1016D00003077BF1000B24BF624639464EEB0E0E2A
:1016E0004FF0000B0018524149414BEB0B0BB2EB92
:1016F000080C71EB03077BF1000B24BF62463946EF
:101700004EEB0E0E51EA020718BF46F0010616EB2B
:101710000E7655F1000254F1000103D5BDE88901B0
:10172000BDE80088BDE88901BDE80048B61952410E
:1017300041EB0101A3F10103704780807F7E7D7C36
:101740007B7A7978777676757473727171706F6E53
:101750006E6D6C6C6B6A6A696868676666656464FE
:10176000636362616160605F5F5E5E5D5D5C5C5B88
:101770005B5A5A59595858575756565555555454F7
:10178000535352525251515050504F4F4F4E4E4D55
:101790004D4D4C4C4C4B4B4B4A4A4A4949494848A1
:1017A00048474747474646464545454444444443E1
:1017B00043434342424242414141002B26D47700F9
:1017C00021D01CB54FEA370703B44FF010004FF09B
:1017D00010014FF000000FBCBDE810400BF1010BF1
:1017E000BBF1010F08BF5FEA170722BF12F1010228
:1017F00011F101014FF0004143F1000300F00040FE
:1018000043EA00007047F9D35708DAE746EA06468C
:1018100013F1400F4FEA16461FDD13F1200FDFBF13
:1018200016430A46002120335B42C8D0C3F120078B
:1018300046EA064602FA07F74FEA164646EA070660
:10184000C3F1200722FA03F201FA07F721FA03F1A4
:101850004FF0000342EA0702B1E746EA020646EA11
:1018600006464FEA164646EA0106BCBF46EA064669
:10187000360C4FF000034FF000024FF000019EE7DE
:101880002DE9C048934630B491E8380007C831EAE2
:10189000400C48BF34EA430C03D5FFF7F2FDFFF7D5
:1018A0008CFFF0BCBDE800882DE9C048934630B4F9
:1018B00091E8380007C810F0804F08BF13F0804F40
:1018C00003D100F005F8FFF778FFF0BCBDE8008811
:1018D00020F07F4780EA030023F07F4C07EB0C03E6
:1018E000A3F57C5300F00040A3F1FE0392F0000F3B
:1018F00000F0B38095F0000F00F077802DE90149EA
:101900004FEA11404FEA144621EA004800FB06FC6A
:1019100024EA064708FB06F607FB08F800FB07F772
:1019200018EB06484CEB164C4FEA124B18EB0748E5
:101930004FEA15464CEB174022EA0B4E0BFB06FC18
:1019400025EA06470EFB06F607FB0EFE0BFB07F724
:101950001EEB064E4CEB164C4FF000061EEB074EEE
:101960004CEB174B18EB0B0840F1000018EB0E0B7B
:1019700058EB000840F100008F1A4FF000013CBF07
:10198000C943661B14BFB5EB040C00213CBFC9431F
:10199000F61B4FEA17444EEA8E0E27EA04454FEA3B
:1019A0001C4704FB07622CEA074C05FB07F70CFBFE
:1019B00005F604FB0CFC16EB074642EB174216EB50
:1019C0000C4642EB1C421BEB060658EB020241415F
:1019D00046EA9E0601D5BDE80189B619524141EBA0
:1019E0000101A3F10103BDE801894FEA14454FEA63
:1019F000114724EA054621EA074C05FB07F406FBDC
:101A000007F70CFB06F105FB0CFC11EB074144EB5F
:101A100017444FEA124711EB0C4144EB1C4422EAF5
:101A2000074C05FB07F206FB07F70CFB06F605FB68
:101A30000CFC16EB074642EB174216EB0C4642EB4A
:101A40001C456A1854F1000148BF7047B61952414D
:101A500041EB0101A3F10103704795F0000F37D06E
:101A60004FEA11424FEA144721EA024624EA074CA2
:101A700002FB07F106FB07F70CFB06F402FB0CFC6C
:101A800014EB074441EB17414FEA154714EB0C44A4
:101A900041EB1C4125EA074C02FB07F506FB07F763
:101AA0000CFB06F602FB0CFC16EB074645EB174554
:101AB00016EB0C4645EB1C42121951F1000148BFD0
:101AC0007047B619524141EB0101A3F10103704780
:101AD0004FEA14454FEA114724EA054621EA074C2C
:101AE00005FB07F106FB07F70CFB06F24FF00006BB
:101AF00005FB0CFC12EB074241EB174112EB0C42C9
:101B000051EB1C4148BF7047921841EB0101A3F112
:101B1000010370470000000007F0A4BF10B50022C9
:101B2000074B114601EB810403EB440434F81040E9
:101B3000491CC9B222441029F4D3C2F30F1010BDBE
:101B4000F601002009498A6942F010028A6108B151
:101B5000491501E04FF0007105480161416821F02D
:101B6000F00141F030014160704700000010024078
:101B700000100140264910B508684FF6FF021040DA
:101B8000244A40F4E06010430860062004F034FD6D
:101B9000072004F031FD082004F02EFD092004F098
:101BA0002BFD0A2004F028FD172004F025FD282035
:101BB00004F022FD1E2004F01FFD272004F01CFD70
:101BC00009F064F9154A1448D16941F00201D16164
:101BD00000210180018540F65F1383850123838204
:101BE000018446F2600303838383818601878187B2
:101BF000A0F84010018841F001010180906940F097
:101C0000010090610648416841F44061416010BDA7
:101C10000CED00E00000FA05000400400010024056
:101C20000000014008B5024908440090008808BD42
:101C3000006C004008B5024A10440090016008BDE5
:101C4000006C00400448007801284FF0000001D0EB
:101C500004F074BD09F03ABA280000200448017865
:101C60004078012901D004F069BD09F02FBA0000C5
:101C70002800002070B515460E4604460CF0DEF92B
:101C800021461648FEF71AFD144800F077FA304650
:101C900000F028F964211248FEF721FE00222946AF
:101CA0000F4800F05FF90F4C6070012000F008FA57
:101CB00064210A48FEF713FE64210948FEF70FFE6F
:101CC0000CF0C4F96078142802D0172802D003E081
:101CD000012070BD0CF0A9F9002070BDF442002075
:101CE000C84100202001002010B504460CF0A6F9E0
:101CF00021460648FEF7E2FC044800F03FFA00F0F7
:101D000043FA04460CF0A2F9204610BDF44200202C
:101D10002DE9F0411C4615460E4607460CF08EF99B
:101D200023462A463146384600F07CF8142804D071
:101D30000CF08CF90020BDE8F0810CF087F901204F
:101D4000F9E700002DE9F0411C4615460E4607460E
:101D50000CF074F923462A463146384600F092F8D2
:101D6000084C60700CF072F96078142802D01728C3
:101D700003D004E00120BDE8F0810CF056F900200A
:101D8000F9E700002001002010B504460CF056F9D8
:101D900021460B48FEF792FC094800F011F9094969
:101DA0004870012000F08CF964210548FEF797FD8A
:101DB00064210548FEF793FDBDE810400CF046B9DC
:101DC000F442002020010020C841002070B51546D3
:101DD0000E4604460CF032F921460F48FEF76EFC21
:101DE0000D4800F07AF90D4CA9B20022607030461F
:101DF00000F0B8F86070012000F062F960706421B2
:101E00000548FEF76CFD64210548FEF768FDBDE856
:101E100070400CF01BB90000F442002020010020AB
:101E2000C84100202DE9F0411C4616460F460546E4
:101E30000CF004F929461048FEF740FC0E4800F06B
:101E40009DF9384600F04EF8A1B20022304600F06D
:101E500062F80A4C6070012000F032F964210648F3
:101E6000FEF73DFD64210648FEF739FD0CF0EEF863
:101E70006078BDE8F0810000F442002020010020DD
:101E8000C84100202DE9F0411C4617460E46054684
:101E90000CF0D4F829461048FEF710FC0E4800F06C
:101EA0006DF9384600F01EF8A1B20C4A304600F039
:101EB00059F80A4CA41E6070012000F001F9642159
:101EC0000548FEF70CFD64210548FEF708FD0CF0FF
:101ED000BDF86078BDE8F081F442002022010020C6
:101EE000C841002010B50446392011F07BF9E0B25A
:101EF00011F083F9C4F3072011F07FF9C4F3074010
:101F000011F07BF9200E11F078F911F03BF9BDE8E2
:101F100010400AF05BBE70B5064614460D463A20E6
:101F200011F060F9E8B211F068F9280A11F065F9CA
:101F300011F028F90CB1002011E00AF047FE1D282D
:101F40000FD1304600F052F905463B2011F04AF916
:101F500011F018F92E44002CEFD02088284420805E
:101F6000EBE770BD2DE9F041064614460D463C20D6
:101F700011F038F9E8B211F040F9280A11F03DF9F2
:101F800011F000F90CB1002020800C4F0AF01EFE69
:101F90001E2810D1304600F03CFA054638703D202E
:101FA00011F020F911F0EEF82E44002CEED020882C
:101FB00028442080EAE7BDE8F08100001E010020EF
:101FC00010B5044600F0C4F920785C2801D02F2811
:101FD00003D10021642000F032FABDE81040402017
:101FE00000F096B910B506F09FF808B100F0CFF8F0
:101FF000BDE81040302000F08BB9312000F088B9E6
:1020000010B505200CF090FF5A2000F081F904462D
:1020100005200CF089FF204610BD00002DE9F74F88
:1020200082B0834604980E46C700080E4FF0000A9F
:10203000C1F30729C1F307480090562011F0D2F8E8
:10204000F0B211F0DAF8484611F0D7F8404611F036
:10205000D4F8009811F0D1F8049811F0CEF811F0EE
:1020600091F83C4614E000BF0AF0B0FD05461E287A
:1020700001D07CB113E04021584600F0B4F957205C
:1020800011F0B0F811F07EF8641E0BF1400BA4B211
:10209000002CE9D10AF09AFD054614280ED0162D21
:1020A00009D0FFF7ADFF0AF1010000F0FF0ABAF115
:1020B000030FC2D1284605B0BDE8F08F1420FAE71F
:1020C0000146362000F017B910B508B100F040F90C
:1020D000BDE81040342000F01BB970B5054600F093
:1020E00021F904000DD00146284600F021F84128CE
:1020F00007D0142803D0422800D1B32070BD43205C
:1021000070BD2819BDE87040FFF7DEBF10B504466A
:1021100000F01EF920785C2801D02F2803D100217F
:10212000642000F08CF9BDE81040322000F0F0B8D7
:1021300070B5054600200E46012401E0641CE4B29F
:10214000295D5C2913D02F2911D00029F6D1002454
:102150002844FFF7DBFF002C08D0B44206D041280A
:102160000AD0142806D0422800D1B32070BD641CC8
:10217000E4B2EDE7432070BD2046E1E7FF21FFF721
:10218000D7BF2B2000F054B8682000F045B810B538
:10219000222011F027F811F01EF8044610F0F2FF8B
:1021A000204610BD04480178012901D00020704765
:1021B0000021017001207047380000202DE9F04116
:1021C00011F009F8064611F006F8054611F003F87B
:1021D000044611F000F8074610F0D4FF46EA052047
:1021E00040EA044040EA0760BDE8F08170B505466A
:1021F000272010F0F7FF10F0EEFF0400264607D06E
:1022000010F0E9FF641E05F8010B14F0FF04F7D18C
:1022100010F0B8FF304670BD10B504460C2010F029
:10222000E1FF204610F0E9FFBDE81040FFF7C6BF10
:1022300010B504460A2010F0D5FF204610F0DDFF4F
:1022400010F0C9FF044610F09DFF204610BD10B5E8
:1022500004464A2010F0C6FFE0B210F0CEFFC4F3EF
:10226000072010F0CAFFC4F3074010F0C6FF00209B
:1022700010F0C3FF10F086FFBDE810400AF0A6BCC6
:102280002DE9F04115000F46804601D0002028704E
:102290004C2010F0A7FF384610F0AFFF10F072FF8F
:1022A0000AF094FC0646142823D1272010F09AFF48
:1022B00010F091FF10F08FFF044610F08CFF10F02B
:1022C0008AFF10F088FFFFF779FF014684B12246AC
:1022D0004046FFF7A3FE064614280AD108EB44281F
:1022E00015B1287820442870381B10F0FF07CFD193
:1022F0003046BDE8F08110B50C4610F073FF204663
:1023000010F07BFF10F03EFFBDE810400AF05EBC0D
:1023100010B510F067FF10F035FFBDE810400AF06F
:1023200055BC0000014600E0491C0A78002AFBD198
:1023300006E000BF11F8012D5C2A03D02F2A01D03E
:102340008142F7D1814200D0491C081AC0B27047BF
:1023500070B50546012010F045FF10F03CFF432802
:1023600028D22B20FFF764FF102823D22F2010F053
:1023700039FF002010F041FF3220FFF7C9FF142879
:1023800018D1CF20FFF754FF040013D04C20FFF7E3
:1023900043FF00EB04214C2000F051F85020FFF7E0
:1023A0003BFF00EB0421502000F049F80021702091
:1023B00000F045F82F2010F015FF2C7806E000BF44
:1023C00015F8014F5C2C0AD02F2C08D0204610F0B5
:1023D00014FF002CF4D1BDE8704010F0D3BE0020F3
:1023E00010F00BFFF7E770B505460C462C2010F0F7
:1023F000F9FE204610F001FF3CB1287810F0FDFEF8
:102400006D1C641E14F0FF04F7D1BDE8704010F09D
:10241000B9BE70B505462D2010F0E4FE10F0DBFECD
:102420000400264607D0287810F0E7FE6D1C641ED5
:1024300014F0FF04F7D110F0A5FE304670BD70B562
:1024400005460C460D2010F0CDFE284610F0D5FEB6
:10245000E0B210F0D2FEC4F3072010F0CEFEC4F3B9
:10246000074010F0CAFE200E10F0C7FEBDE8704015
:1024700010F088BE01200BF0EFBD10B502F0DAFFBE
:1024800007F0A6FABDE81040FFF7F4BF10B5044608
:10249000012150200BF06CFEC8B100200BF000FEB3
:1024A000207000200BF0FCFD607000200BF0F8FDA8
:1024B000A07001200BF0F4FDE0700BF093FE002102
:1024C00050200BF055FE0BF08DFE012010BD0BF0DF
:1024D00089FE002010BDF8B50D4606460BF0D2FD72
:1024E0006846FFF7D3FF040011D09DF801009DF866
:1024F000001000EB0120C0F30D0030809DF80300B8
:102500009DF8021000EB0120C0F38D0028800BF035
:10251000C1FD2046F8BD000030B50E480E4C00232A
:102520000078042234F81010401CC0B20D46052873
:1025300000D3002034F810104D1BADB2521E2B44B6
:1025400012F0FF02F0D1C3F38F004FF4FA71484349
:1025500030BD000000000020EC01002010B5044652
:10256000124911F04FF8124910F096FE214611F071
:1025700049F8104910F090FE214611F043F80E4939
:1025800010F08AFE214611F03DF80C4910F084FE4F
:10259000214611F037F80A4910F07EFE214611F06D
:1025A00031F8BDE81040074910F076BE92EBD72C09
:1025B000EEC70B310DBDA2343E5ADE37774BBB3A26
:1025C00045B8353D145C1C3F2DE9F04706461A4FCF
:1025D0000898984691468A46002540B10CF0D2FBF7
:1025E00004461649884504DA3046BDE8F0873C4683
:1025F000F7E7134890F8330018B15046FFF7AEFFE5
:1026000005464946404610F047FE294611F08AF932
:10261000214610F0F7FF04463946504610F03CFEC4
:10262000084910F0EFFF314610F0ECFF2146BDE8FD
:10263000F04710F0A5BE0000339388436F12833A31
:10264000A444002066A6CA422DE9F0411F469046E8
:102650000C4606460CF096FB05460F49204610F046
:102660001BFE0E4910F0CEFF04464146384610F0DE
:1026700013FE294610F0C6FF214610F081FE3146B8
:1026800010F0C0FF0649884202DA0020BDE8F08160
:10269000BDE8F04110F0CBBA3393884366A6CA4236
:1026A0006F12833A2DE9FF4F87B090460F461D46C3
:1026B000182220496846FEF7E0F80026012440F27F
:1026C000013B40F2035A40F2056900BF0BF09EFD4A
:1026D000684603F08DF958F8251017A35A460A20CA
:1026E00007F0FAFF37F8151000235246484608F065
:1026F000ABF82146684603F097F90446012807D055
:10270000022C0ED0002CE1D10BB03046BDE8F08F8A
:102710002B4642463946079800F010F807E001269C
:10272000D4E707EB45015246484602F01FFA00285D
:10273000CCD0F4E7F86801084C2F6D002DE9FF4F6D
:102740008DB0002004908F481F460E46848831F8D3
:10275000175008880A90B1F802B0B1F804A0B1F897
:1027600006904FF0010852F82700874910F04AFF01
:102770004FF07C5110F090FD10F0C4FE81490D9A8D
:1027800001EB42010691888201210D9805F0B4FC0D
:102790000BF03CFD7DA1002003F0FAF8F580B58038
:1027A000758035800D980CF001FB03907AA1002014
:1027B00003F0EEF8002340F2035229460A2008F005
:1027C00043F878A14FF4407003F0E2F877A340F2A9
:1027D000036240F20530039907F07EFF74A14FF4C5
:1027E000C06003F0D5F80D9805F070FC014640F28A
:1027F000056008F057F864200CF02CFB0028D1D0BD
:102800000CF076F9112856D008DC01281AD00428DB
:1028100078D0092877D0102813D106E0212873D06A
:10282000402808D041280CD162E042F20F70854266
:1028300005D26D1C02E0632D01D96D1EADB20120E1
:10284000049089E006986421808A48430590042119
:102850004FF4407003F092F840F2036205A940F291
:10286000053002F091F900B301200490059810F0B2
:1028700081FE0290642D19D3039810F0FF4F17D0FA
:10288000284610F077FE05460698808A10F072FE02
:10289000294610F075FD0146029810F071FD464979
:1028A00010F06EFD10F02EFE85B201E04FF47A7547
:1028B0000BF0ACFC50E040F60200844201D2641CF4
:1028C000A4B2642111200FF001F950B138E0641C6A
:1028D000A4B2204610F04EFE384910F093FE01F0ED
:1028E000C7FC032111200FF0F1F80028EFD027E0FA
:1028F000C82C01D9641EA4B2642141200FF0E6F86F
:1029000068B11DE02CE011E016E0641EA4B2204680
:1029100010F030FE294910F075FE01F0A9FC0121EC
:1029200041200FF0D3F80028EFD009E040F29E706C
:10293000844205D2643402E0DC2C01D9143CA4B2F8
:10294000204610F017FE1D4910F05CFE01F090FCCF
:102950000C48848000F036FFB8F1000F7FF41EAF02
:1029600000210D9805F0C8FB0A983080A6F802B047
:10297000A6F804A0A6F8069026F81750049811B0FF
:10298000BDE8F08FA444002000002041B5F7CAD470
:10299000C1F7C1BF00000000C1F7C1BFB1B6C2CAD4
:1029A0003A000000C1F7C1BF3A0000004C2F6D0093
:1029B000CAE4B3F63A0000000000C8420AD7233C3C
:1029C0002DE9F04F89B0834620223A496846FDF749
:1029D00054FF3949002001EBCB0701243C3740F27A
:1029E00003560890BBF1010F05D0BBF1020F02D0D6
:1029F00040F2015A00E0B246304940F2052801EBAE
:102A00004B0540F2056900BF0BF000FC684602F080
:102A1000EFFF5946092008F071F8A98A28A3524609
:102A2000404607F011FF398800233246484607F038
:102A30000BFF2146684602F0F7FF04000FD0012C7F
:102A400024D0022C2DD0032CE7D1324639464846FB
:102A500002F08CF80028E0D001200890DDE708980B
:102A600000280AD0232117A003F08AFD062807D0EA
:102A7000072808D00124002CC6D109B0BDE8F08F8A
:102A800000F088FAF9E700F01BFAF4E705F1140109
:102A90005246404602F06AF80028BED000F092FE8E
:102AA000BBE73946584600F015F80028ACD00120A5
:102AB0000890A9E7D868010830440020A444002009
:102AC0004C2F6D00B1A3B4E6B1EAB6A8CAFDBEDDD5
:102AD000203F00002DE9FF5F80460020074603905D
:102AE00083460290B5480D4640F203568488002084
:102AF00001905FEA080005D0012855D0B8F1020F17
:102B000004D151E040F2015BADA001900BF07EFBDF
:102B10000121404605F0F0FAA84901EB480A404679
:102B20000CF044F98146B8F1000F3FD04E46A5A104
:102B3000002002F02DFF2988002340F203520A20D2
:102B400007F082FEA2A14FF4407002F021FF5A4626
:102B5000494640F20530019B07F0BEFD9EA14FF4AF
:102B6000C06002F015FF404605F0B0FA014640F2A1
:102B7000056007F097FE64200CF06CF90028CED0B9
:102B80000BF0B6FF112877D040DC012856D004287E
:102B900073D0092872D01028C1D1288842F20F7151
:102BA000884249D2401C46E0B346ADE70BF0B2FF85
:102BB00006460CF0B3F8014600200246009033466A
:102BC0004846FFF701FD06467EA1002002F0E0FE28
:102BD0002988002340F203520A2007F035FE80A125
:102BE0004FF4007002F0D4FE5A46314640F2052000
:102BF000019B07F071FD76A14FF4806002F0C8FEE2
:102C00005A46494640F20540019BA5E721287CD061
:102C100040280CD0412882D1C82C01D9641EA4B20E
:102C2000642141200EF052FF00286FD0AFE02888C9
:102C3000632801D9401E2880012770E7BAF81400E4
:102C40000290B8F1000F4FF0040118D04FF440701B
:102C500002F094FE40F2035202A940F2053001F066
:102C600093FF0028E9D00127029810F083FC8146E9
:102C70002888642834D230E04DE097E07DE04FF4BE
:102C8000007002F07BFE40F2015202A940F20520E2
:102C900001F07AFF0028D0D00127029810F06AFCDA
:102CA00081462888642818D316F0FF4F10D010F002
:102CB00061FC06464148808A10F05CFC314610F009
:102CC0005FFB0146484610F05BFB10F01BFC2880C0
:102CD00040460CF06BF8814668E74FF47A7018E0D4
:102CE00016F0FF4FA9D010F045FC0646BAF81400C4
:102CF00010F040FC314610F043FB0146484610F00E
:102D00003FFB394910F03CFB01E03CE02DE010F0C6
:102D1000F9FB288003E740F60200844201D2641CDC
:102D2000A4B2642111200EF0D1FE58B12FE0641C32
:102D3000A4B2204610F01EFC314610F063FC01F0F6
:102D400097FA00E0294E032111200EF0BFFE002863
:102D5000EDD01CE0641EA4B2204610F00BFC3146FE
:102D600010F050FC01F084FA00E0204E01214120D7
:102D70000EF0ACFE0028EDD009E040F29E708442D7
:102D800005D2643402E0DC2C01D9143CA4B2204604
:102D900010F0F0FB154910F035FC01F069FA074816
:102DA000848000F00FFD03980028B3D00021404636
:102DB00005F0A2F904B03846BDE8F09FA444002015
:102DC0004C2F6D00C1F7C1BFB1B6C2CA3A000000B6
:102DD000B1EABFF63A000000CAE4B3F63A000000D8
:102DE000B9A4BFF63A0000000000C8420AD7233C4D
:102DF0002DE9F0472A49804601EB0800294990F85F
:102E00002460012401EBC800002500F13C0A012EDA
:102E100015D0022E42D1244FDFF890900BF0F6F936
:102E2000384602F0E5FD2146384602F0FDFD044635
:102E3000052831D2DFE800F006181E282C001A4FB2
:102E4000283FE9E7002D29D0232119A003F098FBA2
:102E5000062805D0072821D1BDE8F04700F030B89A
:102E6000BDE8F04700F096B809EB0612002304E035
:102E70000125D3E709EB0612012351464046FFF72F
:102E800011FC0028CAD0F3E709EB06120223F4E78D
:102E900009EB06120323F0E7002CBFD1BDE8F08751
:102EA000A44400203044002038690108F06701087C
:102EB000B1A3B4E6B1EAB6A8CAFDBEDD203F00006A
:102EC00010B5062231494FF4807002F01BF82F48EC
:102ED00045F6A5214FF47A7482888A4203D0E20035
:102EE00002804480818072222949802002F00AF801
:102EF000274845F6A422B0F87010914244D046F617
:102F0000B321A0F86410A0F86810A0F86C10A0F825
:102F10006640A0F86A40A0F86E4041818181C1817D
:102F200001824182048544858485C48504864FF4EA
:102F30000041018041808180C18001818182C18204
:102F4000018341838183C483048444848484C4844E
:102F500044868486C486048744878487A0F84440D6
:102F6000A0F84C40A0F85440A0F85640A0F85840B3
:102F7000A0F85A40A0F85C40A0F85E40A0F860407D
:102F8000A0F86240A0F8702010BD0000B001002041
:102F90003044002010B5062205494FF4807001F03E
:102FA000C1FF7222BDE810400249802001F0BABF83
:102FB000B00100203044002010B50BF027F905A126
:102FC000002002F0E5FC0221BDE81040012002F0E3
:102FD00075BA0000C8D5BEF920D7D4B6AFB5F7C1D1
:102FE000E300000010B50BF011F905A1002002F07C
:102FF000CFFC0421BDE81040032002F05FBA0000BE
:10300000CAB1BEF920D7D4B6AFB5F7C1E30000000E
:1030100010B50BF0FBF805A1002002F0B9FC00216F
:10302000BDE81040084602F049BA0000B7DBB3BE65
:1030300020D7D4B6AFB5F7C1E30000002DE9F14FBA
:1030400088B0182278496846FDF717FC7748089938
:103050000125848876484FF4A06900EB410606F10B
:1030600014073236002040F2054A40F2035B40F27A
:103070000528069001E0079850B10BF0C7F86846A4
:1030800002F0B6FC0920089907F038FD00200790EF
:10309000398800234A46504607F0D6FB3188002382
:1030A0005A4640F2056007F0CFFB2946684602F019
:1030B0008FFC60A14FF4007002F06AFC08980BF0DE
:1030C0000FFE01465DA340F20262404607F004FB9A
:1030D00019200BF0BFFE0028EBD02946684602F00D
:1030E00077FC0BF005FD11284AD008DC012819D027
:1030F00004282FD009287DD0102817D10CE02128D2
:103100007ED0402802D0412810D156E06D1CEDB28F
:10311000032D0BD3012509E0012D00D803256D1ED9
:10312000EDB203E0012D06D0022D08D0002DAFD165
:1031300009B0BDE8F08F4A463946504603E05A468A
:10314000314640F2056001F011FD0028A0D00120B9
:1031500006909DE706980028EAD0232138A003F0C6
:103160000FFA062802D0072806D102E0FFF712FF67
:10317000DEE7FFF7A5FE0025002D7FF47BAFD7E744
:1031800040F60200844201D2641CA4B264211120E2
:103190000EF09CFC50B137E0641CA4B2204610F045
:1031A000E9F92B4910F02EFA01F062F80321112001
:1031B0000EF08CFC0028EFD026E0C82C01D9641E4C
:1031C000A4B2642141200EF081FC50B11CE0641EC9
:1031D000A4B2204610F0CEF91D4910F013FA01F008
:1031E00047F8012141200EF071FC0028EFD00BE0E0
:1031F00000E005E040F29E70844205D2643402E0B3
:10320000DC2C01D9143CA4B2204610F0B3F91049CB
:1032100010F0F8F901F02CF80448848000F0D2FA9C
:10322000002D7FF428AF83E7A8680108A44400209C
:1032300030440020BCC6D1B93A0000006B50610098
:10324000B1A3B4E6B1EAB6A8CAFDBEDD203F0000D6
:103250000AD7233C2DE9F14F724882B001258488BA
:10326000714802994FF4007B00EB410606F10A0712
:103270000020283640F2052940F2026840F2035A45
:10328000CDF800000AF0C2FF2946684802F0A0FB12
:10329000664802F0ADFB0920029907F02FFC39883F
:1032A0000023424640F2054007F0CEFA3188002361
:1032B000524640F2056007F0C7FA29465B4802F023
:1032C00087FB5BA1584602F063FB02980BF028FDD8
:1032D000014659A34246484607F0FEF919200BF073
:1032E000B9FD0028EDD00BF003FC112845D008DC17
:1032F000012819D004282CD0092878D010280CD106
:103300000CE0212879D0402802D0412805D151E095
:103310006D1CEDB2032D00D301257EE0012D00D8F8
:1033200003256D1EEDB278E0012D02D0022D74D17F
:1033300004E04246394640F2054003E05246314639
:1033400040F2056001F012FC00289BD001200090A3
:1033500098E70098002862D0232138A003F010F9E4
:10336000062802D0072858D103E0BDE8FE4FFFF73A
:1033700011BEFFF7A5FD00254FE040F60200844294
:1033800001D2641CA4B2642111200EF09FFB50B145
:1033900037E0641CA4B2204610F0ECF82B4910F082
:1033A00031F900F065FF032111200EF08FFB00289A
:1033B000EFD026E0C82C01D9641EA4B264214120BC
:1033C0000EF084FB50B11CE0641EA4B2204610F045
:1033D000D1F81E4910F016F900F04AFF01214120F2
:1033E0000EF074FB0028EFD00BE000E005E040F2A7
:1033F0009E70844205D2643402E0DC2C01D9143C76
:10340000A4B2204610F0B6F8104910F0FBF800F016
:103410002FFF0448848000F0D5F9002D98D1BDE835
:10342000FE8F0000A4440020304400209068010872
:10343000CEC2B6C83A000000A1E60000B1A3B4E6CF
:10344000B1EAB6A8CAFDBEDD203F00000AD7233C82
:103450002DE9F14F88B0182278496846FDF70DFA3A
:10346000774808990125848876484FF4A06900EBD5
:103470004107002007F11E0640F2054A40F2035BB7
:1034800040F20528069001E0079850B10AF0BEFE10
:10349000684602F0ADFA0920089907F02FFB0020DA
:1034A0000790398800234A46504607F0CDF9318805
:1034B00000235A4640F2056007F0C6F929466846DF
:1034C00002F086FA60A14FF4007002F061FA0898E9
:1034D0000BF0A0FC01465EA340F20362404607F0F9
:1034E000FBF819200BF0B6FC0028EBD02946684603
:1034F00002F06EFA0BF0FCFA11284AD008DC012821
:1035000019D004282FD009287DD0102817D10CE01D
:1035100021287ED0402802D0412810D156E06D1CD1
:10352000EDB2032D0BD3012509E0012D00D80325B1
:103530006D1EEDB203E0012D06D0022D08D0002D46
:10354000AFD109B0BDE8F08F4A463946504603E096
:103550005A46314640F2056001F008FB0028A0D031
:10356000012006909DE706980028EAD0232139A083
:1035700003F006F8062802D0072806D102E0FFF77C
:1035800009FDDEE7FFF79CFC0025002D7FF47BAFF3
:10359000D7E740F60200844201D2641CA4B2642141
:1035A00011200EF093FA50B137E0641CA4B220460B
:1035B0000FF0E0FF2B4910F025F800F059FE032131
:1035C00011200EF083FA0028EFD026E0C82C01D994
:1035D000641EA4B2642141200EF078FA50B11CE0C0
:1035E000641EA4B220460FF0C5FF1E4910F00AF871
:1035F00000F03EFE012141200EF068FA0028EFD0D5
:103600000BE000E005E040F29E70844205D2643495
:1036100002E0DC2C01D9143CA4B220460FF0AAFF32
:1036200010490FF0EFFF00F023FE0548848000F002
:10363000C9F8002D7FF428AF83E70000C0680108B7
:10364000A444002030440020B2EED1B93A0000007A
:103650006B506100B1A3B4E6B1EAB6A8CAFDBEDD05
:10366000203F00000AD7233C70B5442207494FF49D
:10367000C07001F047FC054C054DA08E696888427A
:1036800003D000F007F8A888A08670BDA4440020ED
:10369000880000200848007838B1012807D00228A7
:1036A00007D0032807D100F06BB800F029B800F06C
:1036B00047B800F003B87047A444002010B50F4885
:1036C0000224002100F8144C01744FF47A72028035
:1036D0004174C8224280817482800123C374052210
:1036E000C2800375028141754FF4FA714181828174
:1036F000C28100F80C4C837710BD0000B844002054
:103700000E480021012300F8141C03744FF47A7250
:1037100002804174C822428081748280C174052273
:10372000C2800175028143754FF4FA73438182812F
:10373000C281022200F80C2C81777047B844002027
:103740000E4801214FF47A7200F8141C01740280B3
:1037500000224274C823438082748380C17405238D
:10376000C3800175038142754FF4FA7141818381F1
:10377000C381022100F80C1C82777047B8440020F6
:103780000F4803214FF47A7200F8141C01210174D0
:1037900002804174C8224280817482800021C174F9
:1037A0000522C2800175028141754FF4FA7343818D
:1037B0008281C281022200F80C2C817770470000C0
:1037C000B8440020442202494FF4C07001F0AABB63
:1037D000A44400202DE9F05F0025394C2E4640F22C
:1037E000015740F207384FF4AF6A40F207594FF4DF
:1037F000FA6B00BF0AF00AFD324802F0F9F8A18A1C
:1038000031A33A46404607F01FF8618D31B130A32D
:1038100040F20252484607F017F803E02EA148464E
:1038200002F0B6F86D1CE9B2264802F0FDF805007A
:103830001AD0012D2ED0022DE1D1618D24A340F2AA
:103840000252484607F000F81D4940F202522A3160
:10385000484601F08BF90028D1D0618D594501D936
:10386000A4F82AB00126CAE7002E27D023211DA0E4
:1038700002F086FE02280BD0062805D007281DD1AD
:10388000BDE8F05FFFF7F0BEBDE8F05FFFF79ABF5D
:103890000125AFE70A493A461431404601F066F97E
:1038A0000028ACD0A08A504502D9A4F814A0D9E7CA
:1038B0004FF416718842D5D2A182D3E7BDE8F09FBC
:1038C000A4440020906C0108204C2F6D00000000E3
:1038D000206B506100000000205BCDA3D3C35D20AE
:1038E00020000000B1A3B4E6D0DEB8C4BDE1B9FB4E
:1038F000203F00002DE9F05F0025344C2F4640F2B8
:10390000063840F2035640F206594FF4967A4FF0CB
:10391000640B00BF0AF07AFC2D4802F069F8E18AD6
:103920002CA33246404606F08FFF218B29A3324656
:10393000484606F089FF6D1CE9B2254802F074F88C
:10394000050011D0012D25D0022DE8D11F493246A6
:103950001831484601F00AF90028E0D0218B514582
:103960002BD9A4F818A02CE0002F2CD023211BA0C9
:1039700002F006FE02280BD0062805D0072822D127
:10398000BDE8F05FFFF770BEBDE8F05FFFF71ABF5C
:103990000125BFE70D4932461631404601F0E6F8F1
:1039A0000028BCD0E18A514502D9A4F816A008E04D
:1039B000642906D2A4F816B003E0642901D2A4F861
:1039C00018B00127ABE7BDE8F09F0000A444002039
:1039D000686C0108204C2F6D00000000B1A3B4E614
:1039E000D0DEB8C4BDE1B9FB203F00002DE9F05F97
:1039F0000025424C2F4640F2015940F2062840F281
:103A0000064B40F2035640F2066A00BF0AF0FEFB86
:103A10003B4801F0EDFFA18A3AA34A46404606F032
:103A200013FFE18A37A33246584606F00DFF218B7B
:103A300034A33246504606F007FF6D1CE9B2304809
:103A400001F0F2FF050014D0012D28D0022D39D04D
:103A5000032DE0D1294932461831504601F086F84D
:103A60000028D8D0208B4FF4967188423ED921830C
:103A700040E0002F40D0232124A002F081FD022845
:103A80000BD0062805D0072836D1BDE8F05FFFF738
:103A9000EBBDBDE8F05FFFF795BE0125B6E717491E
:103AA0004A461431404601F061F80028B3D0A08A9C
:103AB0004FF4AF61884203D84FF41671884219D28F
:103AC000A18217E00D4932461631584601F04EF8F2
:103AD0000028A0D0E08A4FF49671884201D9E18293
:103AE00008E0642806D26420E08203E0642801D262
:103AF0006420208301278EE7BDE8F09FA4440020C6
:103B0000A86C0108204C2F6D00000000B1A3B4E6A2
:103B1000D0DEB8C4BDE1B9FB203F00002DE9F84F6D
:103B2000DFF8E8B0012500269BF80940BBF80A0041
:103B3000ADF8000040F2015740F20958DFF8D0908C
:103B400040F2093A0AF062FB3148183001F050FFA8
:103B500004EB440109EB4101504601F019FF2DA38C
:103B60003A46BDF80010404606F06EFE2848294649
:103B7000183001F059FF050023D0012D1DD0022D72
:103B8000E6D13A466946404600F0F0FF0028DFD013
:103B9000BDF80000962804D29620ADF800000AF087
:103BA00044FABDF800104FF49670814203D9ADF885
:103BB00000000AF03AFA0126CAE7641C04F0030484
:103BC000F9E7002E0BD0232113A002F0D9FC022824
:103BD0001AD0062805D0072801D1FFF745FDBDE81A
:103BE000F88F8BF80940BDF800005D46ABF80A007D
:103BF000FFF7E8FD68890FF0BDFC0B490FF002FDEF
:103C0000697A0EF07FFDEAE701259BE7A4440020D6
:103C1000C86B0108A1E60000B1A3B4E6C5E4D6C3B1
:103C2000CAFDBEDD203F0000CDCCCC3D2DE9F84FD4
:103C3000DFF804B10125414F9BF80E40BBF80C00A2
:103C4000ADF80000002640F2015940F2096A40F246
:103C5000093800BF0AF0DAFA6CB1384810F1800078
:103C600001F0C6FE57F82410404601F091FE012CE9
:103C700004D09CB309E031489830F1E730A34A46BC
:103C8000BDF80010504606F0DFFD2C482946803074
:103C900001F0CAFE05002BD0012D24D0022DE1D168
:103CA000012CD7D14A466946504600F05FFF0028F4
:103CB000D0D0BDF80000962804D29620ADF80000C0
:103CC0000AF0B3F9BDF800104FF4AF70814203D988
:103CD000ADF800000AF0A9F90126BBE7FFE7174895
:103CE00029469830D4E70CB10024F5E70124F3E726
:103CF000002E0BD0232113A002F042FC022819D081
:103D0000062805D0072801D1FFF7AEFCBDE8F88FE3
:103D1000BDF80000ABF80C005D468BF80E40FFF7D5
:103D200051FDA8890FF026FC0A490FF06BFC0EF03C
:103D3000FDFCEBE701258DE7A4440020786B01082A
:103D4000A1E60000B1A3B4E6C5E4D6C3CAFDBEDD5A
:103D5000203F0000CDCCCC3D2DE9F04701250026C9
:103D60000AF054FA1C4F4FF480694FF000081B4CC6
:103D70000AF04CFA18482C3001F03AFE607857F8F7
:103D80002010484601F004FE134829462C3001F06B
:103D90004BFE054601280DD0002DE9D1002E19D08B
:103DA00004210FA002F0ECFB06280FD0BDE8F0477D
:103DB000FFF75ABC0AF02AFA6078401CC0B2607063
:103DC000072801D384F801800126D1E7BDE8F04738
:103DD000FFF7F8BCBDE8F087EC650108A4440020BB
:103DE000B1A3B4E6C5E4D6C33F0000002DE9F04717
:103DF000012500261C4F1D4C40F20549B04600BF6E
:103E00000AF004FA18484C3001F0F2FD207857F817
:103E10002010484601F0BCFD134829464C3001F003
:103E200003FE054601280DD0002DE9D1002E19D042
:103E300004210FA002F0A4FB06280DD0BDE8F04736
:103E4000FFF712BC20780126401CC0B22070042865
:103E5000D6D384F80080D3E7FFF71CFCBDE8F04719
:103E6000FFF7B0BCBDE8F087DC650108A444002082
:103E7000B1A3B4E6C5E4D6C33F0000002DE9F04786
:103E80000025284C2F4640F2025840F207364FF4E6
:103E9000FA6900BF0AF0BAF9234801F0A9FD618D63
:103EA00029B122A34246304606F0CEFC03E021A110
:103EB000304601F06DFD6D1CE9B21B4801F0B4FD08
:103EC000050016D0012DEAD1618D18A34246304677
:103ED00006F0BAFC134942462A31304600F046FE4D
:103EE0000028DCD0618D494501D9A4F82A9001272A
:103EF000D5E7002F13D0232111A002F041FB0228A7
:103F00000BD0062805D0072809D1BDE8F047FFF7F8
:103F1000ABBBBDE8F047FFF755BC0125BAE7BDE8EC
:103F2000F0870000A4440020806C0108206B5061E1
:103F300000000000205BCDA3D3C35D202000000063
:103F4000B1A3B4E6D0DEB8C4BDE1B9FB203F0000A8
:103F50002DE9FF5F9448DFF854820125D0E9001273
:103F6000CDE90212D0E90210CDE900100DF1080BE5
:103F7000A8F107064FF003098D48002490F824109B
:103F800061B1012902D0022905D101E0002100E040
:103F9000012188F8001000213170012490F82510CB
:103FA00069B1012902D0022906D103E0022108F8F3
:103FB000041001E008F8049001213155641C90F8C8
:103FC000261069B1012902D0022906D103E002229C
:103FD00008F8042001E008F8049002213155641C1F
:103FE00090F8271069B1012902D0022906D103E017
:103FF000022208F8042001E008F8049006F8049072
:10400000641C90F8281069B1012902D0022906D158
:1040100003E0022108F8041001E008F804900421EC
:104020003155641C90F8291061B1012902D0022990
:1040300005D101E0042200E0052208F80420052152
:104040003155641C007A90B1012808D0022802D0B2
:10405000032809D105E0062008F8040004E0072140
:1040600000E0082108F8041006203055641C022DD9
:104070002AD0032D4DD00AF0C9F80027A7421ED23E
:10408000032C01D84BA100E04EA1002001F080FCE0
:10409000B7FBF9F109FB117A4349F25D10313BF8A6
:1040A0001A0051F8221001F073FC3F4918F807205C
:1040B0002C313DF81A0051F8221001F069FC7F1CE8
:1040C000FFB2032FDAD348E00AF0A0F8032741A19A
:1040D000002001F05DFCA74216D2B7FBF9F109FB05
:1040E000117A3149F25D10313BF81A0051F8221073
:1040F00001F04EFC2C4918F807202C313DF81A002D
:1041000051F8221001F044FC7F1CFFB2062FDED3D1
:1041100023E00AF07BF8062732A1002001F038FCEA
:10412000A74216D2B7FBF9F109FB117A1E49F25DDD
:1041300010313BF81A0051F8221001F029FC1A49FD
:1041400018F807202C313DF81A0051F8221001F020
:104150001FFC7F1CFFB2092FDED3A41CB4FBF9F0B7
:10416000C4B20AF0C5FC082818D007DC012803D027
:10417000022810D004280ED1BDE8FF9F102804D0DB
:10418000202802D0402806D108E06D1E15F0FF055A
:104190007FF4F2AE2546002DFAD1EDE76D1CEDB2AD
:1041A000A542F8D90125E7E6086E0108BD01002007
:1041B000A4440020B1C3B0B2D7B0C7E9BFF62020F5
:1041C00000000000B1C3B0B2D7B0C7E9BFF62031DC
:1041D00000000000B1C3B0B2D7B0C7E9BFF62032CB
:1041E00000000000B1C3B0B2D7B0C7E9BFF62033BA
:1041F000000000002DE9FF5F00249B4691468A469F
:10420000264625463AF814000FF0B4F917490FF086
:10421000F9F9B04659F8246001462F4630460FF0B0
:10422000AFF80546014600980FF0B8FA03D2641CB7
:10423000E4B25C45E6D3394628460FF073FB0446EA
:10424000414630460FF06EFB21460FF099F80446C8
:10425000394600980FF066FB21460FF0D3F904B001
:104260004146BDE8F05F0FF017B800006F12833AC7
:1042700002490A78012A00D14860704728000020CE
:1042800001494870FDF7EABC280000200A4980B1C6
:10429000012806D0022807D0032808D04FF0FF30AD
:1042A00007E043F6982004E047F2305001E04EF674
:1042B00060204860704700000800002010B506F03C
:1042C0000EFF074928B101200870BDE8104006F034
:1042D00079BE00200870BDE8104002F09FB90000D0
:1042E00028000020C0B2202800D27F20024901EB24
:1042F0000010A0F5007070470C3B010870B5C0B20B
:104300000123104C60F31F21E4229818400804EBAD
:10431000400514F810606D7805EB0625ADB2A94292
:1043200003D1094901EB401070BD03D900F1010030
:1043300083B202E0A0F1010082B29342E5D90248C3
:1043400070BD00000C410108D642010870B50C4652
:10435000064615460021A02009F00AFF60B1300A88
:1043600009F0D4FE40B1F0B209F0D0FE20B1012135
:10437000A02009F0FDFE48B909F034FF002070BD0F
:10438000002009F08DFEC04304F8010B6D1E15F0EE
:10439000FF05F5D1012009F083FEC043207009F02C
:1043A00021FF012070BD000070B50C460646154681
:1043B0000021A02009F0DCFE08B3300A09F0A6FEB7
:1043C000E8B1F0B209F0A2FEC8B100BF14F8010BC9
:1043D000C043C0B209F09AFE88B16D1E15F0FF050A
:1043E000F4D109F0FFFEA0254FF4C874002128463F
:1043F00009F0BEFE30B109F0F5FE012070BD09F0F4
:10440000F1FE03E0641E2404240CEFD1002070BDF3
:1044100010B501F005FA10BD0349012008700349E9
:104420004003086070470000380000201404014079
:1044300010B501F0F5F910BD10B501F0F1F910BD9E
:1044400010B501F0EDF910BD10B501F0E9F910BD9E
:1044500010B501F0E5F910BD2DE9F34FDF4897B035
:104460004FF00108858803A91898FCF753FB0898BA
:10447000DFF86CB300F26C7087B207984FF4FA6AF9
:10448000401CC4B2069840F63309C6B223463A46E9
:10449000D4A111A80096FBF79DFF11A9179801F070
:1044A00077FA4046B8F1010F05D0022806D0B8F1DE
:1044B000030F08D116E00421179802E01798401D59
:1044C00012E001F05BFA0AF013FB10282DD00EDC8D
:1044D0000A28DBD2DFE800F005F00505EF05050549
:1044E000EEEDD3E71798083080B20221E9E72128E2
:1044F0006FD00BDC11286DD02028C7D1A8F10100A6
:1045000010F0FF08C2D103208046BFE740287FD0CB
:104510004128BBD1C82D01D96D1EADB26421412007
:104520000DF0D4FA002872D04BE14046B8F1010FEB
:104530000BD002282BD0B8F1030FA7D13C211020BB
:104540000DF0C4FA00285AD026E03C2110200DF0CE
:10455000BDFAA8B17F1CBFB24F4500D9574691E0C4
:104560007F1CBFB24F4500D9574623463A469DA10E
:1045700011A80096FBF72EFF11A9179801F008FA71
:104580000F2110200DF0A2FA0028E9D07AE03C219A
:1045900010200DF09BFAA8B1641CE4B20C2CA0D939
:1045A000012473E7641CE4B20C2C00D901242346D7
:1045B0003A468CA111A80096FBF70CFF11A9179899
:1045C00001F0E6F90F2110200DF080FA002888D1C3
:1045D000E8E7F2E0BDE02146384609F021FE761C0E
:1045E000F6B2B04200D2012623463A467DA111A878
:1045F0000096FBF7EFFE11A9179801F0C9F90F21FA
:1046000010200DF063FA0028CBD1E4E700E0C7E00A
:104610004046B8F1010F14D002283FD0B8F1030F83
:10462000BFD13C2140200DF051FA002870D0761EF9
:1046300016F0FF06B5D12146384609F0F1FD0646D1
:1046400024E73C2140200DF041FAA8B17F1EBFB203
:10465000574517D24F4615E07F1EBFB2574500D2CF
:104660004F4623463A465FA111A80096FBF7B2FEDB
:1046700011A9179801F08CF90F2140200DF026FAAE
:104680000028E9D023463A4656A111A80096FBF728
:10469000A1FE11A9179801F07BF90CE73C214020FD
:1046A0000DF014FAC8B1641E14F0FF04C8D10C2434
:1046B000ECE67CE033E04AE03AE0641E14F0FF04EC
:1046C00000D10C2423463A4646A111A80096FBF7D8
:1046D00081FE11A9179801F05BF90F2140200DF020
:1046E000F5F90028ACD1E8E7761E16F0FF0604D1F4
:1046F0002146384609F094FD064623463A4639A13C
:1047000011A80096FBF766FE11A9179801F040F971
:104710000F2140200DF0DAF9002891D1E4E708F1EB
:10472000010000F0FF08B8F1030F89D90120EBE682
:10473000641ECDE90664A7F26C7703A80897FCF71E
:1047400032F918990860012019B0BDE8F08F0020F7
:10475000FAE740F60200854201D26D1CADB2642139
:1047600011200DF0B3F950B12BE06D1CADB228460D
:104770000EF000FF59460EF045FFFFF779FD0321CB
:1047800011200DF0A3F90028EFD01AE06D1EADB294
:1047900028460EF0EFFE59460EF034FFFFF768FD95
:1047A000012141200DF092F90028EFD009E040F2FC
:1047B0009E70854205D2643502E0DC2D01D9143D9E
:1047C000ADB228460EF0D6FE59460EF01BFFFFF79D
:1047D0004FFD02488580FEF7F5FF57E6A444002010
:1047E0000AD7233C253034752D253032752D2530E0
:1047F000327500002DE9F04FDFF858938A4691B0EA
:1048000083460125B9F8044001A95046FCF782F916
:104810001827DFF844833C260198DDE90232009036
:10482000CEA10CA8FBF7D6FD0CA9584601F0B0F8B4
:10483000012D04D0022D05D0032D08D116E0022150
:10484000584602E00BF1030012E001F097F80AF07D
:104850004FF910282BD00EDC0A28DDD2DFE800F05B
:1048600005EF0505EE050505EDECD5E70BF10600B6
:1048700080B20221E9E721287DD009DC11287BD014
:104880002028C9D16D1E15F0FF05C5D10325C3E74A
:1048900040287DD04128BFD1C82C01D9641EA4B2C4
:1048A000642141200DF012F9002867D044E1012D68
:1048B0000CD0022D2CD0032DAED13C2110200DF0B8
:1048C00005F900285DD00198401C6FE03C211020C4
:1048D0000DF0FCF8A8B10398401C74E00398401C4C
:1048E000B0FBF7F107FB110003900198DDE90232FC
:1048F00000909AA10CA8FBF76DFD0CA9584601F099
:1049000047F80F2110200DF0E1F80028E6D079E0FB
:104910003C2110200DF0DAF8A8B10298401C85E087
:104920000298401CB0FBF6F106FB110002900198C2
:10493000DDE90232009089A10CA8FBF74BFD0CA920
:10494000584601F025F80F2110200DF0BFF800287F
:104950008BD1E5E70198DDE90232401CB0FBF6F1AE
:1049600006FB1100019000907CA10CA8FBF732FD22
:104970000CA9584603E0DBE095E009E0BAE001F05D
:1049800007F80F2110200DF0A1F8002894D1E1E7DD
:10499000012D11D0022D42D0032D8DD13C2140207C
:1049A0000DF094F8002877D001983B30B0FBF6F179
:1049B00006FB110001902FE73C2140200DF086F806
:1049C000D0B103981730B0FBF7F107FB110003904B
:1049D00018E003981730B0FBF7F107FB11000390C4
:1049E0000198DDE9023200905CA10CA8FBF7F2FC13
:1049F0000CA9584600F0CCFF0F2140200DF066F8BE
:104A00000028E6D00198DDE90232009053A10CA8FD
:104A1000FBF7E0FC0CA9584600F0BAFF0FE73C2179
:104A200040200DF053F8F0B102983B30B0FBF6F1A6
:104A300006FB11000290EFE674E062E070E066E0D1
:104A400002983B30B0FBF6F106FB11000290019892
:104A5000DDE90232009041A10CA8FBF7BBFC0CA9D8
:104A6000584600F095FF0F2140200DF02FF8002848
:104A7000A1D1E5E70198DDE902323B30B0FBF6F168
:104A800006FB11000190009034A10CA8FBF7A2FCDA
:104A90000CA9584600F07CFF0F2140200DF016F8BD
:104AA000002888D1E6E740F60200844201D2641C67
:104AB000A4B2642111200DF009F850B13CE0641C4F
:104AC000A4B220460EF056FD41460EF09BFDFFF7C6
:104AD000CFFB032111200CF0F9FF0028EFD02BE0D1
:104AE000641EA4B220460EF045FD41460EF08AFD3C
:104AF000FFF7BEFB012141200CF0E8FF0028EFD0BA
:104B00001AE06D1CEDB2032D95D9012584E601A8AC
:104B1000FBF749FFCAF80000012011B0BDE8F08F93
:104B20000020FAE740F29E70844205D2643402E02D
:104B3000DC2C01D9143CA4B220460EF01BFD4146EA
:104B40000EF060FDFFF794FBA9F80440FEF73AFE73
:104B500062E60000A44400200AD7233C25303275C9
:104B60003A253032753A25303275000038B50C469A
:104B700009880091694600F007F8002802D00098E3
:104B80002080012038BD00002DE9F74F90B00025AE
:104B90001198904612F0FF070168714884884FEA27
:104BA0001220814601D0A9F10100C6B26D48A6EBE2
:104BB000070A50F82600B1FBF0F200FB121B584622
:104BC0000EF0D8FC6749283151F827100EF0D8FBB9
:104BD0000EF036FBCDE9000108F0FF034A4662A162
:104BE0000AA8FBF7F7FB0AA9109800F0D1FE10986D
:104BF000AA45284400DC401C80B2012100F0BEFE22
:104C0000681C0090864206D35648711B00EB810059
:104C100050F8040C00E00120019009F069FF112810
:104C200057D01CDC082843D007DC01284CD00428CE
:104C3000C5D1002013B0BDE8F08F092879D0102825
:104C4000BDD101990A20BBFBF1F1B1FBF0F200FBF1
:104C50001210092815D001990BEB010020E0202843
:104C60002AD021286BD040280ED04128A7D1C82CAB
:104C700001D9641EA4B2642141200CF027FFA0B327
:104C800061E0019840420EE001990A20BBFBF1F17E
:104C9000B1FBF0F200FB121020B10199ABEB010067
:104CA00083468CE7019800EBC00101EB0B00F7E7AE
:104CB0000098B0FBF6F103E0A819401E90FBF6F156
:104CC00006FB1100C5B27AE711990120C1F800B0C6
:104CD000B0E740F60200844201D2641CA4B2642111
:104CE00011200CF0F3FE58B12DE01AE0641CA4B2C0
:104CF00020460EF03FFC1E490EF084FCFFF7B8FA88
:104D0000032111200CF0E2FE0028EFD01BE0641E0E
:104D1000A4B220460EF02EFC15490EF073FCFFF7EE
:104D2000A7FA012141200CF0D1FE0028EFD00AE0C3
:104D3000FFE740F29E70844205D2643402E0DC2C2E
:104D400001D9143CA4B220460EF014FC08490EF020
:104D500059FCFFF78DFA02488480FEF733FD2EE7F9
:104D6000A44400208464010825302A2E2A6600000D
:104D70000AD7233C2DE9F35F0A8888464FF03C0BA5
:104D8000B2FBFBF14FF06409B1FBF9F45B4809FB9E
:104D900014140BFB11250027B0F804A0012600BF56
:104DA000C4EB041005EB8001009805F087FF012E8D
:104DB00006D0022E07D0032E18D0042E08D118E0FA
:104DC0000121009802E00098401C14E000F0D6FD9C
:104DD00009F08EFE102818D010DC012865D00428B8
:104DE0006BD0082855D0092852D168E00098C01C23
:104DF00001E00098001D80B20121E7E720284ED095
:104E0000212863D0402874D110E0012E06D0022E54
:104E100006D0032E06D0042E6BD105E00A340FE035
:104E2000611C14E00A3520E0691C25E0012E06D043
:104E3000022E0AD0032E17D0042E5AD11AE05A346B
:104E4000B4FBF9F109FB1144AAE704F109010A20B6
:104E5000B1FBF0F200FB1211B4FBF0F000EB8000AC
:104E600001EB4000C4B29BE73235B5FBFBF10BFB15
:104E7000115595E705F109010A20B1FBF0F200FB9D
:104E80001211B5FBF0F000EB800001EB4000C5B261
:104E90002FE0761CF6B2042E2BD9012629E0761ECF
:104EA00016F0FF0625D1042623E0C4EB041005EB21
:104EB0008001A8F8001001271DE000271BE040F248
:104EC0009E7150468A4508D2643004E05046BAF1DB
:104ED000DC0F02D9143880B282460EF04BFB084931
:104EE0000EF090FBFFF7C4F90449A1F804A0FEF707
:104EF00069FC002EA8D13846BDE8FC9FA4440020E0
:104F00000AD7233C70B514460D46064609F0BAF898
:104F1000E2B229463046FFF719FA044609F0BAF81A
:104F2000204670BD70B514460D46064609F0AAF835
:104F3000E2B229463046FFF737FA044609F0AAF8EC
:104F4000204670BD10B51BA0FCF71EFF10221B49A8
:104F50001BA0FCF73BFF3022102119A0FCF78AFEB2
:104F60001BA0FCF711FF102214491BA0FCF72EFF19
:104F70004022102118A0FCF77DFE1BA0FCF704FFC7
:104F800010220E491AA0FCF721FF7022102118A050
:104F9000FCF770FE1AA0FCF7F7FE102207491AA0D2
:104FA000FCF714FF7022BDE81040102116A0FCF79A
:104FB00061BE00005C53445F41495200240100205F
:104FC0005C53445F4149525C4149522E545854004D
:104FD0005C53445F545350005C53445F5453505CE3
:104FE0005453502E545854005C53445F5232340092
:104FF0005C53445F5232345C5232342E5458540065
:105000005C53445F534849005C53445F5348495CD8
:105010005348492E5458540010B5ADF5007D4FF457
:105020000074224648496846FBF727FC47A1002048
:1050300000F0AEFC0F23484A002148A0FCF768FEB0
:1050400000286DD00F2244496846FBF77AFB20B157
:105050002246694641A0FCF7B9FE45A1002000F0B8
:1050600097FC0F233C4A002144A0FCF751FE002886
:105070005AD00F2238496846FBF763FB20B122461D
:1050800069463EA0FCF7A2FE41A1002000F080FC92
:105090000F23314A002141A0FCF73AFE002847D0F7
:1050A0000F222D496846FBF74CFB20B1224669468A
:1050B0003AA0FCF78BFE3EA1002000F069FC0F2314
:1050C000254A00213DA0FCF723FE002834D00F2202
:1050D00021496846FBF735FB20B12246694637A0D7
:1050E000FCF774FE3AA1002000F052FC0F231A4A8C
:1050F00000213BA0FCF70CFE002821D00F2216490E
:105100006846FBF71EFB20B12246694634A0FCF737
:105110005DFE38A1002000F03BFC0DF5007D10BDC8
:1051200038A0FCF731FE93E739A0FCF72DFEA6E787
:105130003AA0FCF729FEB9E73BA0FCF725FECCE737
:105140003CA0FCF721FEDFE7846201084C6F61643C
:10515000696E672E00000000904200205C555342AB
:105160005F4149525C4149522E545854000000009E
:105170004C6F6164696E672E2E0000005C555342CF
:105180005F5453505C5453502E5458540000000048
:105190004C6F6164696E672E2E2E00005C55534281
:1051A0005F5232345C5232342E54585400000000A6
:1051B0004C6F6164696E672E2E2E2E005C55534233
:1051C0005F5348495C5348492E545854000000002E
:1051D0004C6F6164696E672E2E2E2E2E000000002B
:1051E0005C5553425F504F575C504F5745522E54B9
:1051F000585400004C6F6164696E672E2E2E2E2E5F
:105200002E0000005C5553425F41495200000000EF
:105210005C5553425F545350000000005C555342AC
:105220005F523234000000005C5553425F534849DE
:10523000000000005C5553425F504F5700000000D3
:1052400010B50C4641011023224603A004F098FA41
:10525000002800D1206010BD5C53445F4149525C7E
:105260004149522E5458540010B50C468101402338
:10527000224603A004F084FA002800D1206010BD6B
:105280005C53445F5232345C5232342E54585400D2
:1052900010B50C4681014023224603A004F070FAA9
:1052A000002800D1206010BD5C53445F5348495C26
:1052B0005348492E5458540010B50C4600EB80005A
:1052C000C1002423224603A004F05AFA002800D18A
:1052D000206010BD5C53445F5453505C5453502EB7
:1052E0005458540070B50D46044664210748FBF736
:1052F000F6FA102229460548FBF77AFA6101BDE863
:1053000070402023014A02A004F03CBA284000204B
:105310005C53445F4149525C4149522E54585400F9
:1053200070B50D46044664210748FBF7D8FA4022C1
:1053300029460548FBF75CFAA101BDE8704040230F
:10534000014A02A004F01EBA284000205C53445FCA
:105350005232345C5232342E5458540070B50D46DB
:10536000044664210748FBF7BAFA4022294605485B
:10537000FBF73EFAA101BDE870404023014A02A0BC
:1053800004F000BA284000205C53445F5348495C55
:105390005348492E5458540070B50D4604466421B4
:1053A0000848FBF79CFA242229460648FBF720FA16
:1053B00004EB8400BDE87040C1002823014A02A02C
:1053C00004F0E0B9284000205C53445F5453505C23
:1053D0005453502E5458540070B5144C144E20465B
:1053E000217A457A4089012915D0022909D003295B
:1053F0001BD10EF0BFF831460EF004F929460DF02E
:1054000081F9A0890EF0B6F831460EF0FBF8BDE840
:1054100070400DF08BB90EF0ADF831460EF0F2F899
:105420002946BDE870400DF06DB970BDA444002060
:10543000CDCCCC3D1148816941F001018161104919
:10544000202048610F48016821F400510160001FCD
:10545000016821F45C4101600A49091D0A680A607B
:10546000091D0A6842F400520A60064A41141032CB
:105470001160016841F40051016070470010024062
:10548000000001400404014008B50020009008F02D
:10549000BDFE07A1002000F07BFA4FF4C062694610
:1054A00040F20530FFF770FB002800D0009808BDDF
:1054B000CAE4C8EBC3DCC2EB3A0000002DE9F04FB0
:1054C0000746B048884699B0848805A91691AE4829
:1054D0000AA9149100260FA9354600EB480A00EBF3
:1054E00047091591B9F8261068462DF8161000EBFB
:1054F0004600BAF826108182B9F81A100185761C88
:10550000BAF81A10F6B281870A2E02D025B10A2104
:1055100003E000260125FAE73146684608F076FDEB
:10552000DFF868B22BF817000DB10A2100E0314610
:10553000169808F06BFD2BF818000DB10A2100E059
:105540003146149808F062FD904901EB470BABF827
:1055500014000DB10A2100E03146159808F056FDFF
:105560008A49474501EB48011791888232D10DB134
:105570000A2100E03146684608F048FD01468348AC
:1055800020F817100DB10A2100E03146149808F0F8
:105590003DFDABF814007EA140F2012000F0F8F9C7
:1055A000384609F037FC014640F2026B00235A46A8
:1055B00040F2014005F090F877A140F2092000F098
:1055C000E7F9384609F08CFB014600235A4640F2C1
:1055D000094063E00DB10A2100E03146684608F059
:1055E00015FD6A4921F817000DB10A2100E0314686
:1055F000169808F00BFD0146644820F818100DB10C
:105600000A2100E03146149808F000FDABF81400C0
:105610000DB10A2100E03146159808F0F7FC179902
:1056200088825BA140F2012000F0B2F95CA14FF446
:10563000806000F0ADF95BA14FF4C06000F0A8F904
:10564000384609F0E7FB014640F2036B00235A4657
:1056500040F2024005F040F8404609F0DBFB5A46B4
:10566000014640F2026B0023584605F035F84AA186
:1056700040F2092000F08CF9384609F031FB014670
:1056800000235A4640F2094005F026F8404609F04A
:1056900027FB014600235A4640F2096005F01CF83A
:1056A000282009F0D7FB00283FF41CAF09F020FAAE
:1056B000112820D00CDC012818D0042816D0092885
:1056C0007FF410AF40F29E7084424DD264344AE0C1
:1056D000212845D04128F3D1C82C01D9641EA4B299
:1056E000642141200CF0F2F980B33DE0FDF752FC5B
:1056F00019B0BDE8F08F40F60200844201D2641C6C
:10570000A4B2642111200CF0E1F958B12CE0641C22
:10571000A4B220460DF02EFF59460DF073FFFEF7A0
:10572000A7FD01E0DFF880B0032111200CF0CEF9D5
:105730000028ECD018E0641EA4B220460DF01AFF39
:1057400059460DF05FFFFEF793FD02E0FFE7DFF83B
:1057500058B0012141200CF0B9F90028EBD003E04A
:10576000DC2C01D9143CA4B220460DF003FF0E49F5
:105770000DF048FFFEF77CFD02488480FEF722F81A
:10578000B0E60000A4440020EA400020304400209D
:10579000C1F7C1BF3A000000BCC6D1B93A00000051
:1057A000433A0000443A00000AD7233C0449FF2052
:1057B00008600348143801686FF3090101607047FD
:1057C000140401401348816941F0010181611248CC
:1057D000012181600021C160104801686FF3090157
:1057E0000160001F016821F4407101600B49091D2F
:1057F0000A6842F0FF020A60091D0A6842F0FF02CF
:105800000A60064AFF2110321160016841F0FD0173
:105810000160704700100240000001400404014094
:1058200010B5FFF7C3FF0348C068BDE810400CF097
:10583000BDB800000800002010B5002108480CF099
:105840009DF8084C0021E0600548001D0CF096F81A
:10585000A06003480021BDE8104008300CF0D0B82B
:10586000F43A0108080000200F48816941F0040162
:105870008161816941F0080181610C49FC20086067
:105880000B4903200860094810380168094AC9B269
:105890001143016006481038016821F00F0141F002
:1058A000080101607047000000100240100801402C
:1058B000100C014000888888064800680649C0F33B
:1058C0008500096801F0010140EA81117F208843C9
:1058D0007047000008080140080C01402DE9F04124
:1058E0001D48008907F03AFA80F000411B48006823
:1058F0000EF018F81A4C1B4D07462946E0600DF0D3
:1059000081FE61680DF0C8FC0646606016493846A5
:105910000DF078FE31460DF0BFFC14490DF072FE1B
:1059200006461349A0680DF06DFE31460DF0B4FC3B
:105930001049A060884201DDA16002E0A84200DABF
:10594000A5600D49A0680DF05DFE0DF0DBFDBDE822
:10595000F04180B201F010B8DC4000202C000020A3
:10596000940000200AD7A33C0AD7A33B6666663F93
:10597000CDCCCC3DCDCC4C3E0000D846034A12786D
:10598000012A01D000F032BF05F068BC28000020D9
:10599000034A1278012A01D000F068BF05F0A0BCCC
:1059A0002800002008498A6942F010028A6108B183
:1059B000891501E04FF0807104480161416821F0D0
:1059C0000F01C91C416070470010024000100140E7
:1059D00070B50C46054600EBC4004068FAF792FE2D
:1059E000C1B235F83400BDE87040FFF7C7BF000012
:1059F00070B501880546080ACEB201D07043C6B220
:105A0000696811B10020FFF7C3FF012409E000BF5E
:105A100005EBC400416835F83400FFF7B9FF641C9A
:105A2000E4B2B442F4D970BD002200F015B91346B7
:105A3000002200F0E1B91346002200F0C5BA00F0E0
:105A400001B800002DE9F05F0C46DFF8E4B10188F1
:105A50000646BBF804509046080ACFB230D07843CF
:105A600000F0FF0A0CB1544500D9012406EBC4092B
:105A7000D9F80400FAF746FEC1B236F83400FFF751
:105A80007DFF00BF5FEA080000D08047322009F0A8
:105A9000E1F90028F6D036F83400D9F80410FFF701
:105AA00077FF09F025F810283DD00BDC0A28DDD25D
:105AB000DFE800F005404305B9059205277BD5E7EF
:105AC000BA46CFE7212876D00DDC112837D0202820
:105AD000CCD1641EE4B2B4FBF7F007FB1040002801
