:020000040800F2
:10000000804A002041030008490300084B03000810
:100010004D0300084F0300085103000800000000D2
:10002000000000000000000000000000790200084D
:100030005503000800000000F10200082D0300082D
:100040005B0300085B0300085B030008E192000803
:100050005B0300085B03000841440008614400089A
:100060006944000871440008794400085B030008F3
:100070005B0300085B0300085B0300085B030008E8
:100080005B0300085B0300085B0300085B030008D8
:100090005B0300085B0300085B0300088144000861
:1000A0005B0300085B0300085B0300085B030008B8
:1000B0005B0300085B03000821AB00085B0300083A
:1000C0005B0300085B0300085B0300085B03000898
:1000D0005B0300085B0300085B030008C1B0000875
:1000E000494400085B0300085B03000800F002F8C5
:1000F00000F07CF80AA090E8000C82448344AAF146
:100100000107DA4501D100F071F8AFF2090EBAE843
:100110000F0013F0010F18BFFB1A43F0010318473B
:1001200034740100547401000A444FF0000C10F8BC
:10013000013B13F0070408BF10F8014B1D1108BF65
:1001400010F8015B641E05D010F8016B641E01F805
:10015000016BF9D113F0080F1EBF10F8014BAD1C55
:100160000C1B09D16D1E58BF01F801CBFAD505E073
:1001700014F8016B01F8016B6D1EF9D59142D6D3CD
:10018000704700000023002400250026103A28BFF5
:1001900078C1FBD8520728BF30C148BF0B607047F9
:1001A000662913F02A84642900F07A81752900F009
:1001B0007781782900F0B081632900F07A8773296C
:1001C00000F07F87002070471FB500F07EFF04001D
:1001D0000020002113F00EF8E0601FBD10B510BD27
:1001E00003B4FFF7FBFF03BC01F06EF800F0CCF89E
:1001F0001146FFF7E9FF11F011FB0448002111F04F
:10020000D3FB11F01DFB00F053FA0000400000206A
:1002100080F309887047EFF309807047684680F3E0
:10022000098804480078C00714BF0220032080F327
:1002300014887047745F0108DFF818C0EFF3058376
:100240001B0618BF6047EFF31483DB0708BF604746
:1002500000DF7047A91A0108DFF818C0EFF3058323
:100260001B0618BF6047EFF31483DB0708BF604726
:1002700000DF70478D1C0108EFF30980816911F8D8
:10028000021CF1B990E80F10E047EFF3098C8CE8FD
:100290000700144B93E8060091420FD039B12CE9C6
:1002A000F00FC1F824C00CB412F024F80CBC1A6092
:1002B000D2F824C0BCE8F00F8CF309886FF0020E6E
:1002C000704710B5084A1268914209D8074C54F893
:1002D000214090E80F10A047EFF3098C8CE80F0045
:1002E00010BD0000CC010020CC1A0008CC1A000878
:1002F00011F09CFE0C4B93E80600914210D0EFF3F6
:10030000098C2CE9F00FC1F824C00CB411F0F2FFF5
:100310000CBC1A60D2F824C0BCE8F00F8CF309883A
:100320006FF0020E70470000CC01002012F098F828
:10033000E0E7000011F08AFB12F092F8DAE7000023
:100340000948804709480047FEE77047FEE7FEE797
:10035000FEE7FEE7FEE7FEE7FEE7FEE704480549A5
:10036000054A064B7047000039AA0008ED00000856
:1003700080440020804A00208046002080460020E3
:1003800000487047204400207546FFF7F9FFAE464D
:1003900005006946534620F00700854618B020B591
:1003A000FFF7DCFFBDE820404FF000064FF00007EC
:1003B0004FF000084FF0000B21F00701AC46ACE80D
:1003C000C009ACE8C009ACE8C009ACE8C0098D467A
:1003D000704700000FB41CB5074B06AA7B44694662
:1003E0000090059800F043FE0020694600F052FEA0
:1003F0001CBC5DF814FB0000B50C000070B5044691
:1004000085690068C10601D5302600E02026C007B6
:1004100008D070BDD4E9012130469047206A00F130
:10042000010020626D1EF5D570BD70B5044685696A
:100430000078C00708D170BDD4E901212020904781
:10044000206A00F1010020626D1EF5D570BD70B507
:100450000C460546012A05D02878800600D5EA69B1
:10046000002302E0012305E05B1C934202D2E05C22
:100470000028F9D1A869E618C01AA861286A1844AA
:1004800028622846FFF7BAFF04E0D5E9012114F8F5
:10049000010B9047B442F8D32846FFF7C6FF70BD62
:1004A0002DE9F0410646002410687529314616A54D
:1004B00011D0AFF30080002803DAC0F1000013A5CB
:1004C00007E031688A0701D511A502E0490704D584
:1004D00010A5012401E0AFF3008000210A2306F1FA
:1004E000240707E0B0FBF3F203FB1200303078542E
:1004F0001046491C0028F5D123462A463046BDE85F
:10050000F04100F043BB0000000000002D0000009F
:100510002B0000002000000070B504460D46214667
:100520001068AFF300802188090502D5104A7A448B
:1005300002E00F4A7A440E32002104F1240307E05E
:1005400000F00F064FEA1010965D5E5401F10101B4
:100550000028F5D103462078000704D5702D02D07D
:1005600009B1113202232046BDE8704000F00EBBF5
:10057000B26901002DE9F05F894604464FF0000A98
:10058000DFF828B1FB44C0F820A02046E168884786
:1005900000287CD0252806D0D4E901219047206A84
:1005A000401C2062F1E700255F462046E16888474D
:1005B0002028064608DB312E06D207EB060010F88D
:1005C000200C08B10543F0E7A80701D525F0040584
:1005D000C4F81CA00027C4F818A02A2E09D0304661
:1005E0000CF0B5FB38B304EB8708303EC8F8186050
:1005F00019E059F8041B204604EB87029161E16879
:100600008847012F064618D1E069002820DA25F036
:1006100020051DE0D8F8180000EB800006EB400034
:100620003038C8F818002046E168884706460CF0C4
:100630008EFB0028EED1012F0AD02E2E08D12046A5
:10064000E16888477F1C0646022F45F02005C4DB81
:10065000A069002803DA404245F00105A061E807DF
:1006600001D025F0100596B1A6F14100192802D855
:10067000203645F400654A463146204625604D4601
:10068000FFF78EFD60B1012807D0ED1D00E009E005
:1006900025F0070000F1080977E705F1040974E780
:1006A000304679E7206ABDE8F09F000084690100C8
:1006B0000446AFF300802046FFF792FD10B5431CBF
:1006C00002E010F8011B71B18107FAD14FF001323D
:1006D00002C88C1A8C4314EAC211F9D0C01A0A0657
:1006E00003D0C01E10BDC01A10BD0A0401D0801E68
:1006F00010BD0902FCD0401E10BD40EA010370B5D8
:100700009B072ED14FF00136042A2AD308C810C9FE
:10071000121F9D1B9D4315EAC61517D0D8B2E1B232
:10072000401A50EA056110D198B2A1B2401A50EABD
:1007300005410AD123F07F4024F07F41401A50EA5E
:10074000052102D1180EA0EB146070BDA342DBD0CE
:1007500018BA21BA884201D9012070BD4FF0FF308C
:1007600070BD0AB9002070BD10F8013B11F8014BB3
:1007700063B1A3420AD1521E08D010F8013B11F810
:10078000014B1BB1A34201D1521EEDD1181B70BD0C
:10079000421E12F8013F002BFBD111F8013B002B48
:1007A00002F8013BF9D17047032A40F2308010F083
:1007B000030C00F0158011F8013BBCF1020F6244FC
:1007C00098BF11F801CB00F8013B38BF11F8013B8D
:1007D000A2F1040298BF00F801CB38BF00F8013B3A
:1007E00011F0030300F02580083AC0F0088051F8AA
:1007F000043B083A51F804CBA0E80810F5E7121DB5
:100800005CBF51F8043B40F8043BAFF30080D207D3
:1008100024BF11F8013B11F801CB48BF11F8012B9F
:1008200024BF00F8013B00F801CB48BF00F8012BC2
:10083000704710B5203AC0F00B80B1E81850203A4C
:10084000A0E81850B1E81850A0E81850BFF4F5AF70
:100850005FEA027C24BFB1E81850A0E8185044BFFA
:1008600018C918C0BDE810405FEA827C24BF51F867
:10087000043B40F8043B08BF7047D20728BF31F85B
:10088000023B48BF11F8012B28BF20F8023B48BFAC
:1008900000F8012B70474FF000020429C0F01280CD
:1008A00010F0030C00F01B80CCF1040CBCF1020F23
:1008B00018BF00F8012BA8BF20F8022BA1EB0C01F8
:1008C00000F00DB85FEAC17C24BF00F8012B00F8EE
:1008D000012B48BF00F8012B70474FF0000200B514
:1008E000134694469646203922BFA0E80C50A0E853
:1008F0000C50B1F12001BFF4F7AF090728BFA0E801
:100900000C5048BF0CC05DF804EB890028BF40F8CC
:10091000042B08BF704748BF20F8022B11F0804F0E
:1009200018BF00F8012B704730B503681C1404EBA6
:1009300021459BB289B2194495FBF2F402FB145392
:1009400001EB034191FBF2F302FB131101E05B1E8B
:1009500011440029FBDB016003EB044030BD2DE9AD
:10096000F04704464FF0FF3A86B000680290606896
:100970000390A0680490E068019020690090656988
:10098000B5F1804F7EDCB5F1404F7BDB3C2200218E
:1009900002A8FFF7C9FF3C22014603A8FFF7C4FFE6
:1009A0001822014604A8FFF7BFFF411E40F2B552CE
:1009B00001A8FFF7B9FF0C22064668460021FFF7A1
:1009C000B3FF00EB860028443E4D00267D440FE037
:1009D0009A1A491CCDE90012022902D00C2907D12C
:1009E00004E0810704D0521C019201E0401C0096F3
:1009F0000099019B6A5C9A42EADD012906D11C2B11
:100A000004D1810702D00221CDE90016A0F14601F0
:100A10008B2940D20199009B00220F4602E0AE5C78
:100A2000521C31449A42FADB012B02DD820700D0CE
:100A3000491E40F2B55540F26D16C21700EB927296
:100A400092106A4300F0030505FB062285070A445D
:100A500000D1521E049D02EB4206DDF80C80A9462F
:100A600005EBC605184EC5EB0515DDF808C008EB0B
:100A7000850535442E14ADB2C6EB0616C5EB05153B
:100A8000B60000E007E00CEB850506EB154666F3C3
:100A90001F45360C03D0504606B0BDE8F0877F1CDA
:100AA000C4E90430521C072092FBF0F304F118064D
:100AB00000FB1320A6E803042846C4E90297C4E912
:100AC00000C8E9E74D650100A039CEFD70B50C46C0
:100AD000016800204A1C34D040F2B5553C23B1FBDC
:100AE000F3F203FB12112160B2FBF3F103FB1122BD
:100AF00018236260B1FBF3F203FB1211A16046F20E
:100B0000E0310A440721B2FBF1F301FB1321B2FBF0
:100B1000F5F305FB1322A1619900B2F5B77F06D367
:100B2000521EAD10B2FBF5F3194405FB13220F4B17
:100B3000E261616189077B440CD03B2A0AD3521CD5
:100B400008E02C212046FFF7C8FE0120E0600AE003
:100B5000521A401C195C9142FAD9521CC4E9032074
:100B60004FF0FF302062204670BD0000E3630100BB
:100B700070477047704710B500F0ACFA006810BDC0
:100B800010B5044600F0A6FA046010BD2DE9F04748
:100B90000D4699469246044600F1240801688806ED
:100BA00004D5E06921F01001216000E00120A84295
:100BB00002DDA0EB050700E00027A16907EB0502B5
:100BC00002EB0900A1EB0000A0612078C00602D46E
:100BD0002046FFF713FC002608E0D4E901211AF8AB
:100BE00006009047206A401C761C20624E45F4DBCC
:100BF0002078C0060AD52046FFF700FC06E0D4E9BD
:100C0000012130209047206A401C2062381EA7F145
:100C10000107F4DC07E0D4E9012118F8050090474A
:100C2000206A401C2062281EA5F10105F3DC204645
:100C3000FFF7FBFB2078000602D50220BDE8F08715
:100C40000120FBE770472DE9FF4F0C461E464FF091
:100C5000FF378BB0D2E90001DDF860800A908A4648
:100C6000C1F30A5505B93D46002108464FF0000082
:100C7000BAF1000F00F4400005DA00EB80004FF4F9
:100C8000400101EA50004FEA9059B9F1010F00DD2F
:100C9000B9460A9850EA4A000ED044F61050A5F220
:100CA000FF3545432F14B8F1000F1ED07542291EA1
:100CB0001EDDC9F100021CE0B8F1010F4FF0000089
:100CC00001D0302103E0F24305E02154401CB04242
:100CD000FBDB30460022002121540B99C1F808802B
:100CE000C1E900200FB0BDE8F08FBD1B6D1CDEE731
:100CF0004A4600DA694206A800F074FA06AB07CB50
:100D000003AB07C350460A9900F025FB8DE80700A6
:100D1000A0F500501F3800900398002D09DD42F225
:100D20001F014A46084403A90390684600F084FD69
:100D300008E0A0F500504A461F3803A90390684612
:100D400000F08EFD8DE807000004000C03D04FF08A
:100D5000FF30410800E01046B8F1000F03D0002238
:100D6000009215461FE0751E06D400F0B5F902F199
:100D7000300262556D1EF8D5B3460122084302D0F9
:100D800000227F1C04E02078302801D100227F1E41
:100D9000002A099787D01DE0112D07DA00F09CF991
:100DA000303262556D1C50EA0102F5D108430FD173
:100DB0000021681E05E0235C625C6354491C2254D8
:100DC000401E8142F7DBAB46A81B401E099001E0A4
:100DD000009848B1002004F80B000B98099AC0F85D
:100DE0000880C0E9002B7DE711264FF000085AE784
:100DF0002DE9F04F88460446D21D22F0070191B03C
:100E0000D1E90001CDE90A010BF0D3FE02460B98AF
:100E1000C00F01D02D2007E02068810701D52B20CD
:100E200002E0202101EAC000032A099001D0072A2C
:100E300005DB03464146204600F094F90FE1207897
:100E4000800601D5E06900E00620B8F1650F814613
:100E500006D0B8F1660F18D0B8F1670F72D132E042
:100E60000020B9F1110F009001DB112301E009F11D
:100E700001030AAA01A90CA8FFF7E5FEDDE90C7041
:100E8000002609F10105834648E001204B46009009
:100E90004FF000470AAA01A90CA8FFF7D4FEDDE92C
:100EA0000DB00C995D46002618B909F1010001EB5F
:100EB0000005B9EB050003D4C0F1FF3609F10105C7
:100EC000A5EB09002BE0B9F1010F01DA4FF00109A0
:100ED0000020B9F1110F0090484601DD112300E018
:100EE00003460AAA01A90CA8FFF7ADFEDDE90C70C4
:100EF0004D4600268346207800070AD4AB4500DA29
:100F00005D4601A8012D04DD411911F8011C3029AD
:100F100007D04F4502DA17F1040F04DA01208246A8
:100F200010E06D1EEEE7002F02DCED1B3E4403E0F7
:100F3000781CA84200DD0546A7EB060000F1010A77
:100F40004FF000472078000703D4AA4501DB4FF09B
:100F5000FF3A0021B7F1004F0DF143088DF843101F
:100F600023D002202B23002F01DA7F422D234FF0C4
:100F70000A0C011EA0F1010000DC4FB197FBFCF14F
:100F80000CFB11720F4602F1300208F8012DF0E758
:100F9000A8F1010003702188090501D5452100E071
:100FA0006521A0F1010800F8011C09980FA9A1EB27
:100FB000080707F1070700B1012000EB050101EB6D
:100FC000EA70A1693844A1EB0000A0F10100A06122
:100FD0002078C00602D42046FFF710FA099830B1F5
:100FE000D4E901219047206A00F1010020622078B5
:100FF000C00620D52046FFF701FA1CE0002E04DBD6
:10100000B34502DD01A8805D00E03020D4E9012174
:101010009047206A761C401CBAF1010A20620AD16E
:1010200000F053F8C0680168405CD4E901219047A2
:10103000206A401C2062281EA5F10105DEDC07E0C5
:10104000D4E9012118F8010B9047206A401C206266
:10105000381EA7F10107F3DC2046FFF7E6F902206E
:1010600011B040E601694A1C02610878704700B57A
:101070008FB0CDE901310021059105497944CDE9D1
:10108000031011466846FFF775FA0FB000BD000067
:10109000E5FFFFFF0A6802F8010B0A60704710B510
:1010A000436913B1AFF3008001E0FFF7D0F90120ED
:1010B00010BD127800F124010A7000224A7001224A
:1010C000EDE711684FF0FF32E9E710B5FFF758F987
:1010D000203010BD0BF082BD30B5B0F10A024FEAEE
:1010E000900E71F100034EEA817EB0EB0E0061EBD1
:1010F00091014FEA101E4EEA017E10EB0E0041EB0B
:1011000011114FEA102E4EEA016E10EB0E0041EB6A
:1011100011214FEA104E4EEA014E10EB0E0041EB4A
:101120001141401841F100014FEAD00040EA4170FE
:101130004FEAD10110EB80054FEA810444EA907434
:1011400044EB01046D1944EB0404521BA3414FF01E
:10115000000348BF0A3200D530BD401C41F10001F8
:1011600030BD00002DE9F0411F460446032601680A
:10117000072A01F4006004DB08B116A505E016A5F6
:1011800003E008B115A500E015A521F010002060CE
:10119000A069C01EA0610FB1401EA0612046FFF7EC
:1011A0002DF94FB1D4E9012138469047206A401CFF
:1011B0002062C01C206206E0206AFAE7D4E901211F
:1011C00015F8010B9047761EF8D22046FFF72DF94F
:1011D000BDE8F0814E414E006E616E00494E460002
:1011E000696E66002DE9F047814616468AB035489B
:1011F0007844D0E9002380680092CDE9013031487D
:1012000078440C38D0E90223006903924FF037028A
:10121000CDE9043041F69B30014491FBF2F0A0F19E
:10122000800502FB10141B3C02D56442012000E043
:101230000020DFF890A080460027FA44AAF1C60AF1
:101240000DE0E00709D03246684607EB47010AEB9C
:10125000810100F005FB8DE8070064107F1C002C65
:10126000EFD1184F7F44B43F17E0E80713D007EBE6
:1012700004100DF1180A90E80E00AAE80E00C068EC
:10128000F04201D198190890324606A903A800F04F
:10129000E7FA03AB07C36D10641C002DE5D132469D
:1012A0006946B8F1000F03A802D000F0C5FA01E0CA
:1012B00000F0D6FAC9E90001C9F808200AB0BDE873
:1012C000F0870000B45D010001491820ABBEFEE7C5
:1012D000260002004FF0013C50F8042B51F8043B6B
:1012E0009A4221D1A2EB0C03934313EACC1317D1FA
:1012F00050F8042B51F8043B9A4215D1A2EB0C0391
:10130000934313EACC130BD150F8042B51F8043B50
:101310009A4209D1A2EB0C03934313EACC13DBD01E
:101320004FF00000704700BFD01A01BAB1FA81F146
:1013300001F0180122FA01F0CB40C1F12001DBB22B
:10134000C0B2C01A2CFA01F3D11A914311EAC311A9
:10135000E6D1704770475FEA400C08BF91F0000F7C
:101360004FEA8C234FEAC12243EA51514FEA1C5005
:1013700018BF00F5F0404FEA300018BF41F00041BF
:101380005FEA6C5C00F02980BCF1FF3F08BF40F0D1
:1013900080407047130C06BF12044FF0100C4FF042
:1013A000000C130E04BF12020CF1080C130F04BF43
:1013B00012010CF1040C930F04BF92000CF1020C0B
:1013C000D30F04BF52000CF1010C11464FF0000284
:1013D000A0F11F00A0EB0C00704711F0004F08BFF8
:1013E000704731F000413FF4D5AF0B0C06BF090444
:1013F0004FF0100C4FF0000C0B0E04BF09020CF163
:10140000080C0B0F04BF09010CF1040C8B0F04BF77
:1014100089000CF1020CCB0F04BF49000CF1010C48
:10142000CCF12003A0EB0C0022FA03F302FA0CF239
:1014300041EA030100F10100704720F07F4C80EA8F
:10144000030023F07F47ACEB070303F57C5300F068
:10145000004003F1FF032DE980494FEA154B09B421
:101460004FEA144325EA0B4E24EA03480FF2042600
:1014700006EB132749083E785FEA320203FB066752
:10148000C7F5000707FB06F64FEA54374FEAD64682
:1014900006F1020607FB066CCCF1005C4FEA1C4724
:1014A0002CEA074C07FB06F40CFB06F504EB15468B
:1014B0004FEA961634BF00204FF000404FEAD13774
:1014C00006FB07FC4FEA1C4C0CFB0BF7D21B03FB83
:1014D0000CF761EB07010CFB0EF7B0EB074072EB6A
:1014E00017420CFB08F734BFA2EB0742B2EB0742EE
:1014F00061EB17414FEA0C444FEA910706FB07FCEA
:101500004FEA1C4C0CFB0BF7B0EBC74072EB5732A9
:1015100003FB0CF734BFA2EBC742B2EBC74261EB4F
:1015200057310CFB0EF7B0EBC70072EB57720CFB98
:1015300008F734BFA2EBC702B2EBC70261EB5771E9
:10154000039F4FEA816141EA921104EBCC044FEA18
:10155000D1374FEA826206FB07FC42EA90124FEA5B
:1015600080604FEA1C4C0CFB0BF7D21B03FB0CF703
:1015700061EB07010CFB0EF7B0EB074072EB174273
:101580000CFB08F734BFA2EB0742B2EB074261EB5A
:1015900017414FEA8C554FEA910704EB9C2406FB58
:1015A00007FC4FEA1C4C0CFB0BF7B0EBC74072EB8F
:1015B000573203FB0CF734BFA2EBC742B2EBC74272
:1015C00061EB57310CFB0EF7B0EBC70072EB5772B3
:1015D0000CFB08F734BFA2EBC702B2EBC70261EB0A
:1015E000577115EB4C254FEA816141EA92114FEAA0
:1015F00082624FEAD13742EA901206FB07FC44F1BF
:1016000000044FEA80604FEA1C4C0CFB0BF7D21B26
:1016100003FB0CF761EB07010CFB0EF7B0EB074087
:1016200072EB17420CFB08F734BFA2EB0742B2EB98
:10163000074261EB174115EB1C154FEA813141EA76
:1016400092414FEA823242EA90424FEA80304FEABA
:101650000C7644F1000448EA03434EEA0B484FF08D
:10166000000EB2EB080C71EB030724BF624639464B
:101670004EEB0E0E4FF0000B0018524149414BEB60
:101680000B0BB2EB080C71EB03077BF1000B24BFD3
:10169000624639464EEB0E0E4FF0000B00185241D9
:1016A00049414BEB0B0BB2EB080C71EB03077BF1E1
:1016B000000B24BF624639464EEB0E0E51EA02077C
:1016C00018BF46F0010616EB0E7655F1000254F1F4
:1016D000000103D5BDE88901BDE80088BDE88901A6
:1016E000BDE80048B619524141EB0101A3F10103E5
:1016F000704780807F7E7D7C7B7A7978777676757F
:101700007473727171706F6E6E6D6C6C6B6A6A69F6
:101710006868676666656464636362616160605F90
:101720005F5E5E5D5D5C5C5B5B5A5A595958585709
:101730005756565555555454535352525251515071
:1017400050504F4F4F4E4E4D4D4D4C4C4C4B4B4BC4
:101750004A4A4A494949484848474747474646460A
:101760004545454444444443434343424242424145
:101770004141002B26D4770021D01CB54FEA370712
:1017800003B44FF010004FF010014FF000000FBCF9
:10179000BDE810400BF1010BBBF1010F08BF5FEA80
:1017A000170722BF12F1010211F101014FF00041B0
:1017B00043F1000300F0004043EA00007047F9D312
:1017C0005708DAE746EA064613F1400F4FEA164695
:1017D0001FDD13F1200FDFBF16430A46002120331F
:1017E0005B42C8D0C3F1200746EA064602FA07F773
:1017F0004FEA164646EA0706C3F1200722FA03F22B
:1018000001FA07F721FA03F14FF0000342EA070259
:10181000B1E746EA020646EA06464FEA164646EAB7
:101820000106BCBF46EA0646360C4FF000034FF0F7
:1018300000024FF000019EE72DE9C048934630B406
:1018400091E8380007C831EA400C48BF34EA430C3D
:1018500003D5FFF7F2FDFFF78CFFF0BCBDE8008871
:101860002DE9C048934630B491E8380007C810F01D
:10187000804F08BF13F0804F03D100F005F8FFF749
:1018800078FFF0BCBDE8008820F07F4780EA0300C5
:1018900023F07F4C07EB0C03A3F57C5300F00040D2
:1018A000A3F1FE0392F0000F00F0B38095F0000F5B
:1018B00000F077802DE901494FEA11404FEA1446C4
:1018C00021EA004800FB06FC24EA064708FB06F66E
:1018D00007FB08F800FB07F718EB06484CEB164C23
:1018E0004FEA124B18EB07484FEA15464CEB1740EE
:1018F00022EA0B4E0BFB06FC25EA06470EFB06F61A
:1019000007FB0EFE0BFB07F71EEB064E4CEB164CCF
:101910004FF000061EEB074E4CEB174B18EB0B0875
:1019200040F1000018EB0E0B58EB000840F10000EE
:101930008F1A4FF000013CBFC943661B14BFB5EBC3
:10194000040C00213CBFC943F61B4FEA17444EEA82
:101950008E0E27EA04454FEA1C4704FB07622CEA77
:10196000074C05FB07F70CFB05F604FB0CFC16EB1C
:10197000074642EB174216EB0C4642EB1C421BEBB0
:10198000060658EB0202414146EA9E0601D5BDE833
:101990000189B619524141EB0101A3F10103BDE8F0
:1019A00001894FEA14454FEA114724EA054621EA26
:1019B000074C05FB07F406FB07F70CFB06F105FBDC
:1019C0000CFC11EB074144EB17444FEA124711EBB3
:1019D0000C4144EB1C4422EA074C05FB07F206FBD2
:1019E00007F70CFB06F605FB0CFC16EB074642EB73
:1019F000174216EB0C4642EB1C456A1854F10001E5
:101A000048BF7047B619524141EB0101A3F10103F0
:101A1000704795F0000F37D04FEA11424FEA144754
:101A200021EA024624EA074C02FB07F106FB07F70E
:101A30000CFB06F402FB0CFC14EB074441EB1741D2
:101A40004FEA154714EB0C4441EB1C4125EA074CC7
:101A500002FB07F506FB07F70CFB06F602FB0CFC86
:101A600016EB074645EB174516EB0C4645EB1C42BB
:101A7000121951F1000148BF7047B619524141EBAC
:101A80000101A3F1010370474FEA14454FEA1147E2
:101A900024EA054621EA074C05FB07F106FB07F798
:101AA0000CFB06F24FF0000605FB0CFC12EB0742A4
:101AB00041EB174112EB0C4251EB1C4148BF704700
:101AC000921841EB0101A3F10103704700000000EF
:101AD00007F0CCBD10B50022074B114601EB810485
:101AE00003EB440434F81040491CC9B222441029C5
:101AF000F4D3C2F30F1010BDF601002009498A6922
:101B000042F010028A6108B1491501E04FF00071FE
:101B100005480161416821F0F00141F03001416068
:101B2000704700000010024000100140264910B527
:101B300008684FF6FF021040244A40F4E06010436A
:101B40000860062004F0A8FB072004F0A5FB08208D
:101B500004F0A2FB092004F09FFB0A2004F09CFB88
:101B6000172004F099FB282004F096FB1E2004F0B7
:101B700093FB272004F090FB08F082FF154A1448DD
:101B8000D16941F00201D16100210180018540F657
:101B90005F13838501238382018446F260030383FC
:101BA0008383818601878187A0F84010018841F0F6
:101BB00001010180906940F0010090610648416890
:101BC00041F44061416010BD0CED00E00000FA05F9
:101BD00000040040001002400000014008B5024926
:101BE00008440090008808BD006C004008B5024A17
:101BF00010440090016008BD006C0040044800786B
:101C000001284FF0000001D004F0E8BB09F058B8FB
:101C100028000020044801784078012901D004F010
:101C2000DDBB09F04DB800002800002070B59AB067
:101C300015460E4604460CF071F9204600F01CFAD9
:101C4000304600F0CDF800222946684600F008F939
:101C5000094C6070012000F0B1F90CF067F9607870
:101C6000142802D0172803D004E001201AB070BD58
:101C70000CF047F90020F9E72001002010B50446D8
:101C80000CF04CF9204600F0F7F900F0FBF904469F
:101C90000CF04CF9204610BD2DE9F0411C461546CC
:101CA0000E4607460CF03AF923462A463146384696
:101CB00000F056F8142804D00CF038F90020BDE8E4
:101CC000F0810CF033F90120F9E700002DE9F04133
:101CD0001C4615460E4607460CF020F923462A46B8
:101CE0003146384600F05CF8084C60700CF01EF984
:101CF0006078142802D0172803D004E00120BDE842
:101D0000F0810CF0FEF80020F9E70000200100202F
:101D100010B504460CF002F9204600F0CFF8044953
:101D20004870012000F04AF9BDE810400CF0FEB800
:101D30002001002070B514460E4605460CF0EEF862
:101D4000284600F048F9A1B20022304600F088F899
:101D5000012000F033F9BDE870400CF0E7B8000056
:101D60002DE9F0411C4616460F4605460CF0D6F804
:101D7000284600F081F9384600F032F8A1B200227E
:101D8000304600F046F8054C6070012000F016F96E
:101D90000CF0CCF86078BDE8F08100002001002054
:101DA0002DE9F0411C4617460E4605460CF0B6F8E4
:101DB000284600F061F9384600F012F8A1B2074A4F
:101DC000304600F04DF8054CA41E6070012000F074
:101DD000F5F80CF0ABF86078BDE8F0812201002046
:101DE00010B50446392011F0EBF9E0B211F0FBF91F
:101DF000C4F3072011F0F7F9C4F3074011F0F3F929
:101E0000200E11F0F0F911F0A9F9BDE810400AF028
:101E1000EBBD70B5064614460D463A2011F0D0F9D8
:101E2000E8B211F0E0F9280A11F0DDF911F096F9A5
:101E30000CB1002011E00AF0D7FD1D280FD130466B
:101E400000F052F905463B2011F0BAF911F086F97D
:101E50002E44002CEFD0208828442080EBE770BD72
:101E60002DE9F041064614460D463C2011F0A8F934
:101E7000E8B211F0B8F9280A11F0B5F911F06EF9CD
:101E80000CB1002020800C4F0AF0AEFD1E2810D1AE
:101E9000304600F03CFA054638703D2011F090F9CC
:101EA00011F05CF92E44002CEED0208828442080CC
:101EB000EAE7BDE8F08100001E01002010B50446ED
:101EC00000F0C4F920785C2801D02F2803D100212C
:101ED000642000F032FABDE81040402000F096B9CE
:101EE00010B505F06FFF08B100F0CFF8BDE8104065
:101EF000302000F08BB9312000F088B910B50520F2
:101F00000CF0DEFF5A2000F081F9044605200CF0A9
:101F1000D7FF204610BD00002DE9F74F82B0834661
:101F200004980E46C700080E4FF0000AC1F30729B7
:101F3000C1F307480090562011F042F9F0B211F0B9
:101F400052F9484611F04FF9404611F04CF900980B
:101F500011F049F9049811F046F911F0FFF83C46E8
:101F600014E000BF0AF040FD05461E2801D07CB1F8
:101F700013E04021584600F0B4F9572011F020F941
:101F800011F0ECF8641E0BF1400BA4B2002CE9D167
:101F90000AF02AFD054614280ED0162D09D0FFF7A9
:101FA000ADFF0AF1010000F0FF0ABAF1030FC2D140
:101FB000284605B0BDE8F08F1420FAE70146362028
:101FC00000F017B910B508B100F040F9BDE81040B5
:101FD000342000F01BB970B5054600F021F904006B
:101FE0000DD00146284600F021F8412807D01428DA
:101FF00003D0422800D1B32070BD432070BD281902
:10200000BDE87040FFF7DEBF10B5044600F01EF9D2
:1020100020785C2801D02F2803D10021642000F013
:102020008CF9BDE81040322000F0F0B870B50546DC
:1020300000200E46012401E0641CE4B2295D5C2905
:1020400013D02F2911D00029F6D100242844FFF7FE
:10205000DBFF002C08D0B44206D041280AD0142857
:1020600006D0422800D1B32070BD641CE4B2EDE775
:10207000432070BD2046E1E7FF21FFF7D7BF2B20AB
:1020800000F054B8682000F045B810B5222011F0D7
:1020900097F811F08EF8044611F060F8204610BD54
:1020A00004480178012901D0002070470021017007
:1020B00001207047380000202DE9F04111F079F837
:1020C000064611F076F8054611F073F8044611F053
:1020D00070F8074611F042F846EA052040EA04404D
:1020E00040EA0760BDE8F08170B50546272011F091
:1020F00067F811F05EF80400264607D011F059F891
:10210000641E05F8010B14F0FF04F7D111F026F856
:10211000304670BD10B504460C2011F051F8204631
:1021200011F061F8BDE81040FFF7C6BF10B50446D6
:102130000A2011F045F8204611F055F811F039F851
:10214000044611F00BF8204610BD10B504464A2095
:1021500011F036F8E0B211F046F8C4F3072011F0A0
:1021600042F8C4F3074011F03EF8002011F03BF8AC
:1021700010F0F4FFBDE810400AF036BC2DE9F04144
:1021800015000F46804601D0002028704C2011F029
:1021900017F8384611F027F810F0E0FF0AF024FC99
:1021A0000646142823D1272011F00AF811F001F86F
:1021B00010F0FFFF044610F0FCFF10F0FAFF10F0E3
:1021C000F8FFFFF779FF014684B122464046FFF74A
:1021D000A3FE064614280AD108EB442815B1287836
:1021E00020442870381B10F0FF07CFD13046BDE8DF
:1021F000F08110B50C4610F0E3FF204610F0F3FF1D
:1022000010F0ACFFBDE810400AF0EEBB10B510F0C6
:10221000D7FF10F0A3FFBDE810400AF0E5BB0000B7
:10222000014600E0491C0A78002AFBD106E000BF05
:1022300011F8012D5C2A03D02F2A01D08142F7D159
:10224000814200D0491C081AC0B2704770B50546DB
:10225000012010F0B5FF10F0ACFF432828D22B204E
:10226000FFF764FF102823D22F2010F0A9FF0020D1
:1022700010F0B9FF3220FFF7C9FF142818D1CF2082
:10228000FFF754FF040013D04C20FFF743FF00EB8F
:1022900004214C2000F051F85020FFF73BFF00EBE9
:1022A0000421502000F049F80021702000F045F88A
:1022B0002F2010F085FF2C7806E000BF15F8014FA5
:1022C0005C2C0AD02F2C08D0204610F08CFF002C5C
:1022D000F4D1BDE8704010F041BF002010F083FF42
:1022E000F7E770B505460C462C2010F069FF204634
:1022F00010F079FF3CB1287810F075FF6D1C641E5A
:1023000014F0FF04F7D1BDE8704010F027BF70B59E
:1023100005462D2010F054FF10F04BFF0400264618
:1023200007D0287810F05FFF6D1C641E14F0FF04C6
:10233000F7D110F013FF304670BD70B505460C465E
:102340000D2010F03DFF284610F04DFFE0B210F0D8
:102350004AFFC4F3072010F046FFC4F3074010F013
:1023600042FF200E10F03FFFBDE8704010F0F6BEB7
:1023700010B502F067FF0BF0EBFD08494FF4004089
:10238000086006480C38016821F0704141F0405166
:102390000160BDE8104001200BF0CEBD10080140E7
:1023A00010B50446012150200BF090FEC8B100206A
:1023B0000BF024FE207000200BF020FE6070002047
:1023C0000BF01CFEA07001200BF018FEE0700BF06B
:1023D000B7FE002150200BF079FE0BF0B1FE01207A
:1023E00010BD0BF0ADFE002010BDF8B50D46064641
:1023F0000BF0F6FD6846FFF7D3FF040011D09DF8FF
:1024000001009DF8001000EB0120C0F30D003080AA
:102410009DF803009DF8021000EB0120C0F38D0031
:1024200028800BF0E5FD2046F8BD10B504460021DC
:10243000D8200BF04BFE60B306200BF015FE40B326
:102440000121D8200BF042FE18B300200BF0D6FD7E
:10245000207000200BF0D2FD607000200BF0CEFD4C
:10246000A07000200BF0CAFDE07001200BF0C6FD4B
:1024700020710BF065FE0021D8200BF027FE3020E4
:102480000BF0F2FD0A200BF0EFFD0BF059FE0120DE
:1024900010BD0BF055FE002010BD7CB50D46064664
:1024A0000BF09EFD6846FFF7C0FF040014D09DF8B6
:1024B00000009DF80110000400EB01209DF80210BF
:1024C0009DF8032001449DF804004FF4205303EBD2
:1024D00002221044316028800BF08AFD20467CBD2A
:1024E00030B50E480E4C00230078042234F810104A
:1024F000401CC0B20D46052800D3002034F810104F
:102500004D1BADB2521E2B4412F0FF02F0D1C3F3AB
:102510008F004FF4FA71484330BD000000000020E6
:10252000EC01002010B50446124911F061F812497F
:1025300010F0A8FE214611F05BF8104910F0A2FE41
:10254000214611F055F80E4910F09CFE214611F07D
:102550004FF80C4910F096FE214611F049F80A494F
:1025600010F090FE214611F043F8BDE810400749F5
:1025700010F088BE92EBD72CEEC70B310DBDA23404
:102580003E5ADE37774BBB3A45B8353D145C1C3FAD
:102590002DE9F04706461A4F0898984691468A4614
:1025A000002540B10CF0BAFB04461649884504DA10
:1025B0003046BDE8F0873C46F7E7134890F8330013
:1025C00018B15046FFF7AEFF05464946404610F0A9
:1025D00059FE294611F09CF9214611F009F80446EC
:1025E0003946504610F04EFE084911F001F83146C8
:1025F00010F0FEFF2146BDE8F04710F0B7BE000026
:10260000339388436F12833A7C43002066A6CA4204
:102610002DE9F0411F4690460C4606460CF07EFB25
:1026200005460F49204610F02DFE0E4910F0E0FF40
:1026300004464146384610F025FE294610F0D8FFE2
:10264000214610F093FE314610F0D2FF0649884231
:1026500002DA0020BDE8F081BDE8F04110F0D1BA07
:102660003393884366A6CA426F12833A2DE9FF4F1F
:1026700087B090460F461D46182220496846FEF74F
:10268000D8F80026012440F2013B40F2035A40F200
:10269000056900BF0BF068FD684603F0B1F858F813
:1026A000251017A35A460A2007F010FE37F8151018
:1026B00000235246484607F0C1FE2146684603F013
:1026C000BBF80446012807D0022C0ED0002CE1D123
:1026D0000BB03046BDE8F08F2B464246394607988E
:1026E00000F010F807E00126D4E707EB4501524659
:1026F000484602F057FA0028CCD0F4E7E468010815
:102700004C2F6D002DE9FF4F8DB0002004908F48B5
:102710001F460E46848831F8175008880A90B1F891
:1027200002B0B1F804A0B1F806904FF0010852F8D9
:102730002700874910F05CFF4FF07C5110F0A2FD9C
:1027400010F0D6FE81490D9A01EB42010691888274
:1027500001210D9805F01EFB0BF006FD7DA1002068
:1027600003F01EF8F580B580758035800D980CF06B
:10277000E9FA03907AA1002003F012F8002340F256
:10278000035229460A2007F059FE78A14FF4407001
:1027900003F006F877A340F2036240F20530039994
:1027A00007F094FD74A14FF4C06002F0F9FF0D989A
:1027B00005F0DAFA014640F2056007F06DFE64208C
:1027C0000CF014FB0028D1D00CF052F9112856D08F
:1027D00008DC01281AD0042878D0092877D01028DE
:1027E00013D106E0212873D0402808D041280CD10D
:1027F00062E042F20F70854205D26D1C02E0632D4B
:1028000001D96D1EADB20120049089E006986421C3
:10281000808A4843059004214FF4407002F0B6FFCF
:1028200040F2036205A940F2053002F0C9F900B395
:1028300001200490059810F093FE0290642D19D3A6
:10284000039810F0FF4F17D0284610F089FE054678
:102850000698808A10F084FE294610F087FD014614
:10286000029810F083FD464910F080FD10F040FE04
:1028700085B201E04FF47A750BF076FC50E040F63B
:102880000200844201D2641CA4B2642111200FF022
:10289000F1F850B138E0641CA4B2204610F060FE9C
:1028A000384910F0A5FE01F0FBFC032111200FF0C8
:1028B000E1F80028EFD027E0C82C01D9641EA4B2AB
:1028C000642141200FF0D6F868B11DE02CE011E042
:1028D00016E0641EA4B2204610F042FE294910F012
:1028E00087FE01F0DDFC012141200FF0C3F8002834
:1028F000EFD009E040F29E70844205D2643402E0D9
:10290000DC2C01D9143CA4B2204610F029FE1D494C
:1029100010F06EFE01F0C4FC0C48848000F06AFFE9
:10292000B8F1000F7FF41EAF00210D9805F032FAC8
:102930000A983080A6F802B0A6F804A0A6F806907F
:1029400026F81750049811B0BDE8F08F7C430020A2
:1029500000002041B5F7CAD4C1F7C1BF0000000094
:10296000C1F7C1BFB1B6C2CA3A000000C1F7C1BFCA
:102970003A0000004C2F6D00CAE4B3F63A000000A4
:102980000000C8420AD7233C2DE9F04F89B08346A6
:1029900020223A496846FDF74CFF3949002001EBF7
:1029A000CB0701243C3740F203560890BBF1010FDE
:1029B00005D0BBF1020F02D040F2015A00E0B2464E
:1029C000304940F2052801EB4B0540F2056900BF94
:1029D0000BF0CAFB684602F013FF5946092007F0C6
:1029E00087FEA98A28A35246404607F027FD39886A
:1029F00000233246484607F021FD2146684602F092
:102A00001BFF04000FD0012C24D0022C2DD0032C4E
:102A1000E7D132463946484602F0C4F80028E0D0F3
:102A200001200890DDE7089800280AD0232117A08C
:102A300003F0F6FB062807D0072808D00124002C55
:102A4000C6D109B0BDE8F08F00F088FAF9E700F0D0
:102A50001BFAF4E705F114015246404602F0A2F8D1
:102A60000028BED000F0C6FEBBE73946584600F04D
:102A700015F80028ACD001200890A9E7C468010827
:102A8000084300207C4300204C2F6D00B1A3B4E626
:102A9000B1EAB6A8CAFDBEDD203F00002DE9FF5F08
:102AA000804600200746039083460290B5480D46B5
:102AB00040F203568488002001905FEA080005D0A8
:102AC000012855D0B8F1020F04D151E040F2015B6A
:102AD000ADA001900BF048FB0121404605F05AF9EA
:102AE000A84901EB480A40460CF02CF98146B8F1A0
:102AF000000F3FD04E46A5A1002002F051FE2988CC
:102B0000002340F203520A2007F098FCA2A14FF4E0
:102B1000407002F045FE5A46494640F20530019B9E
:102B200007F0D4FB9EA14FF4C06002F039FE40468E
:102B300005F01AF9014640F2056007F0ADFC64208B
:102B40000CF054F90028CED00BF092FF112877D06A
:102B500040DC012856D0042873D0092872D01028F0
:102B6000C1D1288842F20F71884249D2401C46E008
:102B7000B346ADE70BF08EFF06460CF09BF801461E
:102B800000200246009033464846FFF701FD064606
:102B90007EA1002002F004FE2988002340F20352A7
:102BA0000A2007F04BFC80A14FF4007002F0F8FD02
:102BB0005A46314640F20520019B07F087FB76A17B
:102BC0004FF4806002F0ECFD5A46494640F2054061
:102BD000019BA5E721287CD040280CD0412882D138
:102BE000C82C01D9641EA4B2642141200EF042FF1A
:102BF00000286FD0AFE02888632801D9401E2880C4
:102C0000012770E7BAF814000290B8F1000F4FF0F6
:102C1000040118D04FF4407002F0B8FD40F20352A6
:102C200002A940F2053001F0CBFF0028E9D00127CE
:102C3000029810F095FC81462888642834D230E050
:102C40004DE097E07DE04FF4007002F09FFD40F210
:102C5000015202A940F2052001F0B2FF0028D0D0B5
:102C60000127029810F07CFC81462888642818D33C
:102C700016F0FF4F10D010F073FC06464148808AD2
:102C800010F06EFC314610F071FB0146484610F022
:102C90006DFB10F02DFC288040460CF053F8814667
:102CA00068E74FF47A7018E016F0FF4FA9D010F0E3
:102CB00057FC0646BAF8140010F052FC314610F0EA
:102CC00055FB0146484610F051FB394910F04EFBC8
:102CD00001E03CE02DE010F00BFC288003E740F61B
:102CE0000200844201D2641CA4B2642111200EF0BF
:102CF000C1FE58B12FE0641CA4B2204610F030FC95
:102D0000314610F075FC01F0CBFA00E0294E0321AA
:102D100011200EF0AFFE0028EDD01CE0641EA4B21E
:102D2000204610F01DFC314610F062FC01F0B8FAAC
:102D300000E0204E012141200EF09CFE0028EDD045
:102D400009E040F29E70844205D2643402E0DC2C3B
:102D500001D9143CA4B2204610F002FC154910F031
:102D600047FC01F09DFA0748848000F043FD03987A
:102D70000028B3D00021404605F00CF804B03846D6
:102D8000BDE8F09F7C4300204C2F6D00C1F7C1BF10
:102D9000B1B6C2CA3A000000B1EABFF63A0000007C
:102DA000CAE4B3F63A000000B9A4BFF63A00000046
:102DB0000000C8420AD7233C2DE9F0472A49804643
:102DC00001EB0800294990F82460012401EBC800B8
:102DD000002500F13C0A012E15D0022E42D1244FCD
:102DE000DFF890900BF0C0F9384602F009FD21465B
:102DF000384602F021FD0446052831D2DFE800F014
:102E000006181E282C001A4F283FE9E7002D29D06C
:102E1000232119A003F004FA062805D0072821D1A0
:102E2000BDE8F04700F030B8BDE8F04700F096B8D4
:102E300009EB0612002304E00125D3E709EB061293
:102E4000012351464046FFF711FC0028CAD0F3E7A2
:102E500009EB06120223F4E709EB06120323F0E75D
:102E6000002CBFD1BDE8F0877C4300200843002040
:102E700024690108DC670108B1A3B4E6B1EAB6A889
:102E8000CAFDBEDD203F000010B5062231494FF4D7
:102E9000807002F053F82F4845F6A5214FF47A745C
:102EA00082888A4203D0E2000280448081807222BC
:102EB0002949802002F042F8274845F6A422B0F8BC
:102EC0007010914244D046F6B321A0F86410A0F8E7
:102ED0006810A0F86C10A0F86640A0F86A40A0F84E
:102EE0006E4041818181C181018241820485448596
:102EF0008485C48504864FF400410180418081802F
:102F0000C18001818182C182018341838183C48325
:102F1000048444848484C48444868486C486048768
:102F200044878487A0F84440A0F84C40A0F854405F
:102F3000A0F85640A0F85840A0F85A40A0F85C40CD
:102F4000A0F85E40A0F86040A0F86240A0F87020B1
:102F500010BD0000B00100200843002010B506227B
:102F600005494FF4807001F0F9FF7222BDE810406E
:102F70000249802001F0F2BFB00100200843002088
:102F800010B50BF0F1F805A1002002F009FC0221B8
:102F9000BDE81040012002F099B90000C8D5BEF983
:102FA00020D7D4B6AFB5F7C1E300000010B50BF0E1
:102FB000DBF805A1002002F0F3FB0421BDE810407E
:102FC000032002F083B90000CAB1BEF920D7D4B6FD
:102FD000AFB5F7C1E300000010B50BF0C5F805A1CF
:102FE000002002F0DDFB0021BDE81040084602F0A1
:102FF0006DB90000B7DBB3BE20D7D4B6AFB5F7C10B
:10300000E30000002DE9F14F88B0182278496846A6
:10301000FDF70FFC774808990125848876484FF41E
:10302000A06900EB410606F114073236002040F299
:10303000054A40F2035B40F20528069001E007983C
:1030400050B10BF091F8684602F0DAFB09200899BC
:1030500007F04EFB00200790398800234A4650466F
:1030600007F0ECF9318800235A4640F2056007F07A
:10307000E5F92946684602F0B3FB60A14FF4007001
:1030800002F08EFB08980BF0F7FD01465DA340F2BD
:103090000262404607F01AF919200BF0A7FE00283B
:1030A000EBD02946684602F09BFB0BF0E1FC1128AF
:1030B0004AD008DC012819D004282FD009287DD057
:1030C000102817D10CE021287ED0402802D04128BA
:1030D00010D156E06D1CEDB2032D0BD3012509E094
:1030E000012D00D803256D1EEDB203E0012D06D0A1
:1030F000022D08D0002DAFD109B0BDE8F08F4A46AF
:103100003946504603E05A46314640F2056001F028
:1031100049FD0028A0D0012006909DE706980028D0
:10312000EAD0232138A003F07BF8062802D0072834
:1031300006D102E0FFF712FFDEE7FFF7A5FE00254C
:10314000002D7FF47BAFD7E740F60200844201D226
:10315000641CA4B2642111200EF08CFC50B137E045
:10316000641CA4B2204610F0FBF92B4910F040FA81
:1031700001F096F8032111200EF07CFC0028EFD01E
:1031800026E0C82C01D9641EA4B2642141200EF0AF
:1031900071FC50B11CE0641EA4B2204610F0E0F9AE
:1031A0001D4910F025FA01F07BF8012141200EF0B5
:1031B00061FC0028EFD00BE000E005E040F29E70DB
:1031C000844205D2643402E0DC2C01D9143CA4B260
:1031D000204610F0C5F9104910F00AFA01F060F825
:1031E0000448848000F006FB002D7FF428AF83E7BD
:1031F000946801087C43002008430020BCC6D1B974
:103200003A0000006B506100B1A3B4E6B1EAB6A881
:10321000CAFDBEDD203F00000AD7233C2DE9F14F57
:10322000724882B001258488714802994FF4007B6E
:1032300000EB410606F10A070020283640F2052976
:1032400040F2026840F2035ACDF800000AF08CFF09
:103250002946684802F0C4FA664802F0D1FA09200B
:10326000029907F045FA39880023424640F20540AA
:1032700007F0E4F831880023524640F2056007F079
:10328000DDF829465B4802F0ABFA5BA1584602F034
:1032900087FA02980BF010FD014659A342464846B2
:1032A00007F014F819200BF0A1FD0028EDD00BF069
:1032B000DFFB112845D008DC012819D004282CD0C8
:1032C000092878D010280CD10CE0212879D040288A
:1032D00002D0412805D151E06D1CEDB2032D00D381
:1032E00001257EE0012D00D803256D1EEDB278E0AA
:1032F000012D02D0022D74D104E04246394640F23D
:10330000054003E05246314640F2056001F04AFCB8
:1033100000289BD00120009098E70098002862D0F8
:10332000232138A002F07CFF062802D0072858D1BC
:1033300003E0BDE8FE4FFFF711BEFFF7A5FD002536
:103340004FE040F60200844201D2641CA4B2642122
:1033500011200EF08FFB50B137E0641CA4B2204660
:1033600010F0FEF82B4910F043F900F099FF03210B
:1033700011200EF07FFB0028EFD026E0C82C01D9E9
:10338000641EA4B2642141200EF074FB50B11CE015
:10339000641EA4B2204610F0E3F81E4910F028F98C
:1033A00000F07EFF012141200EF064FB0028EFD0E9
:1033B0000BE000E005E040F29E70844205D26434E8
:1033C00002E0DC2C01D9143CA4B2204610F0C8F86D
:1033D000104910F00DF900F063FF0448848000F0FC
:1033E00009FA002D98D1BDE8FE8F00007C43002033
:1033F000084300207C680108CEC2B6C83A0000002D
:10340000A1E60000B1A3B4E6B1EAB6A8CAFDBEDDEC
:10341000203F00000AD7233C2DE9F14F88B0182245
:1034200078496846FDF705FA7748089901258488A8
:1034300076484FF4A06900EB4107002007F11E0613
:1034400040F2054A40F2035B40F20528069001E095
:10345000079850B10AF088FE684602F0D1F90920B9
:10346000089907F045F900200790398800234A465B
:10347000504606F0E3FF318800235A4640F20560CB
:1034800006F0DCFF2946684602F0AAF960A14FF475
:10349000007002F085F908980BF088FC01465EA3E5
:1034A00040F20362404606F011FF19200BF09EFC2B
:1034B0000028EBD02946684602F092F90BF0D8FAC2
:1034C00011284AD008DC012819D004282FD0092857
:1034D0007DD0102817D10CE021287ED0402802D0C2
:1034E000412810D156E06D1CEDB2032D0BD3012500
:1034F00009E0012D00D803256D1EEDB203E0012D7A
:1035000006D0022D08D0002DAFD109B0BDE8F08F54
:103510004A463946504603E05A46314640F2056075
:1035200001F040FB0028A0D0012006909DE70698FE
:103530000028EAD0232139A002F072FE062802D02A
:10354000072806D102E0FFF709FDDEE7FFF79CFC44
:103550000025002D7FF47BAFD7E740F602008442C0
:1035600001D2641CA4B2642111200EF083FA50B180
:1035700037E0641CA4B220460FF0F2FF2B4910F094
:1035800037F800F08DFE032111200EF073FA0028A9
:10359000EFD026E0C82C01D9641EA4B264214120DA
:1035A0000EF068FA50B11CE0641EA4B220460FF081
:1035B000D7FF1E4910F01CF800F072FE01214120D7
:1035C0000EF058FA0028EFD00BE000E005E040F2E2
:1035D0009E70844205D2643402E0DC2C01D9143C94
:1035E000A4B220460FF0BCFF104910F001F800F023
:1035F00057FE0548848000F0FDF8002D7FF428AFC9
:1036000083E70000AC6801087C43002008430020E9
:10361000B2EED1B93A0000006B506100B1A3B4E63C
:10362000B1EAB6A8CAFDBEDD203F00000AD7233CA0
:1036300070B5442207494FF4C07001F07FFC054C7F
:1036400045F63C25A08EA84202D000F005F8A586DC
:1036500070BD00007C43002000B500F01DF80D484F
:10366000007848B101280BD002280DD003280FD1D3
:103670005DF804EB00F09CB85DF804EB00F058B87E
:103680005DF804EB00F074B85DF804EB00F02EB8C0
:1036900000BD00007C43002012484FF49671F022D8
:1036A000818100218173417242810122C273827043
:1036B000C170027442F29573438240F226238380E4
:1036C000322383710223C3714FF47A738385C385D8
:1036D0006423038680F833100349016480F83C209A
:1036E000704700007C430020D9AB090010B50F489B
:1036F0000224002100F8144C01744FF47A72028005
:103700004174C8224280817482800123C3740522DF
:10371000C2800375028141754FF4FA714181828143
:10372000C28100F80C4C837710BD0000904300204C
:103730000E480021012300F8141C03744FF47A7220
:1037400002804174C822428081748280C174052243
:10375000C2800175028143754FF4FA7343818281FF
:10376000C281022200F80C2C817770479043002020
:103770000E4801214FF47A7200F8141C0174028083
:1037800000224274C823438082748380C17405235D
:10379000C3800175038142754FF4FA7141818381C1
:1037A000C381022100F80C1C8277704790430020EF
:1037B0000F4803214FF47A7200F8141C01210174A0
:1037C00002804174C8224280817482800021C174C9
:1037D0000522C2800175028141754FF4FA7343815D
:1037E0008281C281022200F80C2C81777047000090
:1037F00090430020442202494FF4C07001F0AEBB58
:103800007C4300202DE9F05F0025394C2E4640F224
:10381000015740F207384FF4AF6A40F207594FF4AE
:10382000FA6B00BF0AF0A0FC324801F0E9FFA18A60
:1038300031A33A46404606F001FE618D31B130A316
:1038400040F20252484606F0F9FD03E02EA1484638
:1038500001F0A6FF6D1CE9B2264801F0EDFF05005E
:103860001AD0012D2ED0022DE1D1618D24A340F27A
:103870000252484606F0E2FD1D4940F202522A314A
:10388000484601F08FF90028D1D0618D594501D902
:10389000A4F82AB00126CAE7002E27D023211DA0B4
:1038A00002F0BEFC02280BD0062805D007281DD147
:1038B000BDE8F05FFFF7BCBEBDE8F05FFFF79ABF61
:1038C0000125AFE70A493A461431404601F06AF94A
:1038D0000028ACD0A08A504502D9A4F814A0D9E79A
:1038E0004FF416718842D5D2A182D3E7BDE8F09F8C
:1038F0007C4300207C6C0108204C2F6D00000000F0
:10390000206B506100000000205BCDA3D3C35D207D
:1039100020000000B1A3B4E6D0DEB8C4BDE1B9FB1D
:10392000203F00002DE9F05F0025344C2F4640F287
:10393000063840F2035640F206594FF4967A4FF09B
:10394000640B00BF0AF010FC2D4801F059FFE18A1A
:103950002CA33246404606F071FD218B29A3324646
:10396000484606F06BFD6D1CE9B2254801F064FF86
:10397000050011D0012D25D0022DE8D11F49324676
:103980001831484601F00EF90028E0D0218B51454E
:103990002BD9A4F818A02CE0002F2CD023211BA099
:1039A00002F03EFC02280BD0062805D0072822D1C1
:1039B000BDE8F05FFFF73CBEBDE8F05FFFF71ABF60
:1039C0000125BFE70D4932461631404601F0EAF8BD
:1039D0000028BCD0E18A514502D9A4F816A008E01D
:1039E000642906D2A4F816B003E0642901D2A4F831
:1039F00018B00127ABE7BDE8F09F00007C43002032
:103A0000546C0108204C2F6D00000000B1A3B4E6F7
:103A1000D0DEB8C4BDE1B9FB203F00002DE9F05F66
:103A20000025424C2F4640F2015940F2062840F250
:103A3000064B40F2035640F2066A00BF0AF094FBC0
:103A40003B4801F0DDFEA18A3AA34A46404606F013
:103A5000F5FCE18A37A33246584606F0EFFC218B8D
:103A600034A33246504606F0E9FC6D1CE9B23048FA
:103A700001F0E2FE050014D0012D28D0022D39D02E
:103A8000032DE0D1294932461831504601F08AF819
:103A90000028D8D0208B4FF4967188423ED92183DC
:103AA00040E0002F40D0232124A002F0B9FB0228DF
:103AB0000BD0062805D0072836D1BDE8F05FFFF708
:103AC000B7BDBDE8F05FFFF795BE0125B6E7174922
:103AD0004A461431404601F065F80028B3D0A08A68
:103AE0004FF4AF61884203D84FF41671884219D25F
:103AF000A18217E00D4932461631584601F052F8BE
:103B00000028A0D0E08A4FF49671884201D9E18262
:103B100008E0642806D26420E08203E0642801D231
:103B20006420208301278EE7BDE8F09F7C430020BE
:103B3000946C0108204C2F6D00000000B1A3B4E686
:103B4000D0DEB8C4BDE1B9FB203F00002DE9F84F3D
:103B5000DFF8E8B0012500269BF80940BBF80A0011
:103B6000ADF8000040F2015740F20958DFF8D0905C
:103B700040F2093A0AF0F8FA3148183001F040FEF4
:103B800004EB440109EB4101504601F009FE2DA36D
:103B90003A46BDF80010404606F050FC2848294639
:103BA000183001F049FE050023D0012D1DD0022D53
:103BB000E6D13A466946404600F0F4FF0028DFD0DF
:103BC000BDF80000962804D29620ADF800000AF057
:103BD00098F9BDF800104FF49670814203D9ADF802
:103BE00000000AF08EF90126CAE7641C04F0030401
:103BF000F9E7002E0BD0232113A002F011FB0228BD
:103C00001AD0062805D0072801D1FFF711FDBDE81D
:103C1000F88F8BF80940BDF800005D46ABF80A004C
:103C2000FFF7E8FD68890FF09BFC0B490FF0E0FC03
:103C3000697A0EF03BFDEAE701259BE77C43002013
:103C4000B46B0108A1E60000B1A3B4E6C5E4D6C395
:103C5000CAFDBEDD203F0000CDCCCC3D2DE9F84FA4
:103C6000DFF804B10125414F9BF80E40BBF80C0072
:103C7000ADF80000002640F2015940F2096A40F216
:103C8000093800BF0AF070FA6CB1384810F18000B2
:103C900001F0B6FD57F82410404601F081FD012CDB
:103CA00004D09CB309E031489830F1E730A34A468C
:103CB000BDF80010504606F0C1FB2C482946803064
:103CC00001F0BAFD05002BD0012D24D0022DE1D149
:103CD000012CD7D14A466946504600F063FF0028C0
:103CE000D0D0BDF80000962804D29620ADF8000090
:103CF0000AF007F9BDF800104FF4AF70814203D904
:103D0000ADF800000AF0FDF80126BBE7FFE7174811
:103D100029469830D4E70CB10024F5E70124F3E7F5
:103D2000002E0BD0232113A002F07AFA022819D01A
:103D3000062805D0072801D1FFF77AFCBDE8F88FE7
:103D4000BDF80000ABF80C005D468BF80E40FFF7A5
:103D500051FDA8890FF004FC0A490FF049FC0EF050
:103D6000B9FCEBE701258DE77C430020646B01087B
:103D7000A1E60000B1A3B4E6C5E4D6C3CAFDBEDD2A
:103D8000203F0000CDCCCC3D2DE9F0470125002699
:103D90000AF0EAF91C4F4FF480694FF000081B4C01
:103DA0000AF0E2F918482C3001F02AFD607857F843
:103DB0002010484601F0F4FC134829462C3001F04D
:103DC0003BFD054601280DD0002DE9D1002E19D06C
:103DD00004210FA002F024FA06280FD0BDE8F04716
:103DE000FFF726BC0AF0C0F96078401CC0B26070D2
:103DF000072801D384F801800126D1E7BDE8F04708
:103E0000FFF7F8BCBDE8F087D86501087C430020C7
:103E1000B1A3B4E6C5E4D6C33F0000002DE9F047E6
:103E2000012500261C4F1D4C40F20549B04600BF3D
:103E30000AF09AF918484C3001F0E2FC207857F863
:103E40002010484601F0ACFC134829464C3001F0E4
:103E5000F3FC054601280DD0002DE9D1002E19D024
:103E600004210FA002F0DCF906280DD0BDE8F047D0
:103E7000FFF7DEBB20780126401CC0B2207004286A
:103E8000D6D384F80080D3E7FFF7E6FBBDE8F04720
:103E9000FFF7B0BCBDE8F087C86501087C4300208F
:103EA000B1A3B4E6C5E4D6C33F0000002DE9F04756
:103EB0000025284C2F4640F2025840F207364FF4B6
:103EC000FA6900BF0AF050F9234801F099FC618DAE
:103ED00029B122A34246304606F0B0FA03E021A100
:103EE000304601F05DFC6D1CE9B21B4801F0A4FCFA
:103EF000050016D0012DEAD1618D18A34246304647
:103F000006F09CFA134942462A31304600F04AFE38
:103F10000028DCD0618D494501D9A4F82A900127F9
:103F2000D5E7002F13D0232111A002F079F9022840
:103F30000BD0062805D0072809D1BDE8F047FFF7C8
:103F400077BBBDE8F047FFF755BC0125BAE7BDE8F0
:103F5000F08700007C4300206C6C0108206B5061EE
:103F600000000000205BCDA3D3C35D202000000033
:103F7000B1A3B4E6D0DEB8C4BDE1B9FB203F000078
:103F80002DE9FF5F9448DFF854820125D0E9001243
:103F9000CDE90212D0E90210CDE900100DF1080BB5
:103FA000A8F107064FF003098D48002490F824106B
:103FB00061B1012902D0022905D101E0002100E010
:103FC000012188F8001000213170012490F825109B
:103FD00069B1012902D0022906D103E0022108F8C3
:103FE000041001E008F8049001213155641C90F898
:103FF000261069B1012902D0022906D103E002226C
:1040000008F8042001E008F8049002213155641CEE
:1040100090F8271069B1012902D0022906D103E0E6
:10402000022208F8042001E008F8049006F8049041
:10403000641C90F8281069B1012902D0022906D128
:1040400003E0022108F8041001E008F804900421BC
:104050003155641C90F8291061B1012902D0022960
:1040600005D101E0042200E0052208F80420052122
:104070003155641C007A90B1012808D0022802D082
:10408000032809D105E0062008F8040004E0072110
:1040900000E0082108F8041006203055641C022DA9
:1040A0002AD0032D4DD00AF05FF80027A7421ED278
:1040B000032C01D84BA100E04EA1002001F070FBC1
:1040C000B7FBF9F109FB117A4349F25D10313BF876
:1040D0001A0051F8221001F063FB3F4918F807203D
:1040E0002C313DF81A0051F8221001F059FB7F1CC9
:1040F000FFB2032FDAD348E00AF036F8032741A1D4
:10410000002001F04DFBA74216D2B7FBF9F109FBE5
:10411000117A3149F25D10313BF81A0051F8221042
:1041200001F03EFB2C4918F807202C313DF81A000D
:1041300051F8221001F034FB7F1CFFB2062FDED3B2
:1041400023E00AF011F8062732A1002001F028FB35
:10415000A74216D2B7FBF9F109FB117A1E49F25DAD
:1041600010313BF81A0051F8221001F019FB1A49DE
:1041700018F807202C313DF81A0051F8221001F0F0
:104180000FFB7F1CFFB2092FDED3A41CB4FBF9F098
:10419000C4B20AF06DFC082818D007DC012803D04F
:1041A000022810D004280ED1BDE8FF9F102804D0AB
:1041B000202802D0402806D108E06D1E15F0FF052A
:1041C0007FF4F2AE2546002DFAD1EDE76D1CEDB27D
:1041D000A542F8D90125E7E6F46D0108BD010020EC
:1041E0007C430020B1C3B0B2D7B0C7E9BFF62020EE
:1041F00000000000B1C3B0B2D7B0C7E9BFF62031AC
:1042000000000000B1C3B0B2D7B0C7E9BFF620329A
:1042100000000000B1C3B0B2D7B0C7E9BFF6203389
:10422000000000002DE9FF5F00249B4691468A466E
:10423000264625463AF814000FF092F917490FF078
:10424000D7F9B04659F8246001462F4630460FF0A2
:104250008DF80546014600980FF096FA03D2641CCB
:10426000E4B25C45E6D3394628460FF051FB0446DC
:10427000414630460FF04CFB21460FF077F80446DC
:10428000394600980FF044FB21460FF0B1F904B015
:104290004146BDE8F05F0EF0F5BF00006F12833AB3
:1042A00002490A78012A00D148607047280000209E
:1042B00001494870FDF7AEBC280000200A4980B1D2
:1042C000012806D0022807D0032808D04FF0FF307D
:1042D00007E043F6982004E047F2305001E04EF644
:1042E00060204860704700000800002010B506F00C
:1042F000F0FC074928B101200870BDE8104006F025
:104300005BBC00200870BDE8104001F0D7BF000082
:1043100028000020C0B2202800D27F20024901EBF3
:104320000010A0F500707047F83A010870B5C0B2EF
:104330000123104C60F31F21E4229818400804EB7D
:10434000400514F810606D7805EB0625ADB2A94262
:1043500003D1094901EB401070BD03D900F1010000
:1043600083B202E0A0F1010082B29342E5D9024893
:1043700070BD0000F8400108C242010870B50C464B
:10438000064615460021A02009F0A0FE60B1300AC3
:1043900009F06AFE40B1F0B209F066FE20B10121D9
:1043A000A02009F093FE48B909F0CAFE002070BDB4
:1043B000002009F023FEC04304F8010B6D1E15F028
:1043C000FF05F5D1012009F019FEC043207009F066
:1043D000B7FE012070BD000070B50C4606461546BC
:1043E0000021A02009F072FE08B3300A09F03CFE5B
:1043F000E8B1F0B209F038FEC8B100BF14F8010B03
:10440000C043C0B209F030FE88B16D1E15F0FF0543
:10441000F4D109F095FEA0254FF4C8740021284678
:1044200009F054FE30B109F08BFE012070BD09F097
:1044300087FE03E0641E2404240CEFD1002070BD2D
:1044400010B501F0F5F810BD0349012008700349CB
:104450004003086070470000380000201404014049
:1044600010B501F0E5F810BD10B501F0E1F810BD90
:1044700010B501F0DDF810BD10B501F0D9F810BD90
:1044800010B501F0D5F810BD2DE9F34FE14897B014
:104490004FF00108858803A91898FCF717FB0898C6
:1044A000DFF874B300F26C7087B207984FF4FA6AC1
:1044B000401CC6B2069840F63309C4B233463A46A9
:1044C000D6A111A80094FBF785FF11A9179801F058
:1044D00067F94046B8F1010F05D0022806D0B8F1BF
:1044E000030F08D116E00421179802E01798401D29
:1044F00012E001F04BF90AF0BBFA10282DD00EDCC7
:104500000A28DBD2DFE800F005F50505F40505050E
:10451000F3F2D3E71798083080B20221E9E72128A7
:1045200074D00BDC112872D02028C7D1A8F101006B
:1045300010F0FF08C2D103208046BFE7402867D0B3
:104540004128BBD1C82D01D96D1EADB264214120D7
:104550000DF090FA002877D04FE14046B8F1010FF6
:1045600010D0022830D0B8F1030FA7D13C21102081
:104570000DF080FA002860D0641CE4B20C2C9DD9A8
:1045800001249BE73C2110200DF074FAA8B17F1C98
:10459000BFB24F4500D9574691E07F1CBFB24F458F
:1045A00000D9574633463A469CA111A80094FBF720
:1045B00011FF11A9179801F0F3F80F2110200DF049
:1045C00059FA0028E9D07AE03C2110200DF052FA87
:1045D000A8B1761CF6B20C2E9BD901266EE7761C8C
:1045E000F6B20C2E00D9012633463A468BA111A80B
:1045F0000094FBF7EFFE11A9179801F0D1F80F21F5
:1046000010200DF037FA002897D1E8E7F1E0BCE080
:104610001BE03146384609F0B1FD641CE4B2A0420B
:1046200000D2012433463A467CA111A80094FBF73E
:10463000D1FE11A9179801F0B3F80F2110200DF049
:1046400019FA00289DD1E4E7C6E04046B8F1010F11
:1046500014D002283FD0B8F1030F92D13C21402062
:104660000DF008FA002870D0641E14F0FF0488D101
:104670003146384609F082FD04461FE73C214020C0
:104680000DF0F8F9A8B17F1EBFB2574517D24F46BB
:1046900015E07F1EBFB2574500D24F4633463A461B
:1046A0005EA111A80094FBF795FE11A9179801F0DF
:1046B00077F80F2140200DF0DDF90028E9D03346CE
:1046C0003A4656A111A80094FBF784FE11A9179849
:1046D00001F066F807E73C2140200DF0CBF9C8B1A6
:1046E000761E16F0FF06C8D10C26E7E67BE033E025
:1046F00049E03AE0761E16F0FF0600D10C2633465C
:104700003A4646A111A80094FBF764FE11A9179838
:1047100001F046F80F2140200DF0ACF90028ACD193
:10472000E8E7641E14F0FF0404D13146384609F06E
:1047300025FD044633463A4638A111A80094FBF7FC
:1047400049FE11A9179801F02BF80F2140200DF018
:1047500091F9002891D1E4E708F1010000F0FF0889
:10476000B8F1030F89D90120E6E606A9A7F26C7714
:10477000761ED0C103A8FCF7F2F818990860012052
:1047800019B0BDE8F08F0020FAE740F6020085423C
:1047900001D26D1CADB2642111200DF06BF950B146
:1047A0002BE06D1CADB228460EF0DAFE59460EF035
:1047B0001FFFFFF775FD032111200DF05BF90028A5
:1047C000EFD01AE06D1EADB228460EF0C9FE594674
:1047D0000EF00EFFFFF764FD012141200DF04AF9B4
:1047E0000028EFD009E040F29E70854205D2643582
:1047F00002E0DC2D01D9143DADB228460EF0B0FE2A
:1048000059460EF0F5FEFFF74BFD02488580FEF796
:10481000F1FF53E67C4300200AD7233C2530347552
:104820002D253032752D2530327500002DE9F04FE1
:10483000DFF858938A4691B083460125B9F80440C1
:1048400001A95046FCF742F91827DFF844833C26BB
:104850000198DDE902320090CEA10CA8FBF7BAFD69
:104860000CA9584600F09CFF012D04D0022D05D064
:10487000032D08D116E00221584602E00BF1030097
:1048800012E000F083FF0AF0F3F810282BD00EDCC2
:104890000A28DDD2DFE800F005EF0505EE05050585
:1048A000EDECD5E70BF1060080B20221E9E7212803
:1048B0007DD009DC11287BD02028C9D16D1E15F0D0
:1048C000FF05C5D10325C3E740287DD04128BFD1CE
:1048D000C82C01D9641EA4B2642141200DF0CAF88D
:1048E000002867D044E1012D0CD0022D2CD0032DDF
:1048F000AED13C2110200DF0BDF800285DD001980C
:10490000401C6FE03C2110200DF0B4F8A8B10398D2
:10491000401C74E00398401CB0FBF7F107FB11004A
:1049200003900198DDE9023200909AA10CA8FBF7F0
:1049300051FD0CA9584600F033FF0F2110200DF057
:1049400099F80028E6D079E03C2110200DF092F88B
:10495000A8B10298401C85E00298401CB0FBF6F11B
:1049600006FB110002900198DDE90232009089A156
:104970000CA8FBF72FFD0CA9584600F011FF0F21E2
:1049800010200DF077F800288BD1E5E70198DDE9DC
:104990000232401CB0FBF6F106FB110001900090C2
:1049A0007CA10CA8FBF716FD0CA9584603E0DBE040
:1049B00095E009E0BAE000F0F3FE0F2110200DF0C1
:1049C00059F8002894D1E1E7012D11D0022D42D0F1
:1049D000032D8DD13C2140200DF04CF8002877D0DC
:1049E00001983B30B0FBF6F106FB110001902FE778
:1049F0003C2140200DF03EF8D0B103981730B0FBB9
:104A0000F7F107FB1100039018E003981730B0FB93
:104A1000F7F107FB110003900198DDE902320090E5
:104A20005CA10CA8FBF7D6FC0CA9584600F0B8FE18
:104A30000F2140200DF01EF80028E6D00198DDE996
:104A40000232009053A10CA8FBF7C4FC0CA95846F5
:104A500000F0A6FE0FE73C2140200DF00BF8F0B16E
:104A600002983B30B0FBF6F106FB11000290EFE636
:104A700074E062E070E066E002983B30B0FBF6F173
:104A800006FB110002900198DDE90232009041A17D
:104A90000CA8FBF79FFC0CA9584600F081FE0F21E3
:104AA00040200CF0E7FF0028A1D1E5E70198DDE9FF
:104AB00002323B30B0FBF6F106FB11000190009092
:104AC00034A10CA8FBF786FC0CA9584600F068FE40
:104AD0000F2140200CF0CEFF002888D1E6E740F6F9
:104AE0000200844201D2641CA4B2642111200CF0A3
:104AF000C1FF50B13CE0641CA4B220460EF030FD72
:104B000041460EF075FDFFF7CBFB032111200CF0A1
:104B1000B1FF0028EFD02BE0641EA4B220460EF0B7
:104B20001FFD41460EF064FDFFF7BAFB0121412055
:104B30000CF0A0FF0028EFD01AE06D1CEDB2032DA1
:104B400095D9012584E601A8FBF709FFCAF8000002
:104B5000012011B0BDE8F08F0020FAE740F29E700E
:104B6000844205D2643402E0DC2C01D9143CA4B2A6
:104B700020460EF0F5FC41460EF03AFDFFF790FBA3
:104B8000A9F80440FEF736FE62E600007C430020F0
:104B90000AD7233C253032753A253032753A253014
:104BA0003275000038B50C4609880091694600F05E
:104BB00007F8002802D000982080012038BD0000AE
:104BC0002DE9F74F90B000251198904612F0FF079D
:104BD0000168714884884FEA1220814601D0A9F10A
:104BE0000100C6B26D48A6EB070A50F82600B1FBDB
:104BF000F0F200FB121B58460EF0B2FC6749283158
:104C000051F827100EF0B2FB0EF010FBCDE90001B9
:104C100008F0FF034A4662A10AA8FBF7DBFB0AA9DA
:104C2000109800F0BDFD1098AA45284400DC401CF7
:104C300080B2012100F0AAFD681C0090864206D3D4
:104C40005648711B00EB810050F8040C00E0012075
:104C5000019009F00DFF112857D01CDC082843D023
:104C600007DC01284CD00428C5D1002013B0BDE8D2
:104C7000F08F092879D01028BDD101990A20BBFBFB
:104C8000F1F1B1FBF0F200FB1210092815D00199E7
:104C90000BEB010020E020282AD021286BD04028EF
:104CA0000ED04128A7D1C82C01D9641EA4B264211A
:104CB00041200CF0DFFEA0B361E0019840420EE01D
:104CC00001990A20BBFBF1F1B1FBF0F200FB1210DD
:104CD00020B10199ABEB010083468CE7019800EB12
:104CE000C00101EB0B00F7E70098B0FBF6F103E021
:104CF000A819401E90FBF6F106FB1100C5B27AE739
:104D000011990120C1F800B0B0E740F602008442DA
:104D100001D2641CA4B2642111200CF0ABFE58B186
:104D20002DE01AE0641CA4B220460EF019FC1E49C6
:104D30000EF05EFCFFF7B4FA032111200CF09AFE8E
:104D40000028EFD01BE0641EA4B220460EF008FC41
:104D500015490EF04DFCFFF7A3FA012141200CF09C
:104D600089FE0028EFD00AE0FFE740F29E708442FF
:104D700005D2643402E0DC2C01D9143CA4B22046F4
:104D80000EF0EEFB08490EF033FCFFF789FA0248FB
:104D90008480FEF72FFD2EE77C430020706401081D
:104DA00025302A2E2A6600000AD7233C2DE9F35F1E
:104DB0000A8888464FF03C0BB2FBFBF14FF06409C8
:104DC000B1FBF9F45B4809FB14140BFB1125002718
:104DD000B0F804A0012600BFC4EB041005EB80016D
:104DE000009805F065FD012E06D0022E07D0032E97
:104DF00018D0042E08D118E00121009802E0009894
:104E0000401C14E000F0C2FC09F032FE102818D05B
:104E100010DC012865D004286BD0082855D009285B
:104E200052D168E00098C01C01E00098001D80B2DB
:104E30000121E7E720284ED0212863D0402874D1F3
:104E400010E0012E06D0022E06D0032E06D0042E2E
:104E50006BD105E00A340FE0611C14E00A3520E054
:104E6000691C25E0012E06D0022E0AD0032E17D091
:104E7000042E5AD11AE05A34B4FBF9F109FB11445B
:104E8000AAE704F109010A20B1FBF0F200FB1211BC
:104E9000B4FBF0F000EB800001EB4000C4B29BE7F4
:104EA0003235B5FBFBF10BFB115595E705F1090117
:104EB0000A20B1FBF0F200FB1211B5FBF0F000EBA1
:104EC000800001EB4000C5B22FE0761CF6B2042E44
:104ED0002BD9012629E0761E16F0FF0625D10426DF
:104EE00023E0C4EB041005EB8001A8F800100127B3
:104EF0001DE000271BE040F29E7150468A4508D213
:104F0000643004E05046BAF1DC0F02D9143880B2A4
:104F100082460EF025FB08490EF06AFBFFF7C0F948
:104F20000449A1F804A0FEF765FC002EA8D138467C
:104F3000BDE8FC9F7C4300200AD7233C70B5144693
:104F40000D46064609F04CF8E2B229463046FFF716
:104F500015FA044609F04CF8204670BD70B51446A9
:104F60000D46064609F03CF8E2B229463046FFF706
:104F700033FA044609F03CF8204670BD10B51BA07A
:104F8000FCF7C6FE10221B491BA0FCF7D3FE302203
:104F9000102119A0FCF74AFE1BA0FCF7B9FE102255
:104FA00014491BA0FCF7C6FE4022102118A0FCF7F4
:104FB0003DFE1BA0FCF7ACFE10220E491AA0FCF728
:104FC000B9FE7022102118A0FCF730FE1AA0FCF7E1
:104FD0009FFE102207491AA0FCF7ACFE7022BDE824
:104FE0001040102116A0FCF721BE00005C53445F66
:104FF00041495200240100205C53445F4149525C06
:105000004149522E545854005C53445F545350004D
:105010005C53445F5453505C5453502E54585400C6
:105020005C53445F523234005C53445F5232345C10
:105030005232342E545854005C53445F5348490054
:105040005C53445F5348495C5348492E54585400BC
:1050500010B50C4641011023224603A004F0DEF9EE
:10506000002800D1206010BD5C53445F4149525C70
:105070004149522E5458540010B50C46810140232A
:10508000224603A004F0CAF9002800D1206010BD18
:105090005C53445F5232345C5232342E54585400C4
:1050A00010B50C4681014023224603A004F0B6F956
:1050B000002800D1206010BD5C53445F5348495C18
:1050C0005348492E5458540010B50C4600EB80004C
:1050D000C1002423224603A004F0A0F9002800D137
:1050E000206010BD5C53445F5453505C5453502EA9
:1050F0005458540070B50D46044664210748FBF728
:10510000CAFB102229460548FBF74EFB6101BDE8AA
:1051100070402023014A02A004F082B928400020F8
:105120005C53445F4149525C4149522E54585400EB
:1051300070B50D46044664210748FBF7ACFB4022DE
:1051400029460548FBF730FBA101BDE8704040232C
:10515000014A02A004F064B9284000205C53445F77
:105160005232345C5232342E5458540070B50D46CD
:10517000044664210748FBF78EFB40222946054878
:10518000FBF712FBA101BDE870404023014A02A0D9
:1051900004F046B9284000205C53445F5348495C02
:1051A0005348492E5458540070B50D4604466421A6
:1051B0000848FBF770FB242229460648FBF7F4FA5F
:1051C00004EB8400BDE87040C1002823014A02A01E
:1051D00004F026B9284000205C53445F5453505CCF
:1051E0005453502E5458540070B5144C144E20464D
:1051F000217A457A4089012915D0022909D003294D
:105200001BD10EF0ADF931460EF0F2F929460DF042
:105210004DFAA0890EF0A4F931460EF0E9F9BDE887
:1052200070400DF057BA0EF09BF931460EF0E0F9E0
:105230002946BDE870400DF039BA70BD7C430020AE
:10524000CDCCCC3D1148816941F00101816110490B
:10525000202048610F48016821F400510160001FBF
:10526000016821F45C4101600A49091D0A680A606D
:10527000091D0A6842F400520A60064A41141032BD
:105280001160016841F40051016070470010024054
:10529000000001400404014008B50020009008F01F
:1052A00063FF07A1002000F07BFA4FF4C06269465B
:1052B00040F20530FFF784FC002800D0009808BDBC
:1052C000CAE4C8EBC3DCC2EB3A0000002DE9F04FA2
:1052D0000746B048884699B0848805A91691AE481B
:1052E0000AA9149100260FA9354600EB480A00EBE5
:1052F00047091591B9F8261068462DF8161000EBED
:105300004600BAF826108182B9F81A100185761C79
:10531000BAF81A10F6B281870A2E02D025B10A21F6
:1053200003E000260125FAE73146684608F0DAFD79
:10533000DFF868B22BF817000DB10A2100E0314602
:10534000169808F0CFFD2BF818000DB10A2100E0E7
:105350003146149808F0C6FD904901EB470BABF8B5
:1053600014000DB10A2100E03146159808F0BAFD8D
:105370008A49474501EB48011791888232D10DB126
:105380000A2100E03146684608F0ACFD014683483A
:1053900020F817100DB10A2100E03146149808F0EA
:1053A000A1FDABF814007EA140F2012000F0F8F955
:1053B000384609F0FBFC014640F2026B00235A46D6
:1053C00040F2014004F082FF77A140F2092000F092
:1053D000E7F9384609F050FC014600235A4640F2EE
:1053E000094063E00DB10A2100E03146684608F04B
:1053F00079FD6A4921F817000DB10A2100E0314614
:10540000169808F06FFD0146644820F818100DB199
:105410000A2100E03146149808F064FDABF814004E
:105420000DB10A2100E03146159808F05BFD17998F
:1054300088825BA140F2012000F0B2F95CA14FF438
:10544000806000F0ADF95BA14FF4C06000F0A8F9F6
:10545000384609F0ABFC014640F2036B00235A4684
:1054600040F2024004F032FF404609F09FFC5A46E9
:10547000014640F2026B0023584604F027FF4AA180
:1054800040F2092000F08CF9384609F0F5FB01469E
:1054900000235A4640F2094004F018FF404609F044
:1054A000EBFB014600235A4640F2096004F00EFF70
:1054B000282009F09BFC00283FF41CAF09F0D8FA23
:1054C000112820D00CDC012818D0042816D0092877
:1054D0007FF410AF40F29E7084424DD264344AE0B3
:1054E000212845D04128F3D1C82C01D9641EA4B28B
:1054F000642141200CF0BEFA80B33DE0FDF72EFDA3
:1055000019B0BDE8F08F40F60200844201D2641C5D
:10551000A4B2642111200CF0ADFA58B12CE0641C47
:10552000A4B220460EF01CF859460EF061F8FEF7C2
:10553000B7FE01E0DFF880B0032111200CF09AFAE9
:105540000028ECD018E0641EA4B220460EF008F843
:1055500059460EF04DF8FEF7A3FE02E0FFE7DFF834
:1055600058B0012141200CF085FA0028EBD003E06F
:10557000DC2C01D9143CA4B220460DF0F1FF0E49F9
:105580000EF036F8FEF78CFE02488480FEF732F902
:10559000B0E600007C430020F040002008430020DB
:1055A000C1F7C1BF3A000000BCC6D1B93A00000043
:1055B000433A0000443A00000AD7233C0449FF2044
:1055C00008600348143801686FF3090101607047EF
:1055D000140401401348816941F0010181611248BE
:1055E000012181600021C160104801686FF3090149
:1055F0000160001F016821F4407101600B49091D21
:105600000A6842F0FF020A60091D0A6842F0FF02C0
:105610000A60064AFF2110321160016841F0FD0165
:105620000160704700100240000001400404014086
:1056300010B5FFF7C3FF0348C068BDE810400CF089
:1056400089B900000800002010B5002108480CF0BE
:1056500069F9084C0021E0600548001D0CF062F972
:10566000A06003480021BDE8104008300CF09CB950
:10567000E03A0108080000200F48816941F0040168
:105680008161816941F0080181610C49FC20086059
:105690000B4903200860094810380168094AC9B25B
:1056A0001143016006481038016821F00F0141F0F4
:1056B000080101607047000000100240100801401E
:1056C000100C014000888888064800680649C0F32D
:1056D0008500096801F0010140EA81117F208843BB
:1056E0007047000008080140080C01402DE9F04116
:1056F0001D48C08907F034FA80F000411B4800685B
:105700000EF006F91A4C1B4D07462946E0600DF0D5
:105710006FFF61680DF0B6FD0646606016493846B9
:105720000DF066FF31460DF0ADFD14490DF060FF40
:1057300006461349A0680DF05BFF31460DF0A2FD4F
:105740001049A060884201DDA16002E0A84200DAB1
:10575000A5600D49A0680DF04BFF0DF0C9FEBDE836
:10576000F04180B200F058BFDC4000202C00002047
:10577000900000200AD7A33C0AD7A33B6666663F89
:10578000CDCCCC3DCDCC4C3E0000D846034A12785F
:10579000012A01D000F07ABE05F05ABB2800002093
:1057A000034A1278012A01D000F0B0BE05F092BB86
:1057B0002800002008498A6942F010028A6108B175
:1057C000891501E04FF0807104480161416821F0C2
:1057D0000F01C91C416070470010024000100140D9
:1057E00070B50C46054600EBC4004068FAF766FF4A
:1057F000C1B235F83400BDE87040FFF7C7BF000004
:1058000070B501880546080ACEB201D07043C6B211
:10581000696811B10020FFF7C3FF012409E000BF50
:1058200005EBC400416835F83400FFF7B9FF641C8C
:10583000E4B2B442F4D970BD002200F015B91346A9
:10584000002200F0E1B91346002200F0C5BA00F0D2
:1058500001B800002DE9F05F0C46DFF8E4B10188E3
:105860000646BBF804509046080ACFB230D07843C1
:1058700000F0FF0A0CB1544500D9012406EBC4091D
:10588000D9F80400FAF71AFFC1B236F83400FFF76E
:105890007DFF00BF5FEA080000D08047322009F09A
:1058A000A5FA0028F6D036F83400D9F80410FFF72E
:1058B00077FF09F0DDF810283DD00BDC0A28DDD297
:1058C000DFE800F005404305B9059205277BD5E7E1
:1058D000BA46CFE7212876D00DDC112837D0202812
:1058E000CCD1641EE4B2B4FBF7F007FB10400028F3
:1058F000C4D1E0191DE0402815D04128BED1C82DE3
:1059000001D96D1EADB2642141200CF0B3F8A8B3EB
:105910005DE0B4FBF7F007FB104008B9E01BC4B230
:10592000641CE4B2AAE7E019C4B25445A6D9A4EBBA
:105930000A00C4B2A2E7BC4202D804EB0A00C4B217
:10594000E01BF6E72046BDE8F09FFF20FBE740F6AE
:105950000200854201D26D1CADB2642111200CF011
:1059600089F860B133E06D1CADB228460DF0F8FD4A
:1059700049460DF03DFEFEF793FC02E013E0DFF830
:10598000C490032111200CF075F80028EBD01EE024
:105990006D1EADB228460DF0E3FD49460DF028FE20
:1059A000FEF77EFC01E0DFF89C90012141200CF025
:1059B00061F80028ECD00AE005E040F29E708542D4
:1059C00005D2643502E0DC2D01D9143DADB2284684
:1059D0000DF0C6FD1B490DF00BFEFEF761FCABF8A8
:1059E0000450FDF707FF49E74FF4967106200CF0CD
:1059F00041F800BB08F085FA642008F003FC08F0C9
:105A000080FA08F0B1FB10A140F20120FFF7C8FEB8
:105A1000FDF70EFE0A494FF4E062383140F20550BE
:105A2000FFF7CEF838B104210BA000F0F9FB0628EF
:105A300003D0FDF7FDFD002085E7FDF7DBFEFAE76B
:105A40007C4300200AD7233CC7EBCAE4C8EBB3F67B
:105A5000B3A7B1E0BAC53A00CAC7B7F1B1A3B4E67B
:105A6000B1E0BAC53F0000002DE9F05F0C46DFF859
:105A700090B101880646BBF804509046080ACFB2A0
:105A800030D0784300F0FF0A0CB1544500D901240E
:105A900006EBC409D9F80400FAF710FEC1B236F8D3
:105AA0003400FFF773FE00BF5FEA080000D08047B4
:105AB000322009F09BF90028F6D036F83400D9F8E6
:105AC0000410FFF76DFE08F0D3FF10283DD00BDC6B
:105AD0000A28DDD2DFE800F005404505430505054D
