:020000040800F2
:100000002050002041030008490300084B0300086A
:100010004D0300084F0300085103000800000000D2
:10002000000000000000000000000000790200084D
:100030005503000800000000F10200082D0300082D
:100040005B0300085B0300085B03000821920008C3
:100050005B0300085B0300081544000835440008F2
:100060003D440008454400084D4400085B03000877
:100070005B0300085B0300085B0300085B030008E8
:100080005B0300085B0300085B0300085B030008D8
:100090005B0300085B0300085B030008554400088D
:1000A0005B0300085B0300085B0300085B030008B8
:1000B0005B0300085B030008A5AA00085B030008B7
:1000C0005B0300085B0300085B0300085B03000898
:1000D0005B0300085B0300085B03000845B00008F1
:1000E0001D4400085B0300085B03000800F002F8F1
:1000F00000F07CF80AA090E8000C82448344AAF146
:100100000107DA4501D100F071F8AFF2090EBAE843
:100110000F0013F0010F18BFFB1A43F0010318473B
:1001200008810100288101000A444FF0000C10F8FA
:10013000013B13F0070408BF10F8014B1D1108BF65
:1001400010F8015B641E05D010F8016B641E01F805
:10015000016BF9D113F0080F1EBF10F8014BAD1C55
:100160000C1B09D16D1E58BF01F801CBFAD505E073
:1001700014F8016B01F8016B6D1EF9D59142D6D3CD
:10018000704700000023002400250026103A28BFF5
:1001900078C1FBD8520728BF30C148BF0B607047F9
:1001A000662913F0AC84642900F07A81752900F087
:1001B0007781782900F0B081632900F09E87732948
:1001C00000F0A387002070471FB500F0A2FF0400D5
:1001D0000020002112F0FAFDE0601FBD10B510BD37
:1001E00003B4FFF7FBFF03BC01F092F800F0CCF87A
:1001F0001146FFF7E9FF11F00FF90448002111F053
:10020000D1F911F01BF900F053FA00004000002072
:1002100080F309887047EFF309807047684680F3E0
:10022000098804480078C00714BF0220032080F327
:1002300014887047906C0108DFF818C0EFF305834D
:100240001B0618BF6047EFF31483DB0708BF604746
:1002500000DF7047A5160108DFF818C0EFF305832B
:100260001B0618BF6047EFF31483DB0708BF604726
:1002700000DF704789180108EFF30980816911F8E0
:10028000021CF1B990E80F10E047EFF3098C8CE8FD
:100290000700144B93E8060091420FD039B12CE9C6
:1002A000F00FC1F824C00CB411F022FE0CBC1A608F
:1002B000D2F824C0BCE8F00F8CF309886FF0020E6E
:1002C000704710B5084A1268914209D8074C54F893
:1002D000214090E80F10A047EFF3098C8CE80F0045
:1002E00010BD0000CC010020141B0008141B0008E6
:1002F00011F09AFC0C4B93E80600914210D0EFF3FA
:10030000098C2CE9F00FC1F824C00CB411F0F0FDF9
:100310000CBC1A60D2F824C0BCE8F00F8CF309883A
:100320006FF0020E70470000CC01002011F0A6FE15
:10033000E0E7000011F088F911F0A0FEDAE7000014
:100340000948804709480047FEE77047FEE7FEE797
:10035000FEE7FEE7FEE7FEE7FEE7FEE704480549A5
:10036000054A064B70470000BDA90008ED000008D3
:10037000204A002020500020204C0020204C00204B
:1003800000487047C04900207546FFF7F9FFAE46A8
:1003900005006946534620F00700854618B020B591
:1003A000FFF7DCFFBDE820404FF000064FF00007EC
:1003B0004FF000084FF0000B21F00701AC46ACE80D
:1003C000C009ACE8C009ACE8C009ACE8C0098D467A
:1003D000704700000FB41CB5074B06AA7B44694662
:1003E0000090059800F067FE0020694600F076FE58
:1003F0001CBC5DF814FB0000FD0C000070B5044649
:1004000085690068C10601D5302600E02026C007B6
:1004100008D070BDD4E9012130469047206A00F130
:10042000010020626D1EF5D570BD70B5044685696A
:100430000078C00708D170BDD4E901212020904781
:10044000206A00F1010020626D1EF5D570BD70B507
:100450000C460546012A05D02878800600D5EA69B1
:10046000002302E0012305E05B1C934202D2E05C22
:100470000028F9D1A869E618C01AA861286A1844AA
:1004800028622846FFF7BAFF04E0D5E9012114F8F5
:10049000010B9047B442F8D32846FFF7C6FF70BD62
:1004A0002DE9F0410646002410687529314616A54D
:1004B00011D0AFF30080002803DAC0F1000013A5CB
:1004C00007E031688A0701D511A502E0490704D584
:1004D00010A5012401E0AFF3008000210A2306F1FA
:1004E000240707E0B0FBF3F203FB1200303078542E
:1004F0001046491C0028F5D123462A463046BDE85F
:10050000F04100F067BB0000000000002D0000007B
:100510002B0000002000000070B504460D46214667
:100520001068AFF300802188090502D5104A7A448B
:1005300002E00F4A7A440E32002104F1240307E05E
:1005400000F00F064FEA1010965D5E5401F10101B4
:100550000028F5D103462078000704D5702D02D07D
:1005600009B1113202232046BDE8704000F032BBD1
:10057000927601002DE9F05F894604464FF0000AAB
:10058000DFF828B1FB44C0F820A02046E168884786
:1005900000287CD0252806D0D4E901219047206A84
:1005A000401C2062F1E700255F462046E16888474D
:1005B0002028064608DB312E06D207EB060010F88D
:1005C000200C08B10543F0E7A80701D525F0040584
:1005D000C4F81CA00027C4F818A02A2E09D0304661
:1005E0000CF043FA38B304EB8708303EC8F81860C3
:1005F00019E059F8041B204604EB87029161E16879
:100600008847012F064618D1E069002820DA25F036
:1006100020051DE0D8F8180000EB800006EB400034
:100620003038C8F818002046E168884706460CF0C4
:100630001CFA0028EED1012F0AD02E2E08D1204618
:10064000E16888477F1C0646022F45F02005C4DB81
:10065000A069002803DA404245F00105A061E807DF
:1006600001D025F0100596B1A6F14100192802D855
:10067000203645F400654A463146204625604D4601
:10068000FFF78EFD60B1012807D0ED1D00E009E005
:1006900025F0070000F1080977E705F1040974E780
:1006A000304679E7206ABDE8F09F000064760100DB
:1006B0000446AFF300802046FFF792FD40EA0103B5
:1006C000024630B59B0710D14FF0013400E008C25C
:1006D00008C91D1B9D4315EAC41FF8D013F0FF0184
:1006E00002F8011B0DD01B0AF8E711F8013B002BA3
:1006F00002F8013B05D011F8013B002B02F8013B49
:10070000F3D130BD10B5431C02E010F8011B71B1EC
:100710008107FAD14FF0013202C88C1A8C4314EAD7
:10072000C211F9D0C01A0A0603D0C01E10BDC01AEB
:1007300010BD0A0401D0801E10BD0902FCD0401E6D
:1007400010BD40EA010370B59B072ED14FF0013672
:10075000042A2AD308C810C9121F9D1B9D4315EAFD
:10076000C61517D0D8B2E1B2401A50EA056110D1CF
:1007700098B2A1B2401A50EA05410AD123F07F4055
:1007800024F07F41401A50EA052102D1180EA0EB57
:10079000146070BDA342DBD018BA21BA884201D9D7
:1007A000012070BD4FF0FF3070BD0AB9002070BD50
:1007B00010F8013B11F8014B63B1A3420AD1521E5C
:1007C00008D010F8013B11F8014B1BB1A34201D135
:1007D000521EEDD1181B70BD421E12F8013F002BB6
:1007E000FBD111F8013B002B02F8013BF9D1704716
:1007F000032A40F2308010F0030C00F0158011F84D
:10080000013BBCF1020F624498BF11F801CB00F824
:10081000013B38BF11F8013BA2F1040298BF00F878
:1008200001CB38BF00F8013B11F0030300F0258035
:10083000083AC0F0088051F8043B083A51F804CB5C
:10084000A0E80810F5E7121D5CBF51F8043B40F822
:10085000043BAFF30080D20724BF11F8013B11F82D
:1008600001CB48BF11F8012B24BF00F8013B00F871
:1008700001CB48BF00F8012B704710B5203AC0F0FB
:100880000B80B1E81850203AA0E81850B1E8185091
:10089000A0E81850BFF4F5AF5FEA027C24BFB1E8CE
:1008A0001850A0E8185044BF18C918C0BDE810403F
:1008B0005FEA827C24BF51F8043B40F8043B08BF48
:1008C0007047D20728BF31F8023B48BF11F8012B0F
:1008D00028BF20F8023B48BF00F8012B70474FF0BB
:1008E00000020429C0F0128010F0030C00F01B80FD
:1008F000CCF1040CBCF1020F18BF00F8012BA8BF0B
:1009000020F8022BA1EB0C0100F00DB85FEAC17CCE
:1009100024BF00F8012B00F8012B48BF00F8012B81
:1009200070474FF0000200B51346944696462039B2
:1009300022BFA0E80C50A0E80C50B1F12001BFF498
:10094000F7AF090728BFA0E80C5048BF0CC05DF8FE
:1009500004EB890028BF40F8042B08BF704748BF4C
:1009600020F8022B11F0804F18BF00F8012B7047C0
:1009700030B503681C1404EB21459BB289B21944BD
:1009800095FBF2F402FB145301EB034191FBF2F3EC
:1009900002FB131101E05B1E11440029FBDB016027
:1009A00003EB044030BD2DE9F04704464FF0FF3A19
:1009B00086B00068029060680390A0680490E068C8
:1009C0000190206900906569B5F1804F7EDCB5F13A
:1009D000404F7BDB3C22002102A8FFF7C9FF3C22ED
:1009E000014603A8FFF7C4FF1822014604A8FFF739
:1009F000BFFF411E40F2B55201A8FFF7B9FF0C221C
:100A0000064668460021FFF7B3FF00EB8600284446
:100A10003E4D00267D440FE09A1A491CCDE9001294
:100A2000022902D00C2907D104E0810704D0521C0E
:100A3000019201E0401C00960099019B6A5C9A4279
:100A4000EADD012906D11C2B04D1810702D0022145
:100A5000CDE90016A0F146018B2940D20199009BF7
:100A600000220F4602E0AE5C521C31449A42FADB8F
:100A7000012B02DD820700D0491E40F2B55540F23D
:100A80006D16C21700EB927292106A4300F00305D4
:100A900005FB062285070A4400D1521E049D02EB85
:100AA0004206DDF80C80A94605EBC605184EC5EBDD
:100AB0000515DDF808C008EB850535442E14ADB2E8
:100AC000C6EB0616C5EB0515B60000E007E00CEB1B
:100AD000850506EB154666F31F45360C03D05046D8
:100AE00006B0BDE8F0877F1CC4E90430521C072023
:100AF00092FBF0F304F1180600FB1320A6E80304B0
:100B00002846C4E90297C4E900C8E9E7E571010095
:100B1000A039CEFD70B50C46016800204A1C34D0C7
:100B200040F2B5553C23B1FBF3F203FB12112160F7
:100B3000B2FBF3F103FB112218236260B1FBF3F265
:100B400003FB1211A16046F2E0310A440721B2FB17
:100B5000F1F301FB1321B2FBF5F305FB1322A161B5
:100B60009900B2F5B77F06D3521EAD10B2FBF5F374
:100B7000194405FB13220F4BE261616189077B4435
:100B80000CD03B2A0AD3521C08E02C212046FFF748
:100B9000C8FE0120E0600AE0521A401C195C914234
:100BA000FAD9521CC4E903204FF0FF3020622046DE
:100BB00070BD00007B70010070477047704710B532
:100BC00000F0ACFA006810BD10B5044600F0A6FABB
:100BD000046010BD2DE9F0470D4699469246044643
:100BE00000F124080168880604D5E06921F01001AD
:100BF000216000E00120A84202DDA0EB050700E033
:100C00000027A16907EB050202EB0900A1EB000038
:100C1000A0612078C00602D42046FFF7EFFB002633
:100C200008E0D4E901211AF806009047206A401C28
:100C3000761C20624E45F4DB2078C0060AD520469B
:100C4000FFF7DCFB06E0D4E9012130209047206A61
:100C5000401C2062381EA7F10107F4DC07E0D4E94C
:100C6000012118F805009047206A401C2062281EC8
:100C7000A5F10105F3DC2046FFF7D7FB207800063D
:100C800002D50220BDE8F0870120FBE770472DE97F
:100C9000FF4F0C461E464FF0FF378BB0D2E90001E4
:100CA000DDF860800A908A46C1F30A5505B93D46D1
:100CB000002108464FF00000BAF1000F00F4400098
:100CC00005DA00EB80004FF4400101EA50004FEAE2
:100CD0009059B9F1010F00DDB9460A9850EA4A006F
:100CE0000ED044F61050A5F2FF3545432F14B8F14D
:100CF000000F1ED07542291E1EDDC9F100021CE046
:100D0000B8F1010F4FF0000001D0302103E0F243B1
:100D100005E02154401CB042FBDB3046002200219C
:100D200021540B99C1F80880C1E900200FB0BDE83B
:100D3000F08FBD1B6D1CDEE74A4600DA694206A84B
:100D400000F074FA06AB07CB03AB07C350460A9911
:100D500000F025FB8DE80700A0F500501F3800903B
:100D60000398002D09DD42F21F014A46084403A9F9
:100D70000390684600F084FD08E0A0F500504A4664
:100D80001F3803A90390684600F08EFD8DE8070028
:100D90000004000C03D04FF0FF30410800E0104683
:100DA000B8F1000F03D00022009215461FE0751E17
:100DB00006D400F0B5F902F1300262556D1EF8D587
:100DC000B3460122084302D000227F1C04E02078B1
:100DD000302801D100227F1E002A099787D01DE00C
:100DE000112D07DA00F09CF9303262556D1C50EA83
:100DF0000102F5D108430FD10021681E05E0235CF4
:100E0000625C6354491C2254401E8142F7DBAB46AE
:100E1000A81B401E099001E0009848B1002004F88A
:100E20000B000B98099AC0F80880C0E9002B7DE7F9
:100E300011264FF000085AE72DE9F04F8846044686
:100E4000D21D22F0070191B0D1E90001CDE90A01DC
:100E50000BF069FD02460B98C00F01D02D2007E072
:100E60002068810701D52B2002E0202101EAC00083
:100E7000032A099001D0072A05DB03464146204694
:100E800000F094F90FE12078800601D5E06900E0D8
:100E90000620B8F1650F814606D0B8F1660F18D06C
:100EA000B8F1670F72D132E00020B9F1110F009054
:100EB00001DB112301E009F101030AAA01A90CA831
:100EC000FFF7E5FEDDE90C70002609F10105834618
:100ED00048E001204B4600904FF000470AAA01A9C4
:100EE0000CA8FFF7D4FEDDE90DB00C995D46002695
:100EF00018B909F1010001EB0005B9EB050003D4B5
:100F0000C0F1FF3609F10105A5EB09002BE0B9F1AD
:100F1000010F01DA4FF001090020B9F1110F009023
:100F2000484601DD112300E003460AAA01A90CA8E6
:100F3000FFF7ADFEDDE90C704D46002683462078B4
:100F400000070AD4AB4500DA5D4601A8012D04DD97
:100F5000411911F8011C302907D04F4502DA17F169
:100F6000040F04DA0120824610E06D1EEEE7002F28
:100F700002DCED1B3E4403E0781CA84200DD054680
:100F8000A7EB060000F1010A4FF0004720780007A8
:100F900003D4AA4501DB4FF0FF3A0021B7F1004F1F
:100FA0000DF143088DF8431023D002202B23002F8E
:100FB00001DA7F422D234FF00A0C011EA0F101003F
:100FC00000DC4FB197FBFCF10CFB11720F4602F1F4
:100FD000300208F8012DF0E7A8F101000370218824
:100FE000090501D5452100E06521A0F1010800F8BF
:100FF000011C09980FA9A1EB080707F1070700B129
:10100000012000EB050101EBEA70A1693844A1EB76
:101010000000A0F10100A0612078C00602D42046A3
:10102000FFF7ECF9099830B1D4E901219047206A23
:1010300000F1010020622078C00620D52046FFF78D
:10104000DDF91CE0002E04DBB34502DD01A8805D64
:1010500000E03020D4E901219047206A761C401C32
:10106000BAF1010A20620AD100F053F8C0680168A1
:10107000405CD4E901219047206A401C2062281E70
:10108000A5F10105DEDC07E0D4E9012118F8010B28
:101090009047206A401C2062381EA7F10107F3DC4C
:1010A0002046FFF7C2F9022011B040E601694A1C50
:1010B00002610878704700B58FB0CDE90131002199
:1010C000059105497944CDE9031011466846FFF7BB
:1010D00051FA0FB000BD0000E5FFFFFF0A6802F8FB
:1010E000010B0A60704710B5436913B1AFF300807C
:1010F00001E0FFF7ACF9012010BD127800F12401E6
:101100000A7000224A700122EDE711684FF0FF32A9
:10111000E9E710B5FFF734F9203010BD0BF018BC2B
:1011200030B5B0F10A024FEA900E71F100034EEAB9
:10113000817EB0EB0E0061EB91014FEA101E4EEA8A
:10114000017E10EB0E0041EB11114FEA102E4EEA1A
:10115000016E10EB0E0041EB11214FEA104E4EEAEA
:10116000014E10EB0E0041EB1141401841F100011E
:101170004FEAD00040EA41704FEAD10110EB800500
:101180004FEA810444EA907444EB01046D1944EB86
:101190000404521BA3414FF0000348BF0A3200D59C
:1011A00030BD401C41F1000130BD00002DE9F0418F
:1011B0001F46044603260168072A01F4006004DB89
:1011C00008B116A505E016A503E008B115A500E0D5
:1011D00015A521F010002060A069C01EA0610FB10C
:1011E000401EA0612046FFF709F94FB1D4E9012163
:1011F00038469047206A401C2062C01C206206E0EE
:10120000206AFAE7D4E9012115F8010B9047761E10
:10121000F8D22046FFF709F9BDE8F0814E414E00B3
:101220006E616E00494E4600696E66002DE9F0471A
:10123000814616468AB035487844D0E90023806854
:101240000092CDE90130314878440C38D0E90223CE
:10125000006903924FF03702CDE9043041F69B302C
:10126000014491FBF2F0A0F1800502FB10141B3C3D
:1012700002D56442012000E00020DFF890A0804603
:101280000027FA44AAF1C60A0DE0E00709D0324669
:10129000684607EB47010AEB810100F005FB8DE88A
:1012A000070064107F1C002CEFD1184F7F44B43F1F
:1012B00017E0E80713D007EB04100DF1180A90E8C7
:1012C0000E00AAE80E00C068F04201D198190890FB
:1012D000324606A903A800F0E7FA03AB07C36D1076
:1012E000641C002DE5D132466946B8F1000F03A811
:1012F00002D000F0C5FA01E000F0D6FAC9E9000119
:10130000C9F808200AB0BDE8F08700004C6A010067
:1013100001491820ABBEFEE7260002004FF0013C59
:1013200050F8042B51F8043B9A4221D1A2EB0C0354
:10133000934313EACC1317D150F8042B51F8043B14
:101340009A4215D1A2EB0C03934313EACC130BD1B1
:1013500050F8042B51F8043B9A4209D1A2EB0C033C
:10136000934313EACC13DBD04FF00000704700BF6B
:10137000D01A01BAB1FA81F101F0180122FA01F094
:10138000CB40C1F12001DBB2C0B2C01A2CFA01F38C
:10139000D11A914311EAC311E6D1704770475FEA51
:1013A000400C08BF91F0000F4FEA8C234FEAC12296
:1013B00043EA51514FEA1C5018BF00F5F0404FEA84
:1013C000300018BF41F000415FEA6C5C00F02980FA
:1013D000BCF1FF3F08BF40F080407047130C06BFD0
:1013E00012044FF0100C4FF0000C130E04BF120249
:1013F0000CF1080C130F04BF12010CF1040C930F35
:1014000004BF92000CF1020CD30F04BF52000CF188
:10141000010C11464FF00002A0F11F00A0EB0C00E0
:10142000704711F0004F08BF704731F000413FF4A2
:10143000D5AF0B0C06BF09044FF0100C4FF0000C99
:101440000B0E04BF09020CF1080C0B0F04BF0901BD
:101450000CF1040C8B0F04BF89000CF1020CCB0FB4
:1014600004BF49000CF1010CCCF12003A0EB0C00EF
:1014700022FA03F302FA0CF241EA030100F101003F
:10148000704720F07F4C80EA030023F07F47ACEBED
:10149000070303F57C5300F0004003F1FF032DE93F
:1014A00080494FEA154B09B44FEA144325EA0B4E25
:1014B00024EA03480FF2042606EB132749083E7876
:1014C0005FEA320203FB0667C7F5000707FB06F673
:1014D0004FEA54374FEAD64606F1020607FB066C80
:1014E000CCF1005C4FEA1C472CEA074C07FB06F4E2
:1014F0000CFB06F504EB15464FEA961634BF0020A8
:101500004FF000404FEAD13706FB07FC4FEA1C4C76
:101510000CFB0BF7D21B03FB0CF761EB07010CFB79
:101520000EF7B0EB074072EB17420CFB08F734BF25
:10153000A2EB0742B2EB074261EB17414FEA0C44C2
:101540004FEA910706FB07FC4FEA1C4C0CFB0BF71C
:10155000B0EBC74072EB573203FB0CF734BFA2EB82
:10156000C742B2EBC74261EB57310CFB0EF7B0EB51
:10157000C70072EB57720CFB08F734BFA2EBC7022F
:10158000B2EBC70261EB5771039F4FEA816141EAF9
:10159000921104EBCC044FEAD1374FEA826206FB8A
:1015A00007FC42EA90124FEA80604FEA1C4C0CFBA9
:1015B0000BF7D21B03FB0CF761EB07010CFB0EF7DB
:1015C000B0EB074072EB17420CFB08F734BFA2EBFD
:1015D0000742B2EB074261EB17414FEA8C554FEAE5
:1015E000910704EB9C2406FB07FC4FEA1C4C0CFB08
:1015F0000BF7B0EBC74072EB573203FB0CF734BF6D
:10160000A2EBC742B2EBC74261EB57310CFB0EF7BE
:10161000B0EBC70072EB57720CFB08F734BFA2EBBC
:10162000C702B2EBC70261EB577115EB4C254FEACD
:10163000816141EA92114FEA82624FEAD13742EA70
:10164000901206FB07FC44F100044FEA80604FEA69
:101650001C4C0CFB0BF7D21B03FB0CF761EB0701D7
:101660000CFB0EF7B0EB074072EB17420CFB08F7D0
:1016700034BFA2EB0742B2EB074261EB174115EB17
:101680001C154FEA813141EA92414FEA823242EA27
:1016900090424FEA80304FEA0C7644F1000448EA69
:1016A00003434EEA0B484FF0000EB2EB080C71EB0F
:1016B000030724BF624639464EEB0E0E4FF0000B77
:1016C0000018524149414BEB0B0BB2EB080C71EB8C
:1016D00003077BF1000B24BF624639464EEB0E0E2A
:1016E0004FF0000B0018524149414BEB0B0BB2EB92
:1016F000080C71EB03077BF1000B24BF62463946EF
:101700004EEB0E0E51EA020718BF46F0010616EB2B
:101710000E7655F1000254F1000103D5BDE88901B0
:10172000BDE80088BDE88901BDE80048B61952410E
:1017300041EB0101A3F10103704780807F7E7D7C36
:101740007B7A7978777676757473727171706F6E53
:101750006E6D6C6C6B6A6A696868676666656464FE
:10176000636362616160605F5F5E5E5D5D5C5C5B88
:101770005B5A5A59595858575756565555555454F7
:10178000535352525251515050504F4F4F4E4E4D55
:101790004D4D4C4C4C4B4B4B4A4A4A4949494848A1
:1017A00048474747474646464545454444444443E1
:1017B00043434342424242414141002B26D47700F9
:1017C00021D01CB54FEA370703B44FF010004FF09B
:1017D00010014FF000000FBCBDE810400BF1010BF1
:1017E000BBF1010F08BF5FEA170722BF12F1010228
:1017F00011F101014FF0004143F1000300F00040FE
:1018000043EA00007047F9D35708DAE746EA06468C
:1018100013F1400F4FEA16461FDD13F1200FDFBF13
:1018200016430A46002120335B42C8D0C3F120078B
:1018300046EA064602FA07F74FEA164646EA070660
:10184000C3F1200722FA03F201FA07F721FA03F1A4
:101850004FF0000342EA0702B1E746EA020646EA11
:1018600006464FEA164646EA0106BCBF46EA064669
:10187000360C4FF000034FF000024FF000019EE7DE
:101880002DE9C048934630B491E8380007C831EAE2
:10189000400C48BF34EA430C03D5FFF7F2FDFFF7D5
:1018A0008CFFF0BCBDE800882DE9C048934630B4F9
:1018B00091E8380007C810F0804F08BF13F0804F40
:1018C00003D100F005F8FFF778FFF0BCBDE8008811
:1018D00020F07F4780EA030023F07F4C07EB0C03E6
:1018E000A3F57C5300F00040A3F1FE0392F0000F3B
:1018F00000F0B38095F0000F00F077802DE90149EA
:101900004FEA11404FEA144621EA004800FB06FC6A
:1019100024EA064708FB06F607FB08F800FB07F772
:1019200018EB06484CEB164C4FEA124B18EB0748E5
:101930004FEA15464CEB174022EA0B4E0BFB06FC18
:1019400025EA06470EFB06F607FB0EFE0BFB07F724
:101950001EEB064E4CEB164C4FF000061EEB074EEE
:101960004CEB174B18EB0B0840F1000018EB0E0B7B
:1019700058EB000840F100008F1A4FF000013CBF07
:10198000C943661B14BFB5EB040C00213CBFC9431F
:10199000F61B4FEA17444EEA8E0E27EA04454FEA3B
:1019A0001C4704FB07622CEA074C05FB07F70CFBFE
:1019B00005F604FB0CFC16EB074642EB174216EB50
:1019C0000C4642EB1C421BEB060658EB020241415F
:1019D00046EA9E0601D5BDE80189B619524141EBA0
:1019E0000101A3F10103BDE801894FEA14454FEA63
:1019F000114724EA054621EA074C05FB07F406FBDC
:101A000007F70CFB06F105FB0CFC11EB074144EB5F
:101A100017444FEA124711EB0C4144EB1C4422EAF5
:101A2000074C05FB07F206FB07F70CFB06F605FB68
:101A30000CFC16EB074642EB174216EB0C4642EB4A
:101A40001C456A1854F1000148BF7047B61952414D
:101A500041EB0101A3F10103704795F0000F37D06E
:101A60004FEA11424FEA144721EA024624EA074CA2
:101A700002FB07F106FB07F70CFB06F402FB0CFC6C
:101A800014EB074441EB17414FEA154714EB0C44A4
:101A900041EB1C4125EA074C02FB07F506FB07F763
:101AA0000CFB06F602FB0CFC16EB074645EB174554
:101AB00016EB0C4645EB1C42121951F1000148BFD0
:101AC0007047B619524141EB0101A3F10103704780
:101AD0004FEA14454FEA114724EA054621EA074C2C
:101AE00005FB07F106FB07F70CFB06F24FF00006BB
:101AF00005FB0CFC12EB074241EB174112EB0C42C9
:101B000051EB1C4148BF7047921841EB0101A3F112
:101B1000010370470000000007F092BD10B50022DD
:101B2000074B114601EB810403EB440434F81040E9
:101B3000491CC9B222441029F4D3C2F30F1010BDBE
:101B4000F601002009498A6942F010028A6108B151
:101B5000491501E04FF0007105480161416821F02D
:101B6000F00141F030014160704700000010024078
:101B700000100140264910B508684FF6FF021040DA
:101B8000244A40F4E06010430860062004F022FB81
:101B9000072004F01FFB082004F01CFB092004F0C0
:101BA00019FB0A2004F016FB172004F013FB282071
:101BB00004F010FB1E2004F00DFB272004F00AFBAC
:101BC00008F020FF154A1448D16941F00201D161A3
:101BD00000210180018540F65F1383850123838204
:101BE000018446F2600303838383818601878187B2
:101BF000A0F84010018841F001010180906940F097
:101C0000010090610648416841F44061416010BDA7
:101C10000CED00E00000FA05000400400010024056
:101C20000000014008B5024908440090008808BD42
:101C3000006C004008B5024A10440090016008BDE5
:101C4000006C00400448007801284FF0000001D0EB
:101C500004F062BB08F0F6BF2800002004480178B9
:101C60004078012901D004F057BB08F0EBBF000019
:101C70002800002070B515460E4604460BF09AFF6A
:101C800021461648FEF71AFD144800F077FA304650
:101C900000F028F964211248FEF721FE00222946AF
:101CA0000F4800F05FF90F4C6070012000F008FA57
:101CB00064210A48FEF713FE64210948FEF70FFE6F
:101CC0000BF080FF6078142802D0172802D003E0C0
:101CD000012070BD0BF065FF002070BD6C47002037
:101CE000404600202001002010B504460BF062FFA2
:101CF00021460648FEF7E2FC044800F03FFA00F0F7
:101D000043FA04460BF05EFF204610BD6C470020EE
:101D10002DE9F0411C4615460E4607460BF04AFFDA
:101D200023462A463146384600F07CF8142804D071
:101D30000BF048FF0020BDE8F0810BF043FF0120CD
:101D4000F9E700002DE9F0411C4615460E4607460E
:101D50000BF030FF23462A463146384600F092F811
:101D6000084C60700BF02EFF6078142802D0172802
:101D700003D004E00120BDE8F0810BF012FF002049
:101D8000F9E700002001002010B504460BF012FF17
:101D900021460B48FEF792FC094800F011F9094969
:101DA0004870012000F08CF964210548FEF797FD8A
:101DB00064210548FEF793FDBDE810400BF002BF1B
:101DC0006C470020200100204046002070B51546D9
:101DD0000E4604460BF0EEFE21460F48FEF76EFC61
:101DE0000D4800F07AF90D4CA9B20022607030461F
:101DF00000F0B8F86070012000F062F960706421B2
:101E00000548FEF76CFD64210548FEF768FDBDE856
:101E100070400BF0D7BE00006C470020200100206E
:101E2000404600202DE9F0411C4616460F46054667
:101E30000BF0C0FE29461048FEF740FC0E4800F0AB
:101E40009DF9384600F04EF8A1B20022304600F06D
:101E500062F80A4C6070012000F032F964210648F3
:101E6000FEF73DFD64210648FEF739FD0BF0AAFEA2
:101E70006078BDE8F08100006C4700202001002060
:101E8000404600202DE9F0411C4617460E46054607
:101E90000BF090FE29461048FEF710FC0E4800F0AB
:101EA0006DF9384600F01EF8A1B20C4A304600F039
:101EB00059F80A4CA41E6070012000F001F9642159
:101EC0000548FEF70CFD64210548FEF708FD0BF000
:101ED00079FE6078BDE8F0816C4700202201002087
:101EE0004046002010B50446392010F05DFFE0B2F6
:101EF00010F065FFC4F3072010F061FFC4F3074042
:101F000010F05DFF200E10F05AFF10F01DFFBDE82D
:101F100010400AF017BC70B5064614460D463A202C
:101F200010F042FFE8B210F04AFF280A10F047FF15
:101F300010F00AFF0CB1002011E00AF003FC1D288C
:101F40000FD1304600F052F905463B2010F02CFF2F
:101F500010F0FAFE2E44002CEFD020882844208078
:101F6000EBE770BD2DE9F041064614460D463C20D6
:101F700010F01AFFE8B210F022FF280A10F01FFF3D
:101F800010F0E2FE0CB1002020800C4F0AF0DAFBCA
:101F90001E2810D1304600F03CFA054638703D202E
:101FA00010F002FF10F0D0FE2E44002CEED020885E
:101FB00028442080EAE7BDE8F08100001E010020EF
:101FC00010B5044600F0C4F920785C2801D02F2811
:101FD00003D10021642000F032FABDE81040402017
:101FE00000F096B910B505F08DFE08B100F0CFF8FD
:101FF000BDE81040302000F08BB9312000F088B9E6
:1020000010B505200CF04CFD5A2000F081F9044673
:1020100005200CF045FD204610BD00002DE9F74FCE
:1020200082B0834604980E46C700080E4FF0000A9F
:10203000C1F30729C1F307480090562010F0B4FE01
:10204000F0B210F0BCFE484610F0B9FE404610F069
:10205000B6FE009810F0B3FE049810F0B0FE10F039
:1020600073FE3C4614E000BF0AF06CFB05461E28D8
:1020700001D07CB113E04021584600F0B4F957205C
:1020800010F092FE10F060FE641E0BF1400BA4B243
:10209000002CE9D10AF056FB054614280ED0162D67
:1020A00009D0FFF7ADFF0AF1010000F0FF0ABAF115
:1020B000030FC2D1284605B0BDE8F08F1420FAE71F
:1020C0000146362000F017B910B508B100F040F90C
:1020D000BDE81040342000F01BB970B5054600F093
:1020E00021F904000DD00146284600F021F84128CE
:1020F00007D0142803D0422800D1B32070BD43205C
:1021000070BD2819BDE87040FFF7DEBF10B504466A
:1021100000F01EF920785C2801D02F2803D100217F
:10212000642000F08CF9BDE81040322000F0F0B8D7
:1021300070B5054600200E46012401E0641CE4B29F
:10214000295D5C2913D02F2911D00029F6D1002454
:102150002844FFF7DBFF002C08D0B44206D041280A
:102160000AD0142806D0422800D1B32070BD641CC8
:10217000E4B2EDE7432070BD2046E1E7FF21FFF721
:10218000D7BF2B2000F054B8682000F045B810B538
:10219000222010F009FE10F000FE044610F0D4FDDD
:1021A000204610BD04480178012901D00020704765
:1021B0000021017001207047380000202DE9F04116
:1021C00010F0EBFD064610F0E8FD054610F0E5FDC9
:1021D000044610F0E2FD074610F0B6FD46EA052081
:1021E00040EA044040EA0760BDE8F08170B505466A
:1021F000272010F0D9FD10F0D0FD0400264607D0AE
:1022000010F0CBFD641E05F8010B14F0FF04F7D1AC
:1022100010F09AFD304670BD10B504460C2010F049
:10222000C3FD204610F0CBFDBDE81040FFF7C6BF50
:1022300010B504460A2010F0B7FD204610F0BFFD8F
:1022400010F0ABFD044610F07FFD204610BD10B528
:1022500004464A2010F0A8FDE0B210F0B0FDC4F32F
:10226000072010F0ACFDC4F3074010F0A8FD0020DB
:1022700010F0A5FD10F068FDBDE810400AF062BA4C
:102280002DE9F04115000F46804601D0002028704E
:102290004C2010F089FD384610F091FD10F054FDEF
:1022A0000AF050FA0646142823D1272010F07CFDAE
:1022B00010F073FD10F071FD044610F06EFD10F08B
:1022C0006CFD10F06AFDFFF779FF014684B12246EC
:1022D0004046FFF7A3FE064614280AD108EB44281F
:1022E00015B1287820442870381B10F0FF07CFD193
:1022F0003046BDE8F08110B50C4610F055FD204683
:1023000010F05DFD10F020FDBDE810400AF01ABA93
:1023100010B510F049FD10F017FDBDE810400AF0AF
:1023200011BA0000014600E0491C0A78002AFBD1DE
:1023300006E000BF11F8012D5C2A03D02F2A01D03E
:102340008142F7D1814200D0491C081AC0B27047BF
:1023500070B50546012010F027FD10F01EFD432842
:1023600028D22B20FFF764FF102823D22F2010F053
:102370001BFD002010F023FD3220FFF7C9FF1428B9
:1023800018D1CF20FFF754FF040013D04C20FFF7E3
:1023900043FF00EB04214C2000F051F85020FFF7E0
:1023A0003BFF00EB0421502000F049F80021702091
:1023B00000F045F82F2010F0F7FC2C7806E000BF65
:1023C00015F8014F5C2C0AD02F2C08D0204610F0B5
:1023D000F6FC002CF4D1BDE8704010F0B5BC002034
:1023E00010F0EDFCF7E770B505460C462C2010F018
:1023F000DBFC204610F0E3FC3CB1287810F0DFFC59
:102400006D1C641E14F0FF04F7D1BDE8704010F09D
:102410009BBC70B505462D2010F0C6FC10F0BDFC2D
:102420000400264607D0287810F0C9FC6D1C641EF5
:1024300014F0FF04F7D110F087FC304670BD70B582
:1024400005460C460D2010F0AFFC284610F0B7FCF6
:10245000E0B210F0B4FCC4F3072010F0B0FCC4F3F9
:10246000074010F0ACFC200E10F0A9FCBDE8704055
:1024700010F06ABC01200BF0ABBB10B502F0C8FD38
:1024800007F094F8BDE81040FFF7F4BF10B504461C
:10249000012150200BF028FCC8B100200BF0BCFB40
:1024A000207000200BF0B8FB607000200BF0B4FB34
:1024B000A07001200BF0B0FBE0700BF04FFC00218E
:1024C00050200BF011FC0BF049FC012010BD0BF06B
:1024D00045FC002010BDF8B50D4606460BF08EFBFE
:1024E0006846FFF7D3FF040011D09DF801009DF866
:1024F000001000EB0120C0F30D0030809DF80300B8
:102500009DF8021000EB0120C0F38D0028800BF035
:102510007DFB2046F8BD000030B50E480E4C002370
:102520000078042234F81010401CC0B20D46052873
:1025300000D3002034F810104D1BADB2521E2B44B6
:1025400012F0FF02F0D1C3F38F004FF4FA71484349
:1025500030BD000000000020EC01002010B5044652
:10256000124911F0C7F8124910F00EFF214611F080
:10257000C1F8104910F008FF214611F0BBF80E49D0
:1025800010F002FF214611F0B5F80C4910F0FCFEE6
:10259000214611F0AFF80A4910F0F6FE214611F07D
:1025A000A9F8BDE81040074910F0EEBE92EBD72C19
:1025B000EEC70B310DBDA2343E5ADE37774BBB3A26
:1025C00045B8353D145C1C3F2DE9F04706461A4FCF
:1025D0000898984691468A46002540B10CF08EF93D
:1025E00004461649884504DA3046BDE8F0873C4683
:1025F000F7E7134890F8330018B15046FFF7AEFFE5
:1026000005464946404610F0BFFE294611F002FA41
:10261000214611F06FF804463946504610F0B4FEDA
:10262000084911F067F8314611F064F82146BDE819
:10263000F04710F01DBF0000339388436F12833AB8
:102640001C49002066A6CA422DE9F0411F4690466B
:102650000C4606460CF052F905460F49204610F08C
:1026600093FE0E4911F046F804464146384610F0F4
:102670008BFE294611F03EF8214610F0F9FE314656
:1026800011F038F80649884202DA0020BDE8F081EE
:10269000BDE8F04110F0ADB83393884366A6CA4256
:1026A0006F12833A2DE9FF4F87B090460F461D46C3
:1026B000182220496846FEF7E0F80026012440F27F
:1026C000013B40F2035A40F2056900BF0BF05AFB90
:1026D000684602F07BFF58F8251017A35A460A20D7
:1026E00007F0B6FD37F8151000235246484607F0AC
:1026F00067FE2146684602F085FF0446012807D0A0
:10270000022C0ED0002CE1D10BB03046BDE8F08F8A
:102710002B4642463946079800F010F807E001269C
:10272000D4E707EB45015246484602F005F8002879
:10273000CCD0F4E7D47501084C2F6D002DE9FF4F84
:102740008FB00020069092481F460E46848831F8CC
:10275000175008880C90B1F802B0B1F804A0B1F895
:1027600006904FF0010852F827008A4910F0C2FF86
:102770004FF07C5110F008FE10F03CFF84490F9A96
:1027800001EB42010891888201210F9805F0A2FA1D
:102790000BF0F8FA80A1002002F0E8FEF580B58089
:1027A000758035800F980CF0BDF800907DA1002059
:1027B00002F0DCFE002340F2035229460A2007F013
:1027C000FFFD7BA14FF4407002F0D0FE7AA340F2EF
:1027D000036240F20530009907F03AFD77A14FF40B
:1027E000C06002F0C3FE0F9805F05EFA014640F2A9
:1027F000056007F013FE64200CF0E8F80028D1D043
:102800000BF032FF11285BD008DC01281AD0042815
:1028100073D0092872D0102813D106E021286ED079
:10282000402808D041280CD16AE042F20F7085425E
:1028300005D26D1C02E0632D01D96D1EADB20120E1
:1028400006908EE008986421808A4843079004210E
:102850004FF4407002F080FE40F2036207A940F29C
:10286000053001F077FF00287BD001200690079803
:1028700010F0F8FE019095B1284610F047FC514A3F
:10288000514B10F057FC05460391009810F050FD95
:102890002A46039B10F0E2FA10F0AEFA02E04B4930
:1028A00010F0E6FD014610F0FF4F06D0019810F041
:1028B000DFFD10F09FFE85B253E04FF47A7550E0D3
:1028C00040F60200844201D2641CA4B264211120AB
:1028D0000EF0CEFE50B138E0641CA4B2204610F0D9
:1028E000C1FE3B4910F006FF01F0C4FC032111209A
:1028F0000EF0BEFE0028EFD027E036E01BE020E01F
:10290000C82C01D9641EA4B2642141200EF0B0FE8F
:1029100050B11AE0641EA4B2204610F0A3FE2C4968
:1029200010F0E8FE01F0A6FC012141200EF0A0FE0F
:102930000028EFD009E040F29E70844205D2643452
:1029400002E0DC2C01D9143CA4B2204610F08AFE2F
:102950001F4910F0CFFE01F08DFC0D48848000F07F
:1029600033FFB8F1000F7FF419AF00210F9805F085
:10297000B1F90C983080A6F802B0A6F804A0A6F829
:10298000069026F81750069813B0BDE8F08F0000A7
:102990001C49002000002041B5F7CAD4C1F7C1BFCF
:1029A00000000000C1F7C1BFB1B6C2CA3A000000C2
:1029B000C1F7C1BF3A0000004C2F6D00CAE4B3F666
:1029C0003A000000FCA9F1D24D62503F00007A4469
:1029D0000AD7233C2DE9F04F89B0834620223A499B
:1029E0006846FDF74AFF3949002001EBCB07012477
:1029F0003C3740F203560890BBF1010F05D0BBF104
:102A0000020F02D040F2015A00E0B246304940F2D3
:102A1000052801EB4B0540F2056900BF0BF0B2F948
:102A2000684602F0D3FD5946092007F023FEA98A23
:102A300028A35246404607F0C3FC3988002332469B
:102A4000484607F0BDFC2146684602F0DBFD040065
:102A50000FD0012C24D0022C2DD0032CE7D13246EC
:102A60003946484601F068FE0028E0D00120089071
:102A7000DDE7089800280AD0232117A003F06EFB99
:102A8000062807D0072808D00124002CC6D109B099
:102A9000BDE8F08F00F0BCFAF9E700F04FFAF4E778
:102AA00005F114015246404601F046FE0028BED012
:102AB00000F08AFEBBE73946584600F015F80028BA
:102AC000ACD001200890A9E7B4750108A8480020FF
:102AD0001C4900204C2F6D00B1A3B4E6B1EAB6A8A2
:102AE000CAFDBEDD203F00002DE9FF5F80460020CB
:102AF0000646029082460190CB480D464FF0000BEF
:102B000084885FEA080040F2035705D0012853D0BB
:102B1000B8F1020F04D14FE040F2015A0FF20C3B22
:102B20000BF030F90121404605F0D4F840460BF097
:102B3000F9FE8146B8F1000F40D0BDA10020CDF8CC
:102B4000009002F013FD2988002340F203520A206E
:102B500007F036FCB9A14FF4407002F007FD5B4668
:102B60005246494640F2053007F072FBB5A14FF4DA
:102B7000C06002F0FBFC404605F096F8014640F2CA
:102B8000056007F04BFC64200BF020FF0028CDD03F
:102B90000BF06AFD11287DD041DC012857D00428B4
:102BA00079D0092878D01028C0D1288842F20F7136
:102BB00088424AD2401C47E0BA46AFE70BF066FDB8
:102BC00007460BF067FE00210A46009101463B468E
:102BD0004846FFF7F9FC0746009095A1002002F057
:102BE000C5FC2988002340F203520A2007F0E8FBC5
:102BF00096A14FF4007002F0B9FC5B46524639468C
:102C000040F2052007F024FB8CA14FF4806002F015
:102C1000ADFC5B465246494640F20540A4E72128F8
:102C20007DD040280CD0412880D1C82C01D9641E09
:102C3000A4B2642141200EF01BFD002871D0DBE01E
:102C40002888632801D9401E288001266EE776482F
:102C5000B8F1000F00EB48004FF00401808A0190AA
:102C600033D04FF4407002F077FC40F2035201A9D8
:102C700040F2053001F06EFD0028E7D001260198F2
:102C800010F0F0FC10F054FB724F734B3A4610F00A
:102C900051FA02E074E0BEE0A4E010F0ADF8814625
:102CA0002888E8B310F032FA3A466B4B10F042FA3B
:102CB00007460391009810F03BFB3A46039B10F047
:102CC000CDF810F099F8074649E04FF4007002F093
:102CD00043FC40F2015201A940F2052001F03AFD07
:102CE0000028B3D00126019810F0BCFC10F020FBA6
:102CF0005A4A5B4B10F01EFA10F07EF88146288885
:102D0000B0B110F003FA534A534B10F013FA0746D0
:102D10000391009810F00CFB3A46039B02E067E039
:102D20001CE057E010F09AF810F066F8074600E053
:102D30004F4617F0FF4F09D04A49484610F0DAFCD9
:102D4000394610F095FB10F055FC01E04FF47A7015
:102D5000288040460BF0E6FD81462FE74F4617F0EE
:102D6000FF4F09D03F49484610F0C4FC394610F0E7
:102D70007FFB10F03FFC01E04FF47A702880D5E62D
:102D800040F60200844201D2641CA4B264211120E6
:102D90000EF06EFC58B12FE0641CA4B2204610F077
:102DA00061FC394610F0A6FC01F064FA00E02E4FF9
:102DB000032111200EF05CFC0028EDD01CE0641E05
:102DC000A4B2204610F04EFC394610F093FC01F0FE
:102DD00051FA00E0244F012141200EF049FC002867
:102DE000EDD009E040F29E70844205D2643402E0E6
:102DF000DC2C01D9143CA4B2204610F033FC1A4953
:102E000010F078FC01F036FA0748848000F0DCFC12
:102E100002980028B3D00021404604F05BFF04B0C4
:102E20003046BDE8F09F00001C4900204C2F6D008B
:102E3000C1F7C1BFB1B6C2CA3A000000B1EABFF6DD
:102E40003A000000CAE4B3F63A000000B9A4BFF6A5
:102E50003A000000FCA9F1D24D62503F9A9999992D
:102E60009999B93F00007A440AD7233C2DE9F047ED
:102E70002A49804601EB0800294990F82460012482
:102E800001EBC800002500F13C0A012E15D0022EEE
:102E900042D1244FDFF890900AF074FF384602F0D8
:102EA00095FB2146384602F0ADFB0446052831D299
:102EB000DFE800F006181E282C001A4F283FE9E72B
:102EC000002D29D0232119A003F048F9062805D0A8
:102ED000072821D1BDE8F04700F030B8BDE8F04741
:102EE00000F096B809EB0612002304E00125D3E7B1
:102EF00009EB0612012351464046FFF7D3FB002899
:102F0000CAD0F3E709EB06120223F4E709EB061235
:102F10000323F0E7002CBFD1BDE8F0871C49002057
:102F2000A848002014760108CC740108B1A3B4E6C7
:102F3000B1EAB6A8CAFDBEDD203F000010B50622EA
:102F400031494FF4807001F0CBFD2F4845F6A521A3
:102F50004FF47A7482888A4203D0E200028044806F
:102F6000818072222949802001F0BAFD274845F668
:102F7000A422B0F87010914244D046F6B321A0F8D4
:102F80006410A0F86810A0F86C10A0F86640A0F8D3
:102F90006A40A0F86E4041818181C18101824182F5
:102FA000048544858485C48504864FF400410180EE
:102FB00041808180C18001818182C18201834183FE
:102FC0008183C483048444848484C4844486848642
:102FD000C486048744878487A0F84440A0F84C4006
:102FE000A0F85440A0F85640A0F85840A0F85A4025
:102FF000A0F85C40A0F85E40A0F86040A0F86240F5
:10300000A0F8702010BD0000B0010020A8480020EA
:1030100010B5062205494FF4807001F071FD72224F
:10302000BDE810400249802001F06ABDB0010020D7
:10303000A848002010B50AF0A5FE05A1002002F066
:1030400095FA0221BDE81040012002F025B80000E9
:10305000C8D5BEF920D7D4B6AFB5F7C1E30000009C
:1030600010B50AF08FFE05A1002002F07FFA0421BE
:10307000BDE81040032002F00FB80000CAB1BEF94D
:1030800020D7D4B6AFB5F7C1E300000010B50AF001
:1030900079FE05A1002002F069FA0021BDE8104088
:1030A000084601F0F9BF0000B7DBB3BE20D7D4B6A5
:1030B000AFB5F7C1E30000002DE9F14F88B0182249
:1030C00078496846FDF7D9FB774808990125848837
:1030D00076484FF4A06900EB410606F1140732363A
:1030E000002040F2054A40F2035B40F205280690BA
:1030F00001E0079850B10AF045FE684602F066FA12
:103100000920089907F0B6FA0020079039880023B3
:103110004A46504607F054F9318800235A4640F297
:10312000056007F04DF92946684602F03FFA60A1B4
:103130004FF4007002F01AFA08980BF08DFB01466C
:103140005DA340F20262404607F082F819200BF0BE
:103150003DFC0028EBD02946684602F027FA0BF028
:1031600083FA11284AD008DC012819D004282FD06E
:1031700009287DD0102817D10CE021287ED04028C6
:1031800002D0412810D156E06D1CEDB2032D0BD3B7
:10319000012509E0012D00D803256D1EEDB203E0E5
:1031A000012D06D0022D08D0002DAFD109B0BDE809
:1031B000F08F4A463946504603E05A46314640F2BF
:1031C000056001F0B9FA0028A0D0012006909DE723
:1031D00006980028EAD0232138A002F0BFFF062875
:1031E00002D0072806D102E0FFF712FFDEE7FFF763
:1031F000A5FE0025002D7FF47BAFD7E740F6020047
:10320000844201D2641CA4B2642111200EF030FA71
:1032100050B137E0641CA4B2204610F023FA2B49C9
:1032200010F068FA01F026F8032111200EF020FAC0
:103230000028EFD026E0C82C01D9641EA4B2642176
:1032400041200EF015FA50B11CE0641EA4B22046D5
:1032500010F008FA1D4910F04DFA01F00BF80121A9
:1032600041200EF005FA0028EFD00BE000E005E069
:1032700040F29E70844205D2643402E0DC2C01D915
:10328000143CA4B2204610F0EDF9104910F032FAC7
:1032900000F0F0FF0448848000F096FA002D7FF4DF
:1032A00028AF83E7847501081C490020A848002046
:1032B000BCC6D1B93A0000006B506100B1A3B4E6BE
:1032C000B1EAB6A8CAFDBEDD203F00000AD7233C04
:1032D0002DE9F14F724882B0012584887148029926
:1032E0004FF4007B00EB410606F10A070020283668
:1032F00040F2052940F2026840F2035ACDF800007E
:103300000AF040FD2946684802F050F9664802F08C
:103310005DF90920029907F0ADF93988002342468A
:1033200040F2054007F04CF831880023524640F245
:10333000056007F045F829465B4802F037F95BA1C4
:10334000584602F013F902980BF0A6FA014659A369
:103350004246484606F07CFF19200BF037FB002858
:10336000EDD00BF081F9112845D008DC012819D0E7
:1033700004282CD0092878D010280CD10CE0212862
:1033800079D0402802D0412805D151E06D1CEDB222
:10339000032D00D301257EE0012D00D803256D1EED
:1033A000EDB278E0012D02D0022D74D104E0424646
:1033B000394640F2054003E05246314640F205608E
:1033C00001F0BAF900289BD00120009098E70098FE
:1033D000002862D0232138A002F0C0FE062802D0C7
:1033E000072858D103E0BDE8FE4FFFF711BEFFF7F5
:1033F000A5FD00254FE040F60200844201D2641C86
:10340000A4B2642111200EF033F950B137E0641CEE
:10341000A4B2204610F026F92B4910F06BF900F009
:1034200029FF032111200EF023F90028EFD026E018
:10343000C82C01D9641EA4B2642141200EF018F9F1
:1034400050B11CE0641EA4B2204610F00BF91E49D6
:1034500010F050F900F00EFF012141200EF008F9A4
:103460000028EFD00BE000E005E040F29E708442BF
:1034700005D2643402E0DC2C01D9143CA4B220460D
:1034800010F0F0F8104910F035F900F0F3FE0448A0
:10349000848000F099F9002D98D1BDE8FE8F0000DE
:1034A0001C490020A84800206C750108CEC2B6C88F
:1034B0003A000000A1E60000B1A3B4E6B1EAB6A864
:1034C000CAFDBEDD203F00000AD7233C2DE9F14FA5
:1034D00088B0182278496846FDF7CFF977480899EF
:1034E0000125848876484FF4A06900EB410700204D
:1034F00007F11E0640F2054A40F2035B40F2052840
:10350000069001E0079850B10AF03CFC684602F0D2
:103510005DF80920089907F0ADF800200790398878
:1035200000234A46504606F04BFF318800235A4696
:1035300040F2056006F044FF2946684602F036F87E
:1035400060A14FF4007002F011F808980BF01EFA19
:1035500001465EA340F20362404606F079FE192060
:103560000BF034FA0028EBD02946684602F01EF82A
:103570000BF07AF811284AD008DC012819D0042869
:103580002FD009287DD0102817D10CE021287ED01B
:10359000402802D0412810D156E06D1CEDB2032D19
:1035A0000BD3012509E0012D00D803256D1EEDB2D6
:1035B00003E0012D06D0022D08D0002DAFD109B0B7
:1035C000BDE8F08F4A463946504603E05A46314638
:1035D00040F2056001F0B0F80028A0D0012006906C
:1035E0009DE706980028EAD0232139A002F0B6FD15
:1035F000062802D0072806D102E0FFF709FDDEE722
:10360000FFF79CFC0025002D7FF47BAFD7E740F649
:103610000200844201D2641CA4B2642111200EF085
:1036200027F850B137E0641CA4B2204610F01AF815
:103630002B4910F05FF800F01DFE032111200EF061
:1036400017F80028EFD026E0C82C01D9641EA4B2D8
:10365000642141200EF00CF850B11CE0641EA4B2AD
:1036600020460FF0FFFF1E4910F044F800F002FE64
:10367000012141200DF0FCFF0028EFD00BE000E01D
:1036800005E040F29E70844205D2643402E0DC2CF6
:1036900001D9143CA4B220460FF0E4FF104910F009
:1036A00029F800F0E7FD0548848000F08DF8002D32
:1036B0007FF428AF83E700009C7501081C490020B7
:1036C000A8480020B2EED1B93A0000006B5061006A
:1036D000B1A3B4E6B1EAB6A8CAFDBEDD203F000042
:1036E0000AD7233C70B5442207494FF4C07001F05B
:1036F000F7F9054C054DA08E6968884203D000F0AB
:1037000007F8A888A08670BD1C490020880000200A
:1037100030B500F039F8054C054DA08E2968884277
:1037200003D000F007F82888A08630BD1C4900208F
:103730008C00002012484FF49671F0228181002104
:103740008173417242810122C2738270C17002741E
:1037500042F2957343824FF4FA638380322383717C
:103760000223C3714FF47A738385C3856423038670
:1037700080F833100349016480F83C207047000052
:103780001C490020D9AB09000E4801214FF47A7280
:1037900000F8141C0174028000224274C823438084
:1037A00082748380C1740523C380017503814275CF
:1037B0004FF4FA7141818381C381022100F80C1C0E
:1037C0008277704730490020442202494FF4C0708C
:1037D00001F096B91C4900202DE9F05F0025394C15
:1037E0002E4640F2015740F207384FF4AF6A40F2DC
:1037F00007594FF4FA6B00BF0AF0C4FA324801F0DF
:10380000E5FEA18A31A33A46404606F0D9FD618D16
:1038100031B130A340F20252484606F0D1FD03E038
:103820002EA1484601F0A2FE6D1CE9B2264801F027
:10383000E9FE05001AD0012D2ED0022DE1D1618DB7
:1038400024A340F20252484606F0BAFD1D4940F258
:1038500002522A31484600F06FFF0028D1D0618D16
:10386000594501D9A4F82AB00126CAE7002E27D06D
:1038700023211DA002F072FC02280BD0062805D0DF
:1038800007281DD1BDE8F05FFFF72CBFBDE8F05F52
:10389000FFF79ABF0125AFE70A493A46143140467F
:1038A00000F04AFF0028ACD0A08A504502D9A4F805
:1038B00014A0D9E74FF416718842D5D2A182D3E77C
:1038C000BDE8F09F1C4900206C790108204C2F6D49
:1038D00000000000206B506100000000205BCDA3C1
:1038E000D3C35D2020000000B1A3B4E6D0DEB8C48D
:1038F000BDE1B9FB203F00002DE9F05F0025344C0D
:103900002F4640F2063840F2035640F206594FF473
:10391000967A4FF0640B00BF0AF034FA2D4801F09C
:1039200055FEE18A2CA33246404606F049FD218B24
:1039300029A33246484606F043FD6D1CE9B22548EE
:1039400001F060FE050011D0012D25D0022DE8D137
:103950001F4932461831484600F0EEFE0028E0D0FC
:10396000218B51452BD9A4F818A02CE0002F2CD086
:1039700023211BA002F0F2FB02280BD0062805D061
:10398000072822D1BDE8F05FFFF7ACBEBDE8F05FCD
:10399000FFF71ABF0125BFE70D49324616314046F1
:1039A00000F0CAFE0028BCD0E18A514502D9A4F833
:1039B00016A008E0642906D2A4F816B003E0642932
:1039C00001D2A4F818B00127ABE7BDE8F09F0000D2
:1039D0001C49002044790108204C2F6D0000000094
:1039E000B1A3B4E6D0DEB8C4BDE1B9FB203F00000E
:1039F0002DE9F05F0025424C2F4640F2015940F27C
:103A0000062840F2064B40F2035640F2066A00BF19
:103A10000AF0B8F93B4801F0D9FDA18A3AA34A4619
:103A2000404606F0CDFCE18A37A33246584606F000
:103A3000C7FC218B34A33246504606F0C1FC6D1CF6
:103A4000E9B2304801F0DEFD050014D0012D28D088
:103A5000022D39D0032DE0D1294932461831504684
:103A600000F06AFE0028D8D0208B4FF4967188426F
:103A70003ED9218340E0002F40D0232124A002F032
:103A80006DFB02280BD0062805D0072836D1BDE8EB
:103A9000F05FFFF727BEBDE8F05FFFF795BE012599
:103AA000B6E717494A461431404600F045FE002863
:103AB000B3D0A08A4FF4AF61884203D84FF4167197
:103AC000884219D2A18217E00D4932461631584674
:103AD00000F032FE0028A0D0E08A4FF496718842B0
:103AE00001D9E18208E0642806D26420E08203E084
:103AF000642801D26420208301278EE7BDE8F09F6F
:103B00001C49002084790108204C2F6D0000000022
:103B1000B1A3B4E6D0DEB8C4BDE1B9FB203F0000DC
:103B20002DE9F84FDFF8E8B0012500269BF80940A1
:103B3000BBF80A00ADF8000040F2015740F2095806
:103B4000DFF8D09040F2093A0AF01CF931481830F9
:103B500001F03CFD04EB440109EB4101504601F04A
:103B600005FD2DA33A46BDF80010404606F028FC9E
:103B700028482946183001F045FD050023D0012DC5
:103B80001DD0022DE6D13A466946404600F0D4FDEC
:103B90000028DFD0BDF80000962804D29620ADF8AA
:103BA000000009F0FEFFBDF800104FF4967081424E
:103BB00003D9ADF8000009F0F4FF0126CAE7641C40
:103BC00004F00304F9E7002E0BD0232113A002F028
:103BD000C5FA02281AD0062805D0072801D1FFF718
:103BE00081FDBDE8F88F8BF80940BDF800005D4607
:103BF000ABF80A00FFF7E8FD68890FF033FD0B49C9
:103C00000FF078FD697A0EF05FFBEAE701259BE78C
:103C10001C490020A4780108A1E60000B1A3B4E685
:103C2000C5E4D6C3CAFDBEDD203F0000CDCCCC3DEF
:103C30002DE9F84FDFF804B10125414F9BF80E4004
:103C4000BBF80C00ADF80000002640F2015940F22C
:103C5000096A40F2093800BF0AF094F86CB138489C
:103C600010F1800001F0B2FC57F82410404601F03A
:103C70007DFC012C04D09CB309E031489830F1E779
:103C800030A34A46BDF80010504606F099FB2C4878
:103C90002946803001F0B6FC05002BD0012D24D040
:103CA000022DE1D1012CD7D14A466946504600F099
:103CB00043FD0028D0D0BDF80000962804D29620FD
:103CC000ADF8000009F06DFFBDF800104FF4AF70C3
:103CD000814203D9ADF8000009F063FF0126BBE77C
:103CE000FFE7174829469830D4E70CB10024F5E7E0
:103CF0000124F3E7002E0BD0232113A002F02EFAAB
:103D0000022819D0062805D0072801D1FFF7EAFCC0
:103D1000BDE8F88FBDF80000ABF80C005D468BF8ED
:103D20000E40FFF751FDA8890FF09CFC0A490FF0E7
:103D3000E1FC0EF0DDFAEBE701258DE71C490020E0
:103D400054780108A1E60000B1A3B4E6C5E4D6C3E7
:103D5000CAFDBEDD203F0000CDCCCC3D2DE9F047B3
:103D6000012500260AF00EF81C4F4FF480694FF031
:103D700000081B4C0AF006F81848183001F026FC21
:103D8000607857F82010484601F0F0FB13482946A8
:103D9000183001F037FC054601280DD0002DE9D17F
:103DA000002E19D004210FA002F0D8F906280FD058
:103DB000BDE8F047FFF796BC09F0E4FF6078401CCF
:103DC000C0B26070062801D384F801800126D1E7D3
:103DD000BDE8F047FFF7F8BCBDE8F087F4720108D2
:103DE0001C490020B1A3B4E6C5E4D6C33F000000DF
:103DF0002DE9F047012500261B4F1C4C40F20549D8
:103E0000B04600BF09F0BEFF1748383001F0DEFBB6
:103E1000207857F82010484601F0A8FB12482946A0
:103E2000383001F0EFFB054601280DD0002DE9D117
:103E3000002E17D004210EA002F090F906280DD014
:103E4000BDE8F047FFF74EBC20780126401CC0B209
:103E500020700428D6D384F80080D3E7BDE8F0476B
:103E6000FFF7B2BCBDE8F087E47201081C490020EE
:103E7000B1A3B4E6C5E4D6C33F0000002DE9F04786
:103E80000025284C2F4640F2025840F207364FF4E6
:103E9000FA6900BF09F076FF234801F097FB618DB6
:103EA00029B122A34246304606F08AFA03E021A156
:103EB000304601F05BFB6D1CE9B21B4801F0A2FB30
:103EC000050016D0012DEAD1618D18A34246304677
:103ED00006F076FA134942462A31304600F02CFCAF
:103EE0000028DCD0618D494501D9A4F82A9001272A
:103EF000D5E7002F13D0232111A002F02FF90228BB
:103F00000BD0062805D0072809D1BDE8F047FFF7F8
:103F1000E9BBBDE8F047FFF757BC0125BAE7BDE8AC
:103F2000F08700001C4900205C790108206B50617B
:103F300000000000205BCDA3D3C35D202000000063
:103F4000B1A3B4E6D0DEB8C4BDE1B9FB203F0000A8
:103F50002DE9FF5F9548DFF858820125D0E900126E
:103F6000CDE90212D0E90210CDE900100DF1080BE5
:103F7000A8F107064FF003090024FFF7B3FB8D48B3
:103F800090F8241061B1012902D0022905D101E085
:103F9000002100E0012188F8001000213170012487
:103FA00090F8251069B1012902D0022906D103E059
:103FB000022108F8041001E008F8049001213155AD
:103FC000641C90F8261069B1012902D0022906D19B
:103FD00003E0022208F8042001E008F8049002211E
:103FE0003155641C90F8271069B1012902D00229CB
:103FF00006D103E0022208F8042001E008F804904A
:1040000006F80490641C90F8281069B1012902D0C8
:10401000022906D103E0022108F8041001E008F8A3
:10402000049004213155641C90F8291061B10129D4
:1040300002D0022905D101E0042200E0052208F89F
:10404000042005213155641C007A90B1012808D064
:10405000022802D0032809D105E0062008F8040050
:1040600004E0072100E0082108F80410062030557C
:10407000641C022D2AD0032D4DD009F083FE0027A9
:10408000A7421ED2032C01D84BA100E04EA1002074
:1040900001F06CFAB7FBF9F109FB117A4349F25DC3
:1040A00010313BF81A0051F8221001F05FFA3F4935
:1040B00018F807202C313DF81A0051F8221001F0B1
:1040C00055FA7F1CFFB2032FDAD348E009F05AFEFD
:1040D000032741A1002001F049FAA74216D2B7FBFD
:1040E000F9F109FB117A3149F25D10313BF81A0000
:1040F00051F8221001F03AFA2C4918F807202C3117
:104100003DF81A0051F8221001F030FA7F1CFFB27E
:10411000062FDED323E009F035FE062732A100206A
:1041200001F024FAA74216D2B7FBF9F109FB117A84
:104130001E49F25D10313BF81A0051F8221001F0CF
:1041400015FA1A4918F807202C313DF81A0051F8D1
:10415000221001F00BFA7F1CFFB2092FDED3A41C42
:10416000B4FBF9F0C4B20AF07FFA082818D007DCD3
:10417000012803D0022810D004280ED1BDE8FF9FEB
:10418000102804D0202802D0402806D108E06D1E57
:1041900015F0FF057FF4F0AE2546002DFAD1EDE7CE
:1041A0006D1CEDB2A542F8D90125E5E6E47A0108D7
:1041B000BD0100201C490020B1C3B0B2D7B0C7E98F
:1041C000BFF6202000000000B1C3B0B2D7B0C7E9ED
:1041D000BFF6203100000000B1C3B0B2D7B0C7E9CC
:1041E000BFF6203200000000B1C3B0B2D7B0C7E9BB
:1041F000BFF62033000000002DE9FF5F00249B463E
:1042000091468A46264625463AF814000FF02AFAC7
:1042100017490FF06FFAB04659F8246001462F464F
:1042200030460FF025F90546014600980FF02EFBA9
:1042300003D2641CE4B25C45E6D3394628460FF04D
:10424000E9FB0446414630460FF0E4FB21460FF0FF
:104250000FF90446394600980FF0DCFB21460FF0B9
:1042600049FA04B04146BDE8F05F0FF08DB8000098
:104270006F12833A02490A78012A00D148607047D8
:104280002800002001494870FDF7E8BC2800002004
:104290000A4980B1012806D0022807D0032808D097
:1042A0004FF0FF3007E043F6982004E047F230502B
:1042B00001E04EF6602048607047000008000020D2
:1042C00010B506F0C8FC074928B101200870BDE808
:1042D000104006F033BC00200870BDE8104001F02B
:1042E0008BBF000028000020C0B2202800D27F2011
:1042F000024901EB0010A0F500707047FC3B01087B
:1043000070B5C0B2104C60F31F21012340F23F1280
:104310009818400804EB400514F810606D7805EB20
:104320000625ADB2A94203D1084901EB401070BD8A
:1043300003D900F1010083B202E0A0F1010082B2D2
:104340009342E5D9014870BDFC4101087C44010855
:1043500070B50C46064615460021A02009F0C4FCA5
:1043600060B1300A09F08EFC40B1F0B209F08AFC6D
:1043700020B10121A02009F0B7FC48B909F0EEFCFA
:10438000002070BD002009F047FCC04304F8010B79
:104390006D1E15F0FF05F5D1012009F03DFCC0436D
:1043A000207009F0DBFC012070BD000070B50C46E8
:1043B000064615460021A02009F096FC08B3300AF5
:1043C00009F060FCE8B1F0B209F05CFCC8B100BFD4
:1043D00014F8010BC043C0B209F054FC88B16D1E43
:1043E00015F0FF05F4D109F0B9FCA0254FF4C8740D
:1043F0000021284609F078FC30B109F0AFFC01201B
:1044000070BD09F0ABFC03E0641E2404240CEFD162
:10441000002070BD10B500F0F1FF10BD0349012070
:10442000087003494003086070470000380000200E
:104430001404014010B500F0E1FF10BD10B500F00C
:10444000DDFF10BD10B500F0D9FF10BD10B500F0B4
:10445000D5FF10BD10B500F0D1FF10BD2DE9F34F11
:10446000DFF86C9191B00126B9F8048001A9129887
:10447000FCF750FB06984FF4FA6B00F26C7084B2B4
:10448000059840F6330A401CC5B20498C7B22B46C3
:10449000224650A10CA80097FBF79CFF0CA911988D
:1044A00001F064F8012E04D0022E05D0032E08D1AD
:1044B0001BE00421119802E01198401D17E001F063
:1044C0004BF80AF0D1F810282AD013DC01285BD071
:1044D000042868D008284BD00928D8D140F29E7112
:1044E0004046884568D2643064E01198083080B254
:1044F0000221E4E7202841D0212856D04028C6D107
:10450000012E29D0022E2DD0032EC0D17F1E17F0F0
:10451000FF07BCD12946204609F03EFC0746B6E716
:10452000012E0DD0022E11D0032EB0D129462046E7
:1045300009F032FC7F1CFFB2B842A8D20127A6E7DF
:10454000641CA4B25445A2D95C46A0E76D1CEDB230
:104550000C2D9CD901259AE7641EA4B25C4596D225
:10456000544694E76D1E15F0FF0590D10C258EE79B
:10457000761CF6B2032E8AD9012688E7761E16F03D
:10458000FF0684D1032682E7A4F26C746D1E0497A3
:10459000CDE9055401A8FCF706FA1299086001203C
:1045A00013B0BDE8F08F0020FAE74046B8F1DC0F09
:1045B00002D9143880B280460FF054F809490FF040
:1045C00099F8FFF757FEA9F80480FFF7FDF85EE7BA
:1045D0001C490020253034752D253032752D2530AD
:1045E000327500000AD7233C2DE9F0474C4F89462D
:1045F00092B082460124BD8801A94846FCF78AFA98
:104600004FF018083C260198DDE90232009045A1E0
:104610000CA8FBF7DFFE0CA9504600F0A7FF012C09
:1046200004D0022C05D0032C08D11AE002215046F8
:1046300002E00AF1030016E000F08EFF0AF014F821
:10464000102827D012DC01284FD0042856D0082883
:104650003FD00928D7D140F29E70854254D26435AC
:1046600051E00AF1060080B20221E5E7202836D0A9
:10467000212845D04028C6D1012C1AD0022C20D0A8
:10468000032CC0D101983B30B0FBF6F106FB1100C2
:104690000190B8E7012C06D0022C07D0032CB2D130
:1046A0000198401CF0E70398401C04E00298401C6D
:1046B00009E003981730B0FBF8F208FB12000390F2
:1046C000A1E702983B30B0FBF6F106FB1100029027
:1046D00099E7641CE4B2032C95D9012493E7641E86
:1046E00014F0FF048FD103248DE701A8FCF75BF9D8
:1046F000C9F80000012012B0BDE8F0870020FAE7F9
:10470000DC2D01D9143DADB228460EF0ABFF0949AE
:104710000EF0F0FFFFF7AEFDBD80FFF755F872E732
:104720001C490020253032753A253032753A253043
:10473000327500000AD7233C38B50C460988009131
:10474000694600F007F8002802D000982080012078
:1047500038BD00002DE9F74F90B000251198904624
:1047600012F0FF070168714884884FEA12208146E1
:1047700001D0A9F10100C6B26D48A6EB070A50F8B6
:104780002600B1FBF0F200FB121B58460EF06AFF48
:104790006749283151F827100EF06AFE0EF0C8FD67
:1047A000CDE9000108F0FF034A4662A10AA8FBF721
:1047B00011FE0AA9109800F0D9FE1098AA452844C5
:1047C00000DC401C80B2012100F0C6FE681C009095
:1047D000864206D35648711B00EB810050F8040C4A
:1047E00000E00120019009F03FFF112857D01CDCA8
:1047F000082843D007DC01284CD00428C5D100206C
:1048000013B0BDE8F08F092879D01028BDD10199E7
:104810000A20BBFBF1F1B1FBF0F200FB12100928FA
:1048200015D001990BEB010020E020282AD0212887
:104830006BD040280ED04128A7D1C82C01D9641EC6
:10484000A4B2642141200CF013FFA0B361E00198F1
:1048500040420EE001990A20BBFBF1F1B1FBF0F2FE
:1048600000FB121020B10199ABEB010083468CE7ED
:10487000019800EBC00101EB0B00F7E70098B0FBDB
:10488000F6F103E0A819401E90FBF6F106FB1100BB
:10489000C5B27AE711990120C1F800B0B0E740F63F
:1048A0000200844201D2641CA4B2642111200CF0E5
:1048B000DFFE58B12DE01AE0641CA4B220460EF0D1
:1048C000D1FE1E490EF016FFFFF7D4FC0321112084
:1048D0000CF0CEFE0028EFD01BE0641EA4B22046F0
:1048E0000EF0C0FE15490EF005FFFFF7C3FC0121D5
:1048F00041200CF0BDFE0028EFD00AE0FFE740F2B7
:104900009E70844205D2643402E0DC2C01D9143C50
:10491000A4B220460EF0A6FE08490EF0EBFEFFF70B
:10492000A9FC02488480FEF74FFF2EE71C490020B7
:104930008C71010825302A2E2A6600000AD7233CF4
:104940002DE9F35F0A8888464FF03C0BB2FBFBF180
:104950004FF06409B1FBF9F45B4809FB14140BFB3D
:1049600011250027B0F804A0012600BFC4EB0410F5
:1049700005EB8001009805F05DFF012E06D0022EA8
:1049800007D0032E18D0042E08D118E0012100987A
:1049900002E00098401C14E000F0DEFD09F064FE27
:1049A000102818D010DC012865D004286BD0082806
:1049B00055D0092852D168E00098C01C01E0009849
:1049C000001D80B20121E7E720284ED0212863D0C6
:1049D000402874D110E0012E06D0022E06D0032EFE
:1049E00006D0042E6BD105E00A340FE0611C14E000
:1049F0000A3520E0691C25E0012E06D0022E0AD0DF
:104A0000032E17D0042E5AD11AE05A34B4FBF9F110
:104A100009FB1144AAE704F109010A20B1FBF0F2F5
:104A200000FB1211B4FBF0F000EB800001EB400042
:104A3000C4B29BE73235B5FBFBF10BFB115595E793
:104A400005F109010A20B1FBF0F200FB1211B5FBE0
:104A5000F0F000EB800001EB4000C5B22FE0761CC7
:104A6000F6B2042E2BD9012629E0761E16F0FF0699
:104A700025D1042623E0C4EB041005EB8001A8F83F
:104A8000001001271DE000271BE040F29E715046F8
:104A90008A4508D2643004E05046BAF1DC0F02D9EE
:104AA000143880B282460EF0DDFD08490EF022FE79
:104AB000FFF7E0FB0449A1F804A0FEF785FE002EF5
:104AC000A8D13846BDE8FC9F1C4900200AD7233CEA
:104AD000024945F63B200860704700008C0000202A
:104AE00070B514460D46064609F088F8E2B229462C
:104AF0003046FFF72DFC044609F088F8204670BDCB
:104B000070B514460D46064609F078F8E2B229461B
:104B10003046FFF74BFC044609F078F8204670BD9C
:104B200010B51BA0FDF730F910221B491BA0FDF7A3
:104B30004DF93022102119A0FDF79CF81BA0FDF7BC
:104B400023F9102214491BA0FDF740F9402210213F
:104B500018A0FDF78FF81BA0FDF716F910220E49DB
:104B60001AA0FDF733F97022102118A0FDF782F882
:104B70001AA0FDF709F9102207491AA0FDF726F936
:104B80007022BDE81040102116A0FDF773B8000098
:104B90005C53445F41495200240100205C53445F50
:104BA0004149525C4149522E545854005C53445F71
:104BB000545350005C53445F5453505C5453502E34
:104BC000545854005C53445F523234005C53445F89
:104BD0005232345C5232342E545854005C53445F89
:104BE000534849005C53445F5348495C5348492E3D
:104BF0005458540010B5ADF5007D4FF400742246B2
:104C000048496846FBF739FE47A1002000F0AEFC9A
:104C10000F23484A002148A0FDF77AF800286DD0FC
:104C20000F2244496846FBF78CFD20B122466946B5
:104C300041A0FDF7CBF845A1002000F097FC0F2321
:104C40003C4A002144A0FDF763F800285AD00F2207
:104C500038496846FBF775FD20B1224669463EA0FB
:104C6000FDF7B4F841A1002000F080FC0F23314A89
:104C7000002141A0FDF74CF8002847D00F222D4914
:104C80006846FBF75EFD20B1224669463AA0FDF773
:104C90009DF83EA1002000F069FC0F23254A002169
:104CA0003DA0FDF735F8002834D00F222149684691
:104CB000FBF747FD20B12246694637A0FDF786F88D
:104CC0003AA1002000F052FC0F231A4A00213BA019
:104CD000FDF71EF8002821D00F2216496846FBF781
:104CE00030FD20B12246694634A0FDF76FF838A1A7
:104CF000002000F03BFC0DF5007D10BD38A0FDF755
:104D000043F893E739A0FDF73FF8A6E73AA0FDF78F
:104D10003BF8B9E73BA0FDF737F8CCE73CA0FDF73F
:104D200033F8DFE78C6F01084C6F6164696E672EA2
:104D300000000000084700205C5553425F41495283
:104D40005C4149522E545854000000004C6F61647D
:104D5000696E672E2E0000005C5553425F5453501D
:104D60005C5453502E545854000000004C6F616442
:104D7000696E672E2E2E00005C5553425F5232340E
:104D80005C5232342E545854000000004C6F616461
:104D9000696E672E2E2E2E005C5553425F53484994
:104DA0005C5348492E545854000000004C6F616415
:104DB000696E672E2E2E2E2E000000005C55534289
:104DC0005F504F575C504F5745522E545854000077
:104DD0004C6F6164696E672E2E2E2E2E2E00000001
:104DE0005C5553425F414952000000005C555342FC
:104DF0005F545350000000005C5553425F52323400
:104E0000000000005C5553425F5348490000000019
:104E10005C5553425F504F570000000010B50C46E0
:104E200041011023224603A004F098FA002800D183
:104E3000206010BD5C53445F4149525C4149522E91
:104E40005458540010B50C4681014023224603A05B
:104E500004F084FA002800D1206010BD5C53445F48
:104E60005232345C5232342E5458540010B50C4631
:104E700081014023224603A004F070FA002800D1EB
:104E8000206010BD5C53445F5348495C5348492E31
:104E90005458540010B50C4600EB8000C100242388
:104EA000224603A004F05AFA002800D1206010BD69
:104EB0005C53445F5453505C5453502E5458540028
:104EC00070B50D46044664210748FBF708FD102223
:104ED00029460548FBF78CFC6101BDE870402023A2
:104EE000014A02A004F03CBAA04400205C53445F95
:104EF0004149525C4149522E5458540070B50D46F8
:104F0000044664210748FBF7EAFC4022294605488D
:104F1000FBF76EFCA101BDE870404023014A02A0EE
:104F200004F01EBAA04400205C53445F5232345C4B
:104F30005232342E5458540070B50D460446642144
:104F40000748FBF7CCFC402229460548FBF750FCFC
:104F5000A101BDE870404023014A02A004F000BA5C
:104F6000A04400205C53445F5348495C5348492E99
:104F70005458540070B50D46044664210848FBF7A8
:104F8000AEFC242229460648FBF732FC04EB8400E1
:104F9000BDE87040C1002823014A02A004F0E0B936
:104FA000A04400205C53445F5453505C5453502E33
:104FB0005458540070B5144C144E2046217A457A4A
:104FC0004089012915D0022909D003291BD10EF0EF
:104FD00049FB31460EF08EFB29460DF075F9A0898C
:104FE0000EF040FB31460EF085FBBDE870400DF041
:104FF0007FB90EF037FB31460EF07CFB2946BDE849
:1050000070400DF061B970BD1C490020CDCCCC3D85
:105010001148816941F001018161104920204861F6
:105020000F48016821F400510160001F016821F45C
:105030005C4101600A49091D0A680A60091D0A6885
:1050400042F400520A60064A4114103211600168AD
:1050500041F400510160704700100240000001401F
:105060000404014008B50020009008F08BFE07A161
:10507000002000F07BFA4FF4C062694640F2053030
:10508000FFF768FB002800D0009808BDCAE4C8EB11
:10509000C3DCC2EB3A0000002DE9F04F0746B048F0
:1050A000884699B0848805A91691AE480AA914913A
:1050B00000260FA9354600EB480A00EB4709159179
:1050C000B9F8261068462DF8161000EB4600BAF81D
:1050D00026108182B9F81A100185761CBAF81A10C8
:1050E000F6B281870A2E02D025B10A2103E00026FC
:1050F0000125FAE73146684608F044FDDFF868B25A
:105100002BF817000DB10A2100E03146169808F07F
:1051100039FD2BF818000DB10A2100E03146149832
:1051200008F030FD904901EB470BABF814000DB1CE
:105130000A2100E03146159808F024FD8A494745C8
:1051400001EB48011791888232D10DB10A2100E0AC
:105150003146684608F016FD0146834820F81710CE
:105160000DB10A2100E03146149808F00BFDABF8B0
:1051700014007EA140F2012000F0F8F9384609F051
:1051800005FC014640F2026B00235A4640F2014002
:1051900005F05EF877A140F2092000F0E7F9384603
:1051A00009F05AFB014600235A4640F2094063E0E9
:1051B0000DB10A2100E03146684608F0E3FC6A4977
:1051C00021F817000DB10A2100E03146169808F0C9
:1051D000D9FC0146644820F818100DB10A2100E0FE
:1051E0003146149808F0CEFCABF814000DB10A213A
:1051F00000E03146159808F0C5FC179988825BA13C
:1052000040F2012000F0B2F95CA14FF4806000F0A0
:10521000ADF95BA14FF4C06000F0A8F9384609F081
:10522000B5FB014640F2036B00235A4640F20240B0
:1052300005F00EF8404609F0A9FB5A46014640F237
:10524000026B0023584605F003F84AA140F20920FA
:1052500000F08CF9384609F0FFFA014600235A465F
:1052600040F2094004F0F4FF404609F0F5FA014627
:1052700000235A4640F2096004F0EAFF282009F0B2
:10528000A5FB00283FF41CAF09F0EEF9112820D04F
:105290000CDC012818D0042816D009287FF410AFA0
:1052A00040F29E7084424DD264344AE0212845D0B9
:1052B0004128F3D1C82C01D9641EA4B26421412035
:1052C0000CF0D6F980B33DE0FDF7A2FE19B0BDE8C1
:1052D000F08F40F60200844201D2641CA4B2642123
:1052E00011200CF0C5F958B12CE0641CA4B2204682
:1052F0000EF0B8F959460EF0FDF9FEF7BBFF01E0DC
:10530000DFF880B0032111200CF0B2F90028ECD0B6
:1053100018E0641EA4B220460EF0A4F959460EF01F
:10532000E9F9FEF7A7FF02E0FFE7DFF858B0012137
:1053300041200CF09DF90028EBD003E0DC2C01D9D2
:10534000143CA4B220460EF08DF90E490EF0D2F9AD
:10535000FEF790FF02488480FEF736FAB0E60000C0
:105360001C49002062450020A8480020C1F7C1BFA9
:105370003A000000BCC6D1B93A000000433A000030
:10538000443A00000AD7233C0449FF200860034840
:10539000143801686FF3090101607047140401407B
:1053A0001348816941F00101816112480121816046
:1053B0000021C160104801686FF309010160001FFE
:1053C000016821F4407101600B49091D0A6842F02F
:1053D000FF020A60091D0A6842F0FF020A60064ADD
:1053E000FF2110321160016841F0FD01016070473A
:1053F00000100240000001400404014010B5FFF716
:10540000C3FF0348C068BDE810400CF0A1B800001D
:105410000800002010B5002108480CF081F8084C65
:105420000021E0600548001D0CF07AF8A0600348F8
:105430000021BDE8104008300CF0B4B8E43B01088E
:10544000080000200F48816941F0040181618169F1
:1054500041F0080181610C49FC2008600B490320E0
:105460000860094810380168094AC9B2114301604F
:1054700006481038016821F00F0141F00801016071
:10548000704700000010024010080140100C01405D
:1054900000888888064800680649C0F385000968C6
:1054A00001F0010140EA81117F208843704700002C
:1054B00008080140080C01402DE9F0411D48008911
:1054C00007F008FA80F000411B4800680EF0A2FACD
:1054D0001A4C1B4D07462946E0600EF00BF9616837
:1054E0000DF052FF06466060164938460EF002F98C
:1054F00031460DF049FF14490EF0FCF806461349F9
:10550000A0680EF0F7F831460DF03EFF1049A0609C
:10551000884201DDA16002E0A84200DAA5600D49E1
:10552000A0680EF0E7F80EF065F8BDE8F04180B233
:1055300001F010B8544500202C00002094000020F9
:105540000AD7A33C0AD7A33B6666663FCDCCCC3DC9
:10555000CDCC4C3E0000D846034A1278012A01D037
:1055600000F032BF05F036BC28000020034A127854
:10557000012A01D000F068BF05F06EBC28000020B1
:1055800008498A6942F010028A6108B1891501E070
:105590004FF0807104480161416821F00F01C91C7E
:1055A00041607047001002400010014070B50C4689
:1055B000054600EBC4004068FBF7A4F8C1B235F81B
:1055C0003400BDE87040FFF7C7BF000070B5018828
:1055D0000546080ACEB201D07043C6B2696811B15F
:1055E0000020FFF7C3FF012409E000BF05EBC40062
:1055F000416835F83400FFF7B9FF641CE4B2B442E7
:10560000F4D970BD002200F015B91346002200F055
:10561000E1B91346002200F0C5BA00F001B800005D
:105620002DE9F05F0C46DFF8E4B101880646BBF8CF
:1056300004509046080ACFB230D0784300F0FF0AF9
:105640000CB1544500D9012406EBC409D9F8040073
:10565000FBF758F8C1B236F83400FFF77DFF00BF02
:105660005FEA080000D08047322009F0AFF9002837
:10567000F6D036F83400D9F80410FFF777FF08F0B9
:10568000F3FF10283DD00BDC0A28DDD2DFE800F064
:1056900005404305B9059205277BD5E7BA46CFE714
:1056A000212876D00DDC112837D02028CCD1641EDB
:1056B000E4B2B4FBF7F007FB10400028C4D1E019B6
:1056C0001DE0402815D04128BED1C82D01D96D1E3E
:1056D000ADB2642141200BF0CBFFA8B35DE0B4FB79
:1056E000F7F007FB104008B9E01BC4B2641CE4B239
:1056F000AAE7E019C4B25445A6D9A4EB0A00C4B283
:10570000A2E7BC4202D804EB0A00C4B2E01BF6E7F1
:105710002046BDE8F09FFF20FBE740F602008542EF
:1057200001D26D1CADB2642111200BF0A1FF60B15C
:1057300033E06D1CADB228460DF094FF49460DF0E4
:10574000D9FFFEF797FD02E013E0DFF8C4900321D4
:1057500011200BF08DFF0028EBD01EE06D1EADB2C6
:1057600028460DF07FFF49460DF0C4FFFEF782FD8D
:1057700001E0DFF89C90012141200BF079FF002827
:10578000ECD00AE005E040F29E70854205D2643517
:1057900002E0DC2D01D9143DADB228460DF062FFC8
:1057A0001B490DF0A7FFFEF765FDABF80450FEF7AF
:1057B0000BF849E74FF4967106200BF059FF00BB38
:1057C00008F0EFF9642008F02BFB08F0EAF908F084
:1057D000D9FA10A140F20120FFF7C8FEFDF782FFC1
:1057E0000A494FF4E062383140F20550FEF7B2FF4B
:1057F00038B104210BA000F0B1FC062803D0FDF75E
:1058000071FF002085E7FDF7DFFFFAE71C49002064
:105810000AD7233CC7EBCAE4C8EBB3F6B3A7B1E0A1
:10582000BAC53A00CAC7B7F1B1A3B4E6B1E0BAC588
:105830003F0000002DE9F05F0C46DFF890B10188D1
:105840000646BBF804509046080ACFB230D07843E1
:1058500000F0FF0A0CB1544500D9012406EBC4093D
:10586000D9F80400FAF74EFFC1B236F83400FFF75A
:1058700073FE00BF5FEA080000D08047322009F0C5
:10588000A5F80028F6D036F83400D9F80410FFF750
:105890006DFE08F0E9FE10283DD00BDC0A28DDD2B1
:1058A000DFE800F00540450543050505277DD5E700
:1058B000BA46CFE7212878D00DDC112839D020282E
:1058C000CCD1641EE4B2B4FBF7F007FB1040002813
:1058D000C4D1E0191DE0402815D04128BED1C82D03
:1058E00001D96D1EADB2642141200BF0C1FEB8B3E9
:1058F0005FE0B4FBF7F007FB104008B9E01BC4B24F
:10590000641CE4B2AAE7E019C4B25445A6D9A4EBDA
:105910000A00C4B2A2E7BC4202D804EB0A00C4B237
:10592000E01BF6E72046BDE8F09F0020FBE7FF20E4
:10593000F9E740F60200854201D26D1CADB2642148
:1059400011200BF095FE60B133E06D1CADB228461E
:105950000DF088FE49460DF0CDFEFEF78BFC02E00F
:1059600013E0DFF86C90032111200BF081FE00287A
:10597000EBD01EE06D1EADB228460DF073FE494619
:105980000DF0B8FEFEF776FC01E0DFF8449001214F
:1059900041200BF06DFE0028ECD00AE005E040F25B
:1059A0009E70854205D2643502E0DC2D01D9143D9C
:1059B000ADB228460DF056FE05490DF09BFEFEF7F0
:1059C00059FCABF80450FDF7FFFE47E71C490020E7
:1059D0000AD7233C2DE9FF5F06460C466F48318805
:1059E000904685884FF0000B080ACFB230D078433C
:1059F00000F0FF0A0CB1544500D9012406EBC4099C
:105A0000D9F80400FAF77EFEC1B236F83400FFF789
:105A1000A3FD00BF5FEA080000D08047322008F0F5
:105A2000D5FF0028F6D036F83400D9F80410FFF777
:105A30009DFD08F019FE102847D00BDC0A28DDD2A6
:105A4000DFE800F005575D055B0505052294D5E705
:105A5000BA46CFE7212874D008DC112851D020287D
:105A6000CCD1039850EA0B003CD032E0402823D040
:105A70004128C3D1C82D01D96D1EADB2642141208A
:105A80000BF0F6FDA0B37BE0039850EA0B0017D0B3
:105A900003E000BFA4EB0A000CE0B4FBF7F007FB47
:105AA000104008B9E01BC4B2641CE4B2A6E7E01BD6
:105AB00000E0E019C4B2A1E7039830EA0B00ECD192
:105AC000E019C4B2544599D9E4E7039830EA0B00D1
:105AD00008D0641EE4B2B4FBF7F007FB10400028C6
