:020000040800F2
:10000000804A002041030008490300084B03000810
:100010004D0300084F0300085103000800000000D2
:10002000000000000000000000000000790200084D
:100030005503000800000000F10200082D0300082D
:100040005B0300085B0300085B030008D99200080B
:100050005B0300085B03000841440008614400089A
:100060006944000871440008794400085B030008F3
:100070005B0300085B0300085B0300085B030008E8
:100080005B0300085B0300085B0300085B030008D8
:100090005B0300085B0300085B0300088144000861
:1000A0005B0300085B0300085B0300085B030008B8
:1000B0005B0300085B03000819AB00085B03000842
:1000C0005B0300085B0300085B0300085B03000898
:1000D0005B0300085B0300085B030008B9B000087D
:1000E000494400085B0300085B03000800F002F8C5
:1000F00000F07CF80AA090E8000C82448344AAF146
:100100000107DA4501D100F071F8AFF2090EBAE843
:100110000F0013F0010F18BFFB1A43F0010318473B
:100120002C7401004C7401000A444FF0000C10F8CC
:10013000013B13F0070408BF10F8014B1D1108BF65
:1001400010F8015B641E05D010F8016B641E01F805
:10015000016BF9D113F0080F1EBF10F8014BAD1C55
:100160000C1B09D16D1E58BF01F801CBFAD505E073
:1001700014F8016B01F8016B6D1EF9D59142D6D3CD
:10018000704700000023002400250026103A28BFF5
:1001900078C1FBD8520728BF30C148BF0B607047F9
:1001A000662913F02684642900F07A81752900F00D
:1001B0007781782900F0B081632900F07A8773296C
:1001C00000F07F87002070471FB500F07EFF04001D
:1001D0000020002113F00AF8E0601FBD10B510BD2B
:1001E00003B4FFF7FBFF03BC01F06EF800F0CCF89E
:1001F0001146FFF7E9FF11F00DFB0448002111F053
:10020000CFFB11F019FB00F053FA00004000002072
:1002100080F309887047EFF309807047684680F3E0
:10022000098804480078C00714BF0220032080F327
:10023000148870476C5F0108DFF818C0EFF305837E
:100240001B0618BF6047EFF31483DB0708BF604746
:1002500000DF7047A11A0108DFF818C0EFF305832B
:100260001B0618BF6047EFF31483DB0708BF604726
:1002700000DF7047851C0108EFF30980816911F8E0
:10028000021CF1B990E80F10E047EFF3098C8CE8FD
:100290000700144B93E8060091420FD039B12CE9C6
:1002A000F00FC1F824C00CB412F020F80CBC1A6096
:1002B000D2F824C0BCE8F00F8CF309886FF0020E6E
:1002C000704710B5084A1268914209D8074C54F893
:1002D000214090E80F10A047EFF3098C8CE80F0045
:1002E00010BD0000CC010020CC1A0008CC1A000878
:1002F00011F098FE0C4B93E80600914210D0EFF3FA
:10030000098C2CE9F00FC1F824C00CB411F0EEFFF9
:100310000CBC1A60D2F824C0BCE8F00F8CF309883A
:100320006FF0020E70470000CC01002012F094F82C
:10033000E0E7000011F086FB12F08EF8DAE700002B
:100340000948804709480047FEE77047FEE7FEE797
:10035000FEE7FEE7FEE7FEE7FEE7FEE704480549A5
:10036000054A064B7047000031AA0008ED0000085E
:1003700080440020804A00208046002080460020E3
:1003800000487047204400207546FFF7F9FFAE464D
:1003900005006946534620F00700854618B020B591
:1003A000FFF7DCFFBDE820404FF000064FF00007EC
:1003B0004FF000084FF0000B21F00701AC46ACE80D
:1003C000C009ACE8C009ACE8C009ACE8C0098D467A
:1003D000704700000FB41CB5074B06AA7B44694662
:1003E0000090059800F043FE0020694600F052FEA0
:1003F0001CBC5DF814FB0000B50C000070B5044691
:1004000085690068C10601D5302600E02026C007B6
:1004100008D070BDD4E9012130469047206A00F130
:10042000010020626D1EF5D570BD70B5044685696A
:100430000078C00708D170BDD4E901212020904781
:10044000206A00F1010020626D1EF5D570BD70B507
:100450000C460546012A05D02878800600D5EA69B1
:10046000002302E0012305E05B1C934202D2E05C22
:100470000028F9D1A869E618C01AA861286A1844AA
:1004800028622846FFF7BAFF04E0D5E9012114F8F5
:10049000010B9047B442F8D32846FFF7C6FF70BD62
:1004A0002DE9F0410646002410687529314616A54D
:1004B00011D0AFF30080002803DAC0F1000013A5CB
:1004C00007E031688A0701D511A502E0490704D584
:1004D00010A5012401E0AFF3008000210A2306F1FA
:1004E000240707E0B0FBF3F203FB1200303078542E
:1004F0001046491C0028F5D123462A463046BDE85F
:10050000F04100F043BB0000000000002D0000009F
:100510002B0000002000000070B504460D46214667
:100520001068AFF300802188090502D5104A7A448B
:1005300002E00F4A7A440E32002104F1240307E05E
:1005400000F00F064FEA1010965D5E5401F10101B4
:100550000028F5D103462078000704D5702D02D07D
:1005600009B1113202232046BDE8704000F00EBBF5
:10057000AA6901002DE9F05F894604464FF0000AA0
:10058000DFF828B1FB44C0F820A02046E168884786
:1005900000287CD0252806D0D4E901219047206A84
:1005A000401C2062F1E700255F462046E16888474D
:1005B0002028064608DB312E06D207EB060010F88D
:1005C000200C08B10543F0E7A80701D525F0040584
:1005D000C4F81CA00027C4F818A02A2E09D0304661
:1005E0000CF0B1FB38B304EB8708303EC8F8186054
:1005F00019E059F8041B204604EB87029161E16879
:100600008847012F064618D1E069002820DA25F036
:1006100020051DE0D8F8180000EB800006EB400034
:100620003038C8F818002046E168884706460CF0C4
:100630008AFB0028EED1012F0AD02E2E08D12046A9
:10064000E16888477F1C0646022F45F02005C4DB81
:10065000A069002803DA404245F00105A061E807DF
:1006600001D025F0100596B1A6F14100192802D855
:10067000203645F400654A463146204625604D4601
:10068000FFF78EFD60B1012807D0ED1D00E009E005
:1006900025F0070000F1080977E705F1040974E780
:1006A000304679E7206ABDE8F09F00007C690100D0
:1006B0000446AFF300802046FFF792FD10B5431CBF
:1006C00002E010F8011B71B18107FAD14FF001323D
:1006D00002C88C1A8C4314EAC211F9D0C01A0A0657
:1006E00003D0C01E10BDC01A10BD0A0401D0801E68
:1006F00010BD0902FCD0401E10BD40EA010370B5D8
:100700009B072ED14FF00136042A2AD308C810C9FE
:10071000121F9D1B9D4315EAC61517D0D8B2E1B232
:10072000401A50EA056110D198B2A1B2401A50EABD
:1007300005410AD123F07F4024F07F41401A50EA5E
:10074000052102D1180EA0EB146070BDA342DBD0CE
:1007500018BA21BA884201D9012070BD4FF0FF308C
:1007600070BD0AB9002070BD10F8013B11F8014BB3
:1007700063B1A3420AD1521E08D010F8013B11F810
:10078000014B1BB1A34201D1521EEDD1181B70BD0C
:10079000421E12F8013F002BFBD111F8013B002B48
:1007A00002F8013BF9D17047032A40F2308010F083
:1007B000030C00F0158011F8013BBCF1020F6244FC
:1007C00098BF11F801CB00F8013B38BF11F8013B8D
:1007D000A2F1040298BF00F801CB38BF00F8013B3A
:1007E00011F0030300F02580083AC0F0088051F8AA
:1007F000043B083A51F804CBA0E80810F5E7121DB5
:100800005CBF51F8043B40F8043BAFF30080D207D3
:1008100024BF11F8013B11F801CB48BF11F8012B9F
:1008200024BF00F8013B00F801CB48BF00F8012BC2
:10083000704710B5203AC0F00B80B1E81850203A4C
:10084000A0E81850B1E81850A0E81850BFF4F5AF70
:100850005FEA027C24BFB1E81850A0E8185044BFFA
:1008600018C918C0BDE810405FEA827C24BF51F867
:10087000043B40F8043B08BF7047D20728BF31F85B
:10088000023B48BF11F8012B28BF20F8023B48BFAC
:1008900000F8012B70474FF000020429C0F01280CD
:1008A00010F0030C00F01B80CCF1040CBCF1020F23
:1008B00018BF00F8012BA8BF20F8022BA1EB0C01F8
:1008C00000F00DB85FEAC17C24BF00F8012B00F8EE
:1008D000012B48BF00F8012B70474FF0000200B514
:1008E000134694469646203922BFA0E80C50A0E853
:1008F0000C50B1F12001BFF4F7AF090728BFA0E801
:100900000C5048BF0CC05DF804EB890028BF40F8CC
:10091000042B08BF704748BF20F8022B11F0804F0E
:1009200018BF00F8012B704730B503681C1404EBA6
:1009300021459BB289B2194495FBF2F402FB145392
:1009400001EB034191FBF2F302FB131101E05B1E8B
:1009500011440029FBDB016003EB044030BD2DE9AD
:10096000F04704464FF0FF3A86B000680290606896
:100970000390A0680490E068019020690090656988
:10098000B5F1804F7EDCB5F1404F7BDB3C2200218E
:1009900002A8FFF7C9FF3C22014603A8FFF7C4FFE6
:1009A0001822014604A8FFF7BFFF411E40F2B552CE
:1009B00001A8FFF7B9FF0C22064668460021FFF7A1
:1009C000B3FF00EB860028443E4D00267D440FE037
:1009D0009A1A491CCDE90012022902D00C2907D12C
:1009E00004E0810704D0521C019201E0401C0096F3
:1009F0000099019B6A5C9A42EADD012906D11C2B11
:100A000004D1810702D00221CDE90016A0F14601F0
:100A10008B2940D20199009B00220F4602E0AE5C78
:100A2000521C31449A42FADB012B02DD820700D0CE
:100A3000491E40F2B55540F26D16C21700EB927296
:100A400092106A4300F0030505FB062285070A445D
:100A500000D1521E049D02EB4206DDF80C80A9462F
:100A600005EBC605184EC5EB0515DDF808C008EB0B
:100A7000850535442E14ADB2C6EB0616C5EB05153B
:100A8000B60000E007E00CEB850506EB154666F3C3
:100A90001F45360C03D0504606B0BDE8F0877F1CDA
:100AA000C4E90430521C072092FBF0F304F118064D
:100AB00000FB1320A6E803042846C4E90297C4E912
:100AC00000C8E9E745650100A039CEFD70B50C46C8
:100AD000016800204A1C34D040F2B5553C23B1FBDC
:100AE000F3F203FB12112160B2FBF3F103FB1122BD
:100AF00018236260B1FBF3F203FB1211A16046F20E
:100B0000E0310A440721B2FBF1F301FB1321B2FBF0
:100B1000F5F305FB1322A1619900B2F5B77F06D367
:100B2000521EAD10B2FBF5F3194405FB13220F4B17
:100B3000E261616189077B440CD03B2A0AD3521CD5
:100B400008E02C212046FFF7C8FE0120E0600AE003
:100B5000521A401C195C9142FAD9521CC4E9032074
:100B60004FF0FF302062204670BD0000DB630100C3
:100B700070477047704710B500F0ACFA006810BDC0
:100B800010B5044600F0A6FA046010BD2DE9F04748
:100B90000D4699469246044600F1240801688806ED
:100BA00004D5E06921F01001216000E00120A84295
:100BB00002DDA0EB050700E00027A16907EB0502B5
:100BC00002EB0900A1EB0000A0612078C00602D46E
:100BD0002046FFF713FC002608E0D4E901211AF8AB
:100BE00006009047206A401C761C20624E45F4DBCC
:100BF0002078C0060AD52046FFF700FC06E0D4E9BD
:100C0000012130209047206A401C2062381EA7F145
:100C10000107F4DC07E0D4E9012118F8050090474A
:100C2000206A401C2062281EA5F10105F3DC204645
:100C3000FFF7FBFB2078000602D50220BDE8F08715
:100C40000120FBE770472DE9FF4F0C461E464FF091
:100C5000FF378BB0D2E90001DDF860800A908A4648
:100C6000C1F30A5505B93D46002108464FF0000082
:100C7000BAF1000F00F4400005DA00EB80004FF4F9
:100C8000400101EA50004FEA9059B9F1010F00DD2F
:100C9000B9460A9850EA4A000ED044F61050A5F220
:100CA000FF3545432F14B8F1000F1ED07542291EA1
:100CB0001EDDC9F100021CE0B8F1010F4FF0000089
:100CC00001D0302103E0F24305E02154401CB04242
:100CD000FBDB30460022002121540B99C1F808802B
:100CE000C1E900200FB0BDE8F08FBD1B6D1CDEE731
:100CF0004A4600DA694206A800F074FA06AB07CB50
:100D000003AB07C350460A9900F025FB8DE80700A6
:100D1000A0F500501F3800900398002D09DD42F225
:100D20001F014A46084403A90390684600F084FD69
:100D300008E0A0F500504A461F3803A90390684612
:100D400000F08EFD8DE807000004000C03D04FF08A
:100D5000FF30410800E01046B8F1000F03D0002238
:100D6000009215461FE0751E06D400F0B5F902F199
:100D7000300262556D1EF8D5B3460122084302D0F9
:100D800000227F1C04E02078302801D100227F1E41
:100D9000002A099787D01DE0112D07DA00F09CF991
:100DA000303262556D1C50EA0102F5D108430FD173
:100DB0000021681E05E0235C625C6354491C2254D8
:100DC000401E8142F7DBAB46A81B401E099001E0A4
:100DD000009848B1002004F80B000B98099AC0F85D
:100DE0000880C0E9002B7DE711264FF000085AE784
:100DF0002DE9F04F88460446D21D22F0070191B03C
:100E0000D1E90001CDE90A010BF0CFFE02460B98B3
:100E1000C00F01D02D2007E02068810701D52B20CD
:100E200002E0202101EAC000032A099001D0072A2C
:100E300005DB03464146204600F094F90FE1207897
:100E4000800601D5E06900E00620B8F1650F814613
:100E500006D0B8F1660F18D0B8F1670F72D132E042
:100E60000020B9F1110F009001DB112301E009F11D
:100E700001030AAA01A90CA8FFF7E5FEDDE90C7041
:100E8000002609F10105834648E001204B46009009
:100E90004FF000470AAA01A90CA8FFF7D4FEDDE92C
:100EA0000DB00C995D46002618B909F1010001EB5F
:100EB0000005B9EB050003D4C0F1FF3609F10105C7
:100EC000A5EB09002BE0B9F1010F01DA4FF00109A0
:100ED0000020B9F1110F0090484601DD112300E018
:100EE00003460AAA01A90CA8FFF7ADFEDDE90C70C4
:100EF0004D4600268346207800070AD4AB4500DA29
:100F00005D4601A8012D04DD411911F8011C3029AD
:100F100007D04F4502DA17F1040F04DA01208246A8
:100F200010E06D1EEEE7002F02DCED1B3E4403E0F7
:100F3000781CA84200DD0546A7EB060000F1010A77
:100F40004FF000472078000703D4AA4501DB4FF09B
:100F5000FF3A0021B7F1004F0DF143088DF843101F
:100F600023D002202B23002F01DA7F422D234FF0C4
:100F70000A0C011EA0F1010000DC4FB197FBFCF14F
:100F80000CFB11720F4602F1300208F8012DF0E758
:100F9000A8F1010003702188090501D5452100E071
:100FA0006521A0F1010800F8011C09980FA9A1EB27
:100FB000080707F1070700B1012000EB050101EB6D
:100FC000EA70A1693844A1EB0000A0F10100A06122
:100FD0002078C00602D42046FFF710FA099830B1F5
:100FE000D4E901219047206A00F1010020622078B5
:100FF000C00620D52046FFF701FA1CE0002E04DBD6
:10100000B34502DD01A8805D00E03020D4E9012174
:101010009047206A761C401CBAF1010A20620AD16E
:1010200000F053F8C0680168405CD4E901219047A2
:10103000206A401C2062281EA5F10105DEDC07E0C5
:10104000D4E9012118F8010B9047206A401C206266
:10105000381EA7F10107F3DC2046FFF7E6F902206E
:1010600011B040E601694A1C02610878704700B57A
:101070008FB0CDE901310021059105497944CDE9D1
:10108000031011466846FFF775FA0FB000BD000067
:10109000E5FFFFFF0A6802F8010B0A60704710B510
:1010A000436913B1AFF3008001E0FFF7D0F90120ED
:1010B00010BD127800F124010A7000224A7001224A
:1010C000EDE711684FF0FF32E9E710B5FFF758F987
:1010D000203010BD0BF07EBD30B5B0F10A024FEAF2
:1010E000900E71F100034EEA817EB0EB0E0061EBD1
:1010F00091014FEA101E4EEA017E10EB0E0041EB0B
:1011000011114FEA102E4EEA016E10EB0E0041EB6A
:1011100011214FEA104E4EEA014E10EB0E0041EB4A
:101120001141401841F100014FEAD00040EA4170FE
:101130004FEAD10110EB80054FEA810444EA907434
:1011400044EB01046D1944EB0404521BA3414FF01E
:10115000000348BF0A3200D530BD401C41F10001F8
:1011600030BD00002DE9F0411F460446032601680A
:10117000072A01F4006004DB08B116A505E016A5F6
:1011800003E008B115A500E015A521F010002060CE
:10119000A069C01EA0610FB1401EA0612046FFF7EC
:1011A0002DF94FB1D4E9012138469047206A401CFF
:1011B0002062C01C206206E0206AFAE7D4E901211F
:1011C00015F8010B9047761EF8D22046FFF72DF94F
:1011D000BDE8F0814E414E006E616E00494E460002
:1011E000696E66002DE9F047814616468AB035489B
:1011F0007844D0E9002380680092CDE9013031487D
:1012000078440C38D0E90223006903924FF037028A
:10121000CDE9043041F69B30014491FBF2F0A0F19E
:10122000800502FB10141B3C02D56442012000E043
:101230000020DFF890A080460027FA44AAF1C60AF1
:101240000DE0E00709D03246684607EB47010AEB9C
:10125000810100F005FB8DE8070064107F1C002C65
:10126000EFD1184F7F44B43F17E0E80713D007EBE6
:1012700004100DF1180A90E80E00AAE80E00C068EC
:10128000F04201D198190890324606A903A800F04F
:10129000E7FA03AB07C36D10641C002DE5D132469D
:1012A0006946B8F1000F03A802D000F0C5FA01E0CA
:1012B00000F0D6FAC9E90001C9F808200AB0BDE873
:1012C000F0870000AC5D010001491820ABBEFEE7CD
:1012D000260002004FF0013C50F8042B51F8043B6B
:1012E0009A4221D1A2EB0C03934313EACC1317D1FA
:1012F00050F8042B51F8043B9A4215D1A2EB0C0391
:10130000934313EACC130BD150F8042B51F8043B50
:101310009A4209D1A2EB0C03934313EACC13DBD01E
:101320004FF00000704700BFD01A01BAB1FA81F146
:1013300001F0180122FA01F0CB40C1F12001DBB22B
:10134000C0B2C01A2CFA01F3D11A914311EAC311A9
:10135000E6D1704770475FEA400C08BF91F0000F7C
:101360004FEA8C234FEAC12243EA51514FEA1C5005
:1013700018BF00F5F0404FEA300018BF41F00041BF
:101380005FEA6C5C00F02980BCF1FF3F08BF40F0D1
:1013900080407047130C06BF12044FF0100C4FF042
:1013A000000C130E04BF12020CF1080C130F04BF43
:1013B00012010CF1040C930F04BF92000CF1020C0B
:1013C000D30F04BF52000CF1010C11464FF0000284
:1013D000A0F11F00A0EB0C00704711F0004F08BFF8
:1013E000704731F000413FF4D5AF0B0C06BF090444
:1013F0004FF0100C4FF0000C0B0E04BF09020CF163
:10140000080C0B0F04BF09010CF1040C8B0F04BF77
:1014100089000CF1020CCB0F04BF49000CF1010C48
:10142000CCF12003A0EB0C0022FA03F302FA0CF239
:1014300041EA030100F10100704720F07F4C80EA8F
:10144000030023F07F47ACEB070303F57C5300F068
:10145000004003F1FF032DE980494FEA154B09B421
:101460004FEA144325EA0B4E24EA03480FF2042600
:1014700006EB132749083E785FEA320203FB066752
:10148000C7F5000707FB06F64FEA54374FEAD64682
:1014900006F1020607FB066CCCF1005C4FEA1C4724
:1014A0002CEA074C07FB06F40CFB06F504EB15468B
:1014B0004FEA961634BF00204FF000404FEAD13774
:1014C00006FB07FC4FEA1C4C0CFB0BF7D21B03FB83
:1014D0000CF761EB07010CFB0EF7B0EB074072EB6A
:1014E00017420CFB08F734BFA2EB0742B2EB0742EE
:1014F00061EB17414FEA0C444FEA910706FB07FCEA
:101500004FEA1C4C0CFB0BF7B0EBC74072EB5732A9
:1015100003FB0CF734BFA2EBC742B2EBC74261EB4F
:1015200057310CFB0EF7B0EBC70072EB57720CFB98
:1015300008F734BFA2EBC702B2EBC70261EB5771E9
:10154000039F4FEA816141EA921104EBCC044FEA18
:10155000D1374FEA826206FB07FC42EA90124FEA5B
:1015600080604FEA1C4C0CFB0BF7D21B03FB0CF703
:1015700061EB07010CFB0EF7B0EB074072EB174273
:101580000CFB08F734BFA2EB0742B2EB074261EB5A
:1015900017414FEA8C554FEA910704EB9C2406FB58
:1015A00007FC4FEA1C4C0CFB0BF7B0EBC74072EB8F
:1015B000573203FB0CF734BFA2EBC742B2EBC74272
:1015C00061EB57310CFB0EF7B0EBC70072EB5772B3
:1015D0000CFB08F734BFA2EBC702B2EBC70261EB0A
:1015E000577115EB4C254FEA816141EA92114FEAA0
:1015F00082624FEAD13742EA901206FB07FC44F1BF
:1016000000044FEA80604FEA1C4C0CFB0BF7D21B26
:1016100003FB0CF761EB07010CFB0EF7B0EB074087
:1016200072EB17420CFB08F734BFA2EB0742B2EB98
:10163000074261EB174115EB1C154FEA813141EA76
:1016400092414FEA823242EA90424FEA80304FEABA
:101650000C7644F1000448EA03434EEA0B484FF08D
:10166000000EB2EB080C71EB030724BF624639464B
:101670004EEB0E0E4FF0000B0018524149414BEB60
:101680000B0BB2EB080C71EB03077BF1000B24BFD3
:10169000624639464EEB0E0E4FF0000B00185241D9
:1016A00049414BEB0B0BB2EB080C71EB03077BF1E1
:1016B000000B24BF624639464EEB0E0E51EA02077C
:1016C00018BF46F0010616EB0E7655F1000254F1F4
:1016D000000103D5BDE88901BDE80088BDE88901A6
:1016E000BDE80048B619524141EB0101A3F10103E5
:1016F000704780807F7E7D7C7B7A7978777676757F
:101700007473727171706F6E6E6D6C6C6B6A6A69F6
:101710006868676666656464636362616160605F90
:101720005F5E5E5D5D5C5C5B5B5A5A595958585709
:101730005756565555555454535352525251515071
:1017400050504F4F4F4E4E4D4D4D4C4C4C4B4B4BC4
:101750004A4A4A494949484848474747474646460A
:101760004545454444444443434343424242424145
:101770004141002B26D4770021D01CB54FEA370712
:1017800003B44FF010004FF010014FF000000FBCF9
:10179000BDE810400BF1010BBBF1010F08BF5FEA80
:1017A000170722BF12F1010211F101014FF00041B0
:1017B00043F1000300F0004043EA00007047F9D312
:1017C0005708DAE746EA064613F1400F4FEA164695
:1017D0001FDD13F1200FDFBF16430A46002120331F
:1017E0005B42C8D0C3F1200746EA064602FA07F773
:1017F0004FEA164646EA0706C3F1200722FA03F22B
:1018000001FA07F721FA03F14FF0000342EA070259
:10181000B1E746EA020646EA06464FEA164646EAB7
:101820000106BCBF46EA0646360C4FF000034FF0F7
:1018300000024FF000019EE72DE9C048934630B406
:1018400091E8380007C831EA400C48BF34EA430C3D
:1018500003D5FFF7F2FDFFF78CFFF0BCBDE8008871
:101860002DE9C048934630B491E8380007C810F01D
:10187000804F08BF13F0804F03D100F005F8FFF749
:1018800078FFF0BCBDE8008820F07F4780EA0300C5
:1018900023F07F4C07EB0C03A3F57C5300F00040D2
:1018A000A3F1FE0392F0000F00F0B38095F0000F5B
:1018B00000F077802DE901494FEA11404FEA1446C4
:1018C00021EA004800FB06FC24EA064708FB06F66E
:1018D00007FB08F800FB07F718EB06484CEB164C23
:1018E0004FEA124B18EB07484FEA15464CEB1740EE
:1018F00022EA0B4E0BFB06FC25EA06470EFB06F61A
:1019000007FB0EFE0BFB07F71EEB064E4CEB164CCF
:101910004FF000061EEB074E4CEB174B18EB0B0875
:1019200040F1000018EB0E0B58EB000840F10000EE
:101930008F1A4FF000013CBFC943661B14BFB5EBC3
:10194000040C00213CBFC943F61B4FEA17444EEA82
:101950008E0E27EA04454FEA1C4704FB07622CEA77
:10196000074C05FB07F70CFB05F604FB0CFC16EB1C
:10197000074642EB174216EB0C4642EB1C421BEBB0
:10198000060658EB0202414146EA9E0601D5BDE833
:101990000189B619524141EB0101A3F10103BDE8F0
:1019A00001894FEA14454FEA114724EA054621EA26
:1019B000074C05FB07F406FB07F70CFB06F105FBDC
:1019C0000CFC11EB074144EB17444FEA124711EBB3
:1019D0000C4144EB1C4422EA074C05FB07F206FBD2
:1019E00007F70CFB06F605FB0CFC16EB074642EB73
:1019F000174216EB0C4642EB1C456A1854F10001E5
:101A000048BF7047B619524141EB0101A3F10103F0
:101A1000704795F0000F37D04FEA11424FEA144754
:101A200021EA024624EA074C02FB07F106FB07F70E
:101A30000CFB06F402FB0CFC14EB074441EB1741D2
:101A40004FEA154714EB0C4441EB1C4125EA074CC7
:101A500002FB07F506FB07F70CFB06F602FB0CFC86
:101A600016EB074645EB174516EB0C4645EB1C42BB
:101A7000121951F1000148BF7047B619524141EBAC
:101A80000101A3F1010370474FEA14454FEA1147E2
:101A900024EA054621EA074C05FB07F106FB07F798
:101AA0000CFB06F24FF0000605FB0CFC12EB0742A4
:101AB00041EB174112EB0C4251EB1C4148BF704700
:101AC000921841EB0101A3F10103704700000000EF
:101AD00007F0C8BD10B50022074B114601EB810489
:101AE00003EB440434F81040491CC9B222441029C5
:101AF000F4D3C2F30F1010BDF601002009498A6922
:101B000042F010028A6108B1491501E04FF00071FE
:101B100005480161416821F0F00141F03001416068
:101B2000704700000010024000100140264910B527
:101B300008684FF6FF021040244A40F4E06010436A
:101B40000860062004F0A4FB072004F0A1FB082095
:101B500004F09EFB092004F09BFB0A2004F098FB94
:101B6000172004F095FB282004F092FB1E2004F0BF
:101B70008FFB272004F08CFB08F07EFF154A1448E9
:101B8000D16941F00201D16100210180018540F657
:101B90005F13838501238382018446F260030383FC
:101BA0008383818601878187A0F84010018841F0F6
:101BB00001010180906940F0010090610648416890
:101BC00041F44061416010BD0CED00E00000FA05F9
:101BD00000040040001002400000014008B5024926
:101BE00008440090008808BD006C004008B5024A17
:101BF00010440090016008BD006C0040044800786B
:101C000001284FF0000001D004F0E4BB09F054B803
:101C100028000020044801784078012901D004F010
:101C2000D9BB09F049B800002800002070B59AB06F
:101C300015460E4604460CF06DF9204600F01CFADD
:101C4000304600F0CDF800222946684600F008F939
:101C5000094C6070012000F0B1F90CF063F9607874
:101C6000142802D0172803D004E001201AB070BD58
:101C70000CF043F90020F9E72001002010B50446DC
:101C80000CF048F9204600F0F7F900F0FBF90446A3
:101C90000CF048F9204610BD2DE9F0411C461546D0
:101CA0000E4607460CF036F923462A46314638469A
:101CB00000F056F8142804D00CF034F90020BDE8E8
:101CC000F0810CF02FF90120F9E700002DE9F04137
:101CD0001C4615460E4607460CF01CF923462A46BC
:101CE0003146384600F05CF8084C60700CF01AF988
:101CF0006078142802D0172803D004E00120BDE842
:101D0000F0810CF0FAF80020F9E700002001002033
:101D100010B504460CF0FEF8204600F0CFF8044958
:101D20004870012000F04AF9BDE810400CF0FAB804
:101D30002001002070B514460E4605460CF0EAF866
:101D4000284600F048F9A1B20022304600F088F899
:101D5000012000F033F9BDE870400CF0E3B800005A
:101D60002DE9F0411C4616460F4605460CF0D2F808
:101D7000284600F081F9384600F032F8A1B200227E
:101D8000304600F046F8054C6070012000F016F96E
:101D90000CF0C8F86078BDE8F08100002001002058
:101DA0002DE9F0411C4617460E4605460CF0B2F8E8
:101DB000284600F061F9384600F012F8A1B2074A4F
:101DC000304600F04DF8054CA41E6070012000F074
:101DD000F5F80CF0A7F86078BDE8F081220100204A
:101DE00010B50446392011F0E7F9E0B211F0F7F927
:101DF000C4F3072011F0F3F9C4F3074011F0EFF931
:101E0000200E11F0ECF911F0A5F9BDE810400AF030
:101E1000E7BD70B5064614460D463A2011F0CCF9E0
:101E2000E8B211F0DCF9280A11F0D9F911F092F9B1
:101E30000CB1002011E00AF0D3FD1D280FD130466F
:101E400000F052F905463B2011F0B6F911F082F985
:101E50002E44002CEFD0208828442080EBE770BD72
:101E60002DE9F041064614460D463C2011F0A4F938
:101E7000E8B211F0B4F9280A11F0B1F911F06AF9D9
:101E80000CB1002020800C4F0AF0AAFD1E2810D1B2
:101E9000304600F03CFA054638703D2011F08CF9D0
:101EA00011F058F92E44002CEED0208828442080D0
:101EB000EAE7BDE8F08100001E01002010B50446ED
:101EC00000F0C4F920785C2801D02F2803D100212C
:101ED000642000F032FABDE81040402000F096B9CE
:101EE00010B505F06BFF08B100F0CFF8BDE8104069
:101EF000302000F08BB9312000F088B910B50520F2
:101F00000CF0DAFF5A2000F081F9044605200CF0AD
:101F1000D3FF204610BD00002DE9F74F82B0834665
:101F200004980E46C700080E4FF0000AC1F30729B7
:101F3000C1F307480090562011F03EF9F0B211F0BD
:101F40004EF9484611F04BF9404611F048F9009817
:101F500011F045F9049811F042F911F0FBF83C46F4
:101F600014E000BF0AF03CFD05461E2801D07CB1FC
:101F700013E04021584600F0B4F9572011F01CF945
:101F800011F0E8F8641E0BF1400BA4B2002CE9D16B
:101F90000AF026FD054614280ED0162D09D0FFF7AD
:101FA000ADFF0AF1010000F0FF0ABAF1030FC2D140
:101FB000284605B0BDE8F08F1420FAE70146362028
:101FC00000F017B910B508B100F040F9BDE81040B5
:101FD000342000F01BB970B5054600F021F904006B
:101FE0000DD00146284600F021F8412807D01428DA
:101FF00003D0422800D1B32070BD432070BD281902
:10200000BDE87040FFF7DEBF10B5044600F01EF9D2
:1020100020785C2801D02F2803D10021642000F013
:102020008CF9BDE81040322000F0F0B870B50546DC
:1020300000200E46012401E0641CE4B2295D5C2905
:1020400013D02F2911D00029F6D100242844FFF7FE
:10205000DBFF002C08D0B44206D041280AD0142857
:1020600006D0422800D1B32070BD641CE4B2EDE775
:10207000432070BD2046E1E7FF21FFF7D7BF2B20AB
:1020800000F054B8682000F045B810B5222011F0D7
:1020900093F811F08AF8044611F05CF8204610BD60
:1020A00004480178012901D0002070470021017007
:1020B00001207047380000202DE9F04111F075F83B
:1020C000064611F072F8054611F06FF8044611F05B
:1020D0006CF8074611F03EF846EA052040EA044055
:1020E00040EA0760BDE8F08170B50546272011F091
:1020F00063F811F05AF80400264607D011F055F89D
:10210000641E05F8010B14F0FF04F7D111F022F85A
:10211000304670BD10B504460C2011F04DF8204635
:1021200011F05DF8BDE81040FFF7C6BF10B50446DA
:102130000A2011F041F8204611F051F811F035F85D
:10214000044611F007F8204610BD10B504464A2099
:1021500011F032F8E0B211F042F8C4F3072011F0A8
:102160003EF8C4F3074011F03AF8002011F037F8B8
:1021700010F0F0FFBDE810400AF032BC2DE9F0414C
:1021800015000F46804601D0002028704C2011F029
:1021900013F8384611F023F810F0DCFF0AF020FCA9
:1021A0000646142823D1272011F006F810F0FDFF71
:1021B00010F0FBFF044610F0F8FF10F0F6FF10F0EF
:1021C000F4FFFFF779FF014684B122464046FFF74E
:1021D000A3FE064614280AD108EB442815B1287836
:1021E00020442870381B10F0FF07CFD13046BDE8DF
:1021F000F08110B50C4610F0DFFF204610F0EFFF25
:1022000010F0A8FFBDE810400AF0EABB10B510F0CE
:10221000D3FF10F09FFFBDE810400AF0E1BB0000C3
:10222000014600E0491C0A78002AFBD106E000BF05
:1022300011F8012D5C2A03D02F2A01D08142F7D159
:10224000814200D0491C081AC0B2704770B50546DB
:10225000012010F0B1FF10F0A8FF432828D22B2056
:10226000FFF764FF102823D22F2010F0A5FF0020D5
:1022700010F0B5FF3220FFF7C9FF142818D1CF2086
:10228000FFF754FF040013D04C20FFF743FF00EB8F
:1022900004214C2000F051F85020FFF73BFF00EBE9
:1022A0000421502000F049F80021702000F045F88A
:1022B0002F2010F081FF2C7806E000BF15F8014FA9
:1022C0005C2C0AD02F2C08D0204610F088FF002C60
:1022D000F4D1BDE8704010F03DBF002010F07FFF4A
:1022E000F7E770B505460C462C2010F065FF204638
:1022F00010F075FF3CB1287810F071FF6D1C641E62
:1023000014F0FF04F7D1BDE8704010F023BF70B5A2
:1023100005462D2010F050FF10F047FF0400264620
:1023200007D0287810F05BFF6D1C641E14F0FF04CA
:10233000F7D110F00FFF304670BD70B505460C4662
:102340000D2010F039FF284610F049FFE0B210F0E0
:1023500046FFC4F3072010F042FFC4F3074010F01B
:102360003EFF200E10F03BFFBDE8704010F0F2BEC3
:1023700010B502F063FF0BF0E7FD08494FF4004091
:10238000086006480C38016821F0704141F0405166
:102390000160BDE8104001200BF0CABD10080140EB
:1023A00010B50446012150200BF08CFEC8B100206E
:1023B0000BF020FE207000200BF01CFE607000204F
:1023C0000BF018FEA07001200BF014FEE0700BF073
:1023D000B3FE002150200BF075FE0BF0ADFE012086
:1023E00010BD0BF0A9FE002010BDF8B50D46064645
:1023F0000BF0F2FD6846FFF7D3FF040011D09DF803
:1024000001009DF8001000EB0120C0F30D003080AA
:102410009DF803009DF8021000EB0120C0F38D0031
:1024200028800BF0E1FD2046F8BD10B504460021E0
:10243000D8200BF047FE60B306200BF011FE40B32E
:102440000121D8200BF03EFE18B300200BF0D2FD86
:10245000207000200BF0CEFD607000200BF0CAFD54
:10246000A07000200BF0C6FDE07001200BF0C2FD53
:1024700020710BF061FE0021D8200BF023FE3020EC
:102480000BF0EEFD0A200BF0EBFD0BF055FE0120EA
:1024900010BD0BF051FE002010BD7CB50D46064668
:1024A0000BF09AFD6846FFF7C0FF040014D09DF8BA
:1024B00000009DF80110000400EB01209DF80210BF
:1024C0009DF8032001449DF804004FF4205303EBD2
:1024D00002221044316028800BF086FD20467CBD2E
:1024E00030B50E480E4C00230078042234F810104A
:1024F000401CC0B20D46052800D3002034F810104F
:102500004D1BADB2521E2B4412F0FF02F0D1C3F3AB
:102510008F004FF4FA71484330BD000000000020E6
:10252000EC01002010B50446124911F05DF8124983
:1025300010F0A4FE214611F057F8104910F09EFE4D
:10254000214611F051F80E4910F098FE214611F085
:102550004BF80C4910F092FE214611F045F80A495B
:1025600010F08CFE214611F03FF8BDE810400749FD
:1025700010F084BE92EBD72CEEC70B310DBDA23408
:102580003E5ADE37774BBB3A45B8353D145C1C3FAD
:102590002DE9F04706461A4F0898984691468A4614
:1025A000002540B10CF0B6FB04461649884504DA14
:1025B0003046BDE8F0873C46F7E7134890F8330013
:1025C00018B15046FFF7AEFF05464946404610F0A9
:1025D00055FE294611F098F9214611F005F80446F8
:1025E0003946504610F04AFE084910F0FDFF3146CA
:1025F00010F0FAFF2146BDE8F04710F0B3BE00002E
:10260000339388436F12833A7C43002066A6CA4204
:102610002DE9F0411F4690460C4606460CF07AFB29
:1026200005460F49204610F029FE0E4910F0DCFF48
:1026300004464146384610F021FE294610F0D4FFEA
:10264000214610F08FFE314610F0CEFF0649884239
:1026500002DA0020BDE8F081BDE8F04110F0CDBA0B
:102660003393884366A6CA426F12833A2DE9FF4F1F
:1026700087B090460F461D46182220496846FEF74F
:10268000D8F80026012440F2013B40F2035A40F200
:10269000056900BF0BF064FD684603F0ADF858F81B
:1026A000251017A35A460A2007F00CFE37F815101C
:1026B00000235246484607F0BDFE2146684603F017
:1026C000B7F80446012807D0022C0ED0002CE1D127
:1026D0000BB03046BDE8F08F2B464246394607988E
:1026E00000F010F807E00126D4E707EB4501524659
:1026F000484602F053FA0028CCD0F4E7DC68010821
:102700004C2F6D002DE9FF4F8DB0002004908F48B5
:102710001F460E46848831F8175008880A90B1F891
:1027200002B0B1F804A0B1F806904FF0010852F8D9
:102730002700874910F058FF4FF07C5110F09EFDA4
:1027400010F0D2FE81490D9A01EB42010691888278
:1027500001210D9805F01AFB0BF002FD7DA1002070
:1027600003F01AF8F580B580758035800D980CF06F
:10277000E5FA03907AA1002003F00EF8002340F25E
:10278000035229460A2007F055FE78A14FF4407005
:1027900003F002F877A340F2036240F20530039998
:1027A00007F090FD74A14FF4C06002F0F5FF0D98A2
:1027B00005F0D6FA014640F2056007F069FE642094
:1027C0000CF010FB0028D1D00CF04EF9112856D097
:1027D00008DC01281AD0042878D0092877D01028DE
:1027E00013D106E0212873D0402808D041280CD10D
:1027F00062E042F20F70854205D26D1C02E0632D4B
:1028000001D96D1EADB20120049089E006986421C3
:10281000808A4843059004214FF4407002F0B2FFD3
:1028200040F2036205A940F2053002F0C5F900B399
:1028300001200490059810F08FFE0290642D19D3AA
:10284000039810F0FF4F17D0284610F085FE05467C
:102850000698808A10F080FE294610F083FD01461C
:10286000029810F07FFD464910F07CFD10F03CFE10
:1028700085B201E04FF47A750BF072FC50E040F63F
:102880000200844201D2641CA4B2642111200FF022
:10289000EDF850B138E0641CA4B2204610F05CFEA4
:1028A000384910F0A1FE01F0FBFC032111200FF0CC
:1028B000DDF80028EFD027E0C82C01D9641EA4B2AF
:1028C000642141200FF0D2F868B11DE02CE011E046
:1028D00016E0641EA4B2204610F03EFE294910F016
:1028E00083FE01F0DDFC012141200FF0BFF800283C
:1028F000EFD009E040F29E70844205D2643402E0D9
:10290000DC2C01D9143CA4B2204610F025FE1D4950
:1029100010F06AFE01F0C4FC0C48848000F06AFFED
:10292000B8F1000F7FF41EAF00210D9805F02EFACC
:102930000A983080A6F802B0A6F804A0A6F806907F
:1029400026F81750049811B0BDE8F08F7C430020A2
:1029500000002041B5F7CAD4C1F7C1BF0000000094
:10296000C1F7C1BFB1B6C2CA3A000000C1F7C1BFCA
:102970003A0000004C2F6D00CAE4B3F63A000000A4
:102980000000C8420AD7233C2DE9F04F89B08346A6
:1029900020223A496846FDF74CFF3949002001EBF7
:1029A000CB0701243C3740F203560890BBF1010FDE
:1029B00005D0BBF1020F02D040F2015A00E0B2464E
:1029C000304940F2052801EB4B0540F2056900BF94
:1029D0000BF0C6FB684602F00FFF5946092007F0CE
:1029E00083FEA98A28A35246404607F023FD398872
:1029F00000233246484607F01DFD2146684602F096
:102A000017FF04000FD0012C24D0022C2DD0032C52
:102A1000E7D132463946484602F0C0F80028E0D0F7
:102A200001200890DDE7089800280AD0232117A08C
:102A300003F0F2FB062807D0072808D00124002C59
:102A4000C6D109B0BDE8F08F00F088FAF9E700F0D0
:102A50001BFAF4E705F114015246404602F09EF8D5
:102A60000028BED000F0C6FEBBE73946584600F04D
:102A700015F80028ACD001200890A9E7BC6801082F
:102A8000084300207C4300204C2F6D00B1A3B4E626
:102A9000B1EAB6A8CAFDBEDD203F00002DE9FF5F08
:102AA000804600200746039083460290B5480D46B5
:102AB00040F203568488002001905FEA080005D0A8
:102AC000012855D0B8F1020F04D151E040F2015B6A
:102AD000ADA001900BF044FB0121404605F056F9F2
:102AE000A84901EB480A40460CF028F98146B8F1A4
:102AF000000F3FD04E46A5A1002002F04DFE2988D0
:102B0000002340F203520A2007F094FCA2A14FF4E4
:102B1000407002F041FE5A46494640F20530019BA2
:102B200007F0D0FB9EA14FF4C06002F035FE404696
:102B300005F016F9014640F2056007F0A9FC642093
:102B40000CF050F90028CED00BF08EFF112877D072
:102B500040DC012856D0042873D0092872D01028F0
:102B6000C1D1288842F20F71884249D2401C46E008
:102B7000B346ADE70BF08AFF06460CF097F8014626
:102B800000200246009033464846FFF701FD064606
:102B90007EA1002002F000FE2988002340F20352AB
:102BA0000A2007F047FC80A14FF4007002F0F4FD0A
:102BB0005A46314640F20520019B07F083FB76A17F
:102BC0004FF4806002F0E8FD5A46494640F2054065
:102BD000019BA5E721287CD040280CD0412882D138
:102BE000C82C01D9641EA4B2642141200EF03EFF1E
:102BF00000286FD0AFE02888632801D9401E2880C4
:102C0000012770E7BAF814000290B8F1000F4FF0F6
:102C1000040118D04FF4407002F0B4FD40F20352AA
:102C200002A940F2053001F0C7FF0028E9D00127D2
:102C3000029810F091FC81462888642834D230E054
:102C40004DE097E07DE04FF4007002F09BFD40F214
:102C5000015202A940F2052001F0AEFF0028D0D0B9
:102C60000127029810F078FC81462888642818D340
:102C700016F0FF4F10D010F06FFC06464148808AD6
:102C800010F06AFC314610F06DFB0146484610F02A
:102C900069FB10F029FC288040460CF04FF8814673
:102CA00068E74FF47A7018E016F0FF4FA9D010F0E3
:102CB00053FC0646BAF8140010F04EFC314610F0F2
:102CC00051FB0146484610F04DFB394910F04AFBD4
:102CD00001E03CE02DE010F007FC288003E740F61F
:102CE0000200844201D2641CA4B2642111200EF0BF
:102CF000BDFE58B12FE0641CA4B2204610F02CFC9D
:102D0000314610F071FC01F0CBFA00E0294E0321AE
:102D100011200EF0ABFE0028EDD01CE0641EA4B222
:102D2000204610F019FC314610F05EFC01F0B8FAB4
:102D300000E0204E012141200EF098FE0028EDD049
:102D400009E040F29E70844205D2643402E0DC2C3B
:102D500001D9143CA4B2204610F0FEFB154910F036
:102D600043FC01F09DFA0748848000F043FD03987E
:102D70000028B3D00021404605F008F804B03846DA
:102D8000BDE8F09F7C4300204C2F6D00C1F7C1BF10
:102D9000B1B6C2CA3A000000B1EABFF63A0000007C
:102DA000CAE4B3F63A000000B9A4BFF63A00000046
:102DB0000000C8420AD7233C2DE9F0472A49804643
:102DC00001EB0800294990F82460012401EBC800B8
:102DD000002500F13C0A012E15D0022E42D1244FCD
:102DE000DFF890900BF0BCF9384602F005FD214663
:102DF000384602F01DFD0446052831D2DFE800F018
:102E000006181E282C001A4F283FE9E7002D29D06C
:102E1000232119A003F000FA062805D0072821D1A4
:102E2000BDE8F04700F030B8BDE8F04700F096B8D4
:102E300009EB0612002304E00125D3E709EB061293
:102E4000012351464046FFF711FC0028CAD0F3E7A2
:102E500009EB06120223F4E709EB06120323F0E75D
:102E6000002CBFD1BDE8F0877C4300200843002040
:102E70001C690108D4670108B1A3B4E6B1EAB6A899
:102E8000CAFDBEDD203F000010B5062231494FF4D7
:102E9000807002F04FF82F4845F6A5214FF47A7460
:102EA00082888A4203D0E2000280448081807222BC
:102EB0002949802002F03EF8274845F6A422B0F8C0
:102EC0007010914244D046F6B321A0F86410A0F8E7
:102ED0006810A0F86C10A0F86640A0F86A40A0F84E
:102EE0006E4041818181C181018241820485448596
:102EF0008485C48504864FF400410180418081802F
:102F0000C18001818182C182018341838183C48325
:102F1000048444848484C48444868486C486048768
:102F200044878487A0F84440A0F84C40A0F854405F
:102F3000A0F85640A0F85840A0F85A40A0F85C40CD
:102F4000A0F85E40A0F86040A0F86240A0F87020B1
:102F500010BD0000B00100200843002010B506227B
:102F600005494FF4807001F0F5FF7222BDE8104072
:102F70000249802001F0EEBFB0010020084300208C
:102F800010B50BF0EDF805A1002002F005FC0221C0
:102F9000BDE81040012002F095B90000C8D5BEF987
:102FA00020D7D4B6AFB5F7C1E300000010B50BF0E1
:102FB000D7F805A1002002F0EFFB0421BDE8104086
:102FC000032002F07FB90000CAB1BEF920D7D4B601
:102FD000AFB5F7C1E300000010B50BF0C1F805A1D3
:102FE000002002F0D9FB0021BDE81040084602F0A5
:102FF00069B90000B7DBB3BE20D7D4B6AFB5F7C10F
:10300000E30000002DE9F14F88B0182278496846A6
:10301000FDF70FFC774808990125848876484FF41E
:10302000A06900EB410606F114073236002040F299
:10303000054A40F2035B40F20528069001E007983C
:1030400050B10BF08DF8684602F0D6FB09200899C4
:1030500007F04AFB00200790398800234A46504673
:1030600007F0E8F9318800235A4640F2056007F07E
:10307000E1F92946684602F0AFFB60A14FF4007009
:1030800002F08AFB08980BF0F3FD01465DA340F2C5
:103090000262404607F016F919200BF0A3FE002843
:1030A000EBD02946684602F097FB0BF0DDFC1128B7
:1030B0004AD008DC012819D004282FD009287DD057
:1030C000102817D10CE021287ED0402802D04128BA
:1030D00010D156E06D1CEDB2032D0BD3012509E094
:1030E000012D00D803256D1EEDB203E0012D06D0A1
:1030F000022D08D0002DAFD109B0BDE8F08F4A46AF
:103100003946504603E05A46314640F2056001F028
:1031100045FD0028A0D0012006909DE706980028D4
:10312000EAD0232138A003F077F8062802D0072838
:1031300006D102E0FFF712FFDEE7FFF7A5FE00254C
:10314000002D7FF47BAFD7E740F60200844201D226
:10315000641CA4B2642111200EF088FC50B137E049
:10316000641CA4B2204610F0F7F92B4910F03CFA89
:1031700001F096F8032111200EF078FC0028EFD022
:1031800026E0C82C01D9641EA4B2642141200EF0AF
:103190006DFC50B11CE0641EA4B2204610F0DCF9B6
:1031A0001D4910F021FA01F07BF8012141200EF0B9
:1031B0005DFC0028EFD00BE000E005E040F29E70DF
:1031C000844205D2643402E0DC2C01D9143CA4B260
:1031D000204610F0C1F9104910F006FA01F060F82D
:1031E0000448848000F006FB002D7FF428AF83E7BD
:1031F0008C6801087C43002008430020BCC6D1B97C
:103200003A0000006B506100B1A3B4E6B1EAB6A881
:10321000CAFDBEDD203F00000AD7233C2DE9F14F57
:10322000724882B001258488714802994FF4007B6E
:1032300000EB410606F10A070020283640F2052976
:1032400040F2026840F2035ACDF800000AF088FF0D
:103250002946684802F0C0FA664802F0CDFA092013
:10326000029907F041FA39880023424640F20540AE
:1032700007F0E0F831880023524640F2056007F07D
:10328000D9F829465B4802F0A7FA5BA1584602F03C
:1032900083FA02980BF00CFD014659A342464846BA
:1032A00007F010F819200BF09DFD0028EDD00BF071
:1032B000DBFB112845D008DC012819D004282CD0CC
:1032C000092878D010280CD10CE0212879D040288A
:1032D00002D0412805D151E06D1CEDB2032D00D381
:1032E00001257EE0012D00D803256D1EEDB278E0AA
:1032F000012D02D0022D74D104E04246394640F23D
:10330000054003E05246314640F2056001F046FCBC
:1033100000289BD00120009098E70098002862D0F8
:10332000232138A002F078FF062802D0072858D1C0
:1033300003E0BDE8FE4FFFF711BEFFF7A5FD002536
:103340004FE040F60200844201D2641CA4B2642122
:1033500011200EF08BFB50B137E0641CA4B2204664
:1033600010F0FAF82B4910F03FF900F099FF032113
:1033700011200EF07BFB0028EFD026E0C82C01D9ED
:10338000641EA4B2642141200EF070FB50B11CE019
:10339000641EA4B2204610F0DFF81E4910F024F994
:1033A00000F07EFF012141200EF060FB0028EFD0ED
:1033B0000BE000E005E040F29E70844205D26434E8
:1033C00002E0DC2C01D9143CA4B2204610F0C4F871
:1033D000104910F009F900F063FF0448848000F000
:1033E00009FA002D98D1BDE8FE8F00007C43002033
:1033F0000843002074680108CEC2B6C83A00000035
:10340000A1E60000B1A3B4E6B1EAB6A8CAFDBEDDEC
:10341000203F00000AD7233C2DE9F14F88B0182245
:1034200078496846FDF705FA7748089901258488A8
:1034300076484FF4A06900EB4107002007F11E0613
:1034400040F2054A40F2035B40F20528069001E095
:10345000079850B10AF084FE684602F0CDF90920C1
:10346000089907F041F900200790398800234A465F
:10347000504606F0DFFF318800235A4640F20560CF
:1034800006F0D8FF2946684602F0A6F960A14FF47D
:10349000007002F081F908980BF084FC01465EA3ED
:1034A00040F20362404606F00DFF19200BF09AFC33
:1034B0000028EBD02946684602F08EF90BF0D4FACA
:1034C00011284AD008DC012819D004282FD0092857
:1034D0007DD0102817D10CE021287ED0402802D0C2
:1034E000412810D156E06D1CEDB2032D0BD3012500
:1034F00009E0012D00D803256D1EEDB203E0012D7A
:1035000006D0022D08D0002DAFD109B0BDE8F08F54
:103510004A463946504603E05A46314640F2056075
:1035200001F03CFB0028A0D0012006909DE7069802
:103530000028EAD0232139A002F06EFE062802D02E
:10354000072806D102E0FFF709FDDEE7FFF79CFC44
:103550000025002D7FF47BAFD7E740F602008442C0
:1035600001D2641CA4B2642111200EF07FFA50B184
:1035700037E0641CA4B220460FF0EEFF2B4910F098
:1035800033F800F08DFE032111200EF06FFA0028B1
:10359000EFD026E0C82C01D9641EA4B264214120DA
:1035A0000EF064FA50B11CE0641EA4B220460FF085
:1035B000D3FF1E4910F018F800F072FE01214120DF
:1035C0000EF054FA0028EFD00BE000E005E040F2E6
:1035D0009E70844205D2643402E0DC2C01D9143C94
:1035E000A4B220460FF0B8FF10490FF0FDFF00F025
:1035F00057FE0548848000F0FDF8002D7FF428AFC9
:1036000083E70000A46801087C43002008430020F1
:10361000B2EED1B93A0000006B506100B1A3B4E63C
:10362000B1EAB6A8CAFDBEDD203F00000AD7233CA0
:1036300070B5442207494FF4C07001F07BFC054C83
:1036400045F63C25A08EA84202D000F005F8A586DC
:1036500070BD00007C43002000B500F01DF80D484F
:10366000007848B101280BD002280DD003280FD1D3
:103670005DF804EB00F09CB85DF804EB00F058B87E
:103680005DF804EB00F074B85DF804EB00F02EB8C0
:1036900000BD00007C43002012484FF49671F022D8
:1036A000818100218173417242810122C273827043
:1036B000C170027442F29573438240F226238380E4
:1036C000322383710223C3714FF47A738385C385D8
:1036D0006423038680F833100349016480F83C209A
:1036E000704700007C430020D9AB090010B50F489B
:1036F0000224002100F8144C01744FF47A72028005
:103700004174C8224280817482800123C3740522DF
:10371000C2800375028141754FF4FA714181828143
:10372000C28100F80C4C837710BD0000904300204C
:103730000E480021012300F8141C03744FF47A7220
:1037400002804174C822428081748280C174052243
:10375000C2800175028143754FF4FA7343818281FF
:10376000C281022200F80C2C817770479043002020
:103770000E4801214FF47A7200F8141C0174028083
:1037800000224274C823438082748380C17405235D
:10379000C3800175038142754FF4FA7141818381C1
:1037A000C381022100F80C1C8277704790430020EF
:1037B0000F4803214FF47A7200F8141C01210174A0
:1037C00002804174C8224280817482800021C174C9
:1037D0000522C2800175028141754FF4FA7343815D
:1037E0008281C281022200F80C2C81777047000090
:1037F00090430020442202494FF4C07001F0AABB5C
:103800007C4300202DE9F05F0025394C2E4640F224
:10381000015740F207384FF4AF6A40F207594FF4AE
:10382000FA6B00BF0AF09CFC324801F0E5FFA18A68
:1038300031A33A46404606F0FDFD618D31B130A31B
:1038400040F20252484606F0F5FD03E02EA148463C
:1038500001F0A2FF6D1CE9B2264801F0E9FF050066
:103860001AD0012D2ED0022DE1D1618D24A340F27A
:103870000252484606F0DEFD1D4940F202522A314E
:10388000484601F08BF90028D1D0618D594501D906
:10389000A4F82AB00126CAE7002E27D023211DA0B4
:1038A00002F0BAFC02280BD0062805D007281DD14B
:1038B000BDE8F05FFFF7BCBEBDE8F05FFFF79ABF61
:1038C0000125AFE70A493A461431404601F066F94E
:1038D0000028ACD0A08A504502D9A4F814A0D9E79A
:1038E0004FF416718842D5D2A182D3E7BDE8F09F8C
:1038F0007C430020746C0108204C2F6D00000000F8
:10390000206B506100000000205BCDA3D3C35D207D
:1039100020000000B1A3B4E6D0DEB8C4BDE1B9FB1D
:10392000203F00002DE9F05F0025344C2F4640F287
:10393000063840F2035640F206594FF4967A4FF09B
:10394000640B00BF0AF00CFC2D4801F055FFE18A22
:103950002CA33246404606F06DFD218B29A332464A
:10396000484606F067FD6D1CE9B2254801F060FF8E
:10397000050011D0012D25D0022DE8D11F49324676
:103980001831484601F00AF90028E0D0218B514552
:103990002BD9A4F818A02CE0002F2CD023211BA099
:1039A00002F03AFC02280BD0062805D0072822D1C5
:1039B000BDE8F05FFFF73CBEBDE8F05FFFF71ABF60
:1039C0000125BFE70D4932461631404601F0E6F8C1
:1039D0000028BCD0E18A514502D9A4F816A008E01D
:1039E000642906D2A4F816B003E0642901D2A4F831
:1039F00018B00127ABE7BDE8F09F00007C43002032
:103A00004C6C0108204C2F6D00000000B1A3B4E6FF
:103A1000D0DEB8C4BDE1B9FB203F00002DE9F05F66
:103A20000025424C2F4640F2015940F2062840F250
:103A3000064B40F2035640F2066A00BF0AF090FBC4
:103A40003B4801F0D9FEA18A3AA34A46404606F017
:103A5000F1FCE18A37A33246584606F0EBFC218B95
:103A600034A33246504606F0E5FC6D1CE9B23048FE
:103A700001F0DEFE050014D0012D28D0022D39D032
:103A8000032DE0D1294932461831504601F086F81D
:103A90000028D8D0208B4FF4967188423ED92183DC
:103AA00040E0002F40D0232124A002F0B5FB0228E3
:103AB0000BD0062805D0072836D1BDE8F05FFFF708
:103AC000B7BDBDE8F05FFFF795BE0125B6E7174922
:103AD0004A461431404601F061F80028B3D0A08A6C
:103AE0004FF4AF61884203D84FF41671884219D25F
:103AF000A18217E00D4932461631584601F04EF8C2
:103B00000028A0D0E08A4FF49671884201D9E18262
:103B100008E0642806D26420E08203E0642801D231
:103B20006420208301278EE7BDE8F09F7C430020BE
:103B30008C6C0108204C2F6D00000000B1A3B4E68E
:103B4000D0DEB8C4BDE1B9FB203F00002DE9F84F3D
:103B5000DFF8E8B0012500269BF80940BBF80A0011
:103B6000ADF8000040F2015740F20958DFF8D0905C
:103B700040F2093A0AF0F4FA3148183001F03CFEFC
:103B800004EB440109EB4101504601F005FE2DA371
:103B90003A46BDF80010404606F04CFC284829463D
:103BA000183001F045FE050023D0012D1DD0022D57
:103BB000E6D13A466946404600F0F0FF0028DFD0E3
:103BC000BDF80000962804D29620ADF800000AF057
:103BD00094F9BDF800104FF49670814203D9ADF806
:103BE00000000AF08AF90126CAE7641C04F0030405
:103BF000F9E7002E0BD0232113A002F00DFB0228C1
:103C00001AD0062805D0072801D1FFF711FDBDE81D
:103C1000F88F8BF80940BDF800005D46ABF80A004C
:103C2000FFF7E8FD68890FF097FC0B490FF0DCFC0B
:103C3000697A0EF037FDEAE701259BE77C43002017
:103C4000AC6B0108A1E60000B1A3B4E6C5E4D6C39D
:103C5000CAFDBEDD203F0000CDCCCC3D2DE9F84FA4
:103C6000DFF804B10125414F9BF80E40BBF80C0072
:103C7000ADF80000002640F2015940F2096A40F216
:103C8000093800BF0AF06CFA6CB1384810F18000B6
:103C900001F0B2FD57F82410404601F07DFD012CE3
:103CA00004D09CB309E031489830F1E730A34A468C
:103CB000BDF80010504606F0BDFB2C482946803068
:103CC00001F0B6FD05002BD0012D24D0022DE1D14D
:103CD000012CD7D14A466946504600F05FFF0028C4
:103CE000D0D0BDF80000962804D29620ADF8000090
:103CF0000AF003F9BDF800104FF4AF70814203D908
:103D0000ADF800000AF0F9F80126BBE7FFE7174815
:103D100029469830D4E70CB10024F5E70124F3E7F5
:103D2000002E0BD0232113A002F076FA022819D01E
:103D3000062805D0072801D1FFF77AFCBDE8F88FE7
:103D4000BDF80000ABF80C005D468BF80E40FFF7A5
:103D500051FDA8890FF000FC0A490FF045FC0EF058
:103D6000B5FCEBE701258DE77C4300205C6B010887
:103D7000A1E60000B1A3B4E6C5E4D6C3CAFDBEDD2A
:103D8000203F0000CDCCCC3D2DE9F0470125002699
:103D90000AF0E6F91C4F4FF480694FF000081B4C05
:103DA0000AF0DEF918482C3001F026FD607857F84B
:103DB0002010484601F0F0FC134829462C3001F051
:103DC00037FD054601280DD0002DE9D1002E19D070
:103DD00004210FA002F020FA06280FD0BDE8F0471A
:103DE000FFF726BC0AF0BCF96078401CC0B26070D6
:103DF000072801D384F801800126D1E7BDE8F04708
:103E0000FFF7F8BCBDE8F087D06501087C430020CF
:103E1000B1A3B4E6C5E4D6C33F0000002DE9F047E6
:103E2000012500261C4F1D4C40F20549B04600BF3D
:103E30000AF096F918484C3001F0DEFC207857F86B
:103E40002010484601F0A8FC134829464C3001F0E8
:103E5000EFFC054601280DD0002DE9D1002E19D028
:103E600004210FA002F0D8F906280DD0BDE8F047D4
:103E7000FFF7DEBB20780126401CC0B2207004286A
:103E8000D6D384F80080D3E7FFF7E6FBBDE8F04720
:103E9000FFF7B0BCBDE8F087C06501087C43002097
:103EA000B1A3B4E6C5E4D6C33F0000002DE9F04756
:103EB0000025284C2F4640F2025840F207364FF4B6
:103EC000FA6900BF0AF04CF9234801F095FC618DB6
:103ED00029B122A34246304606F0ACFA03E021A104
:103EE000304601F059FC6D1CE9B21B4801F0A0FC02
:103EF000050016D0012DEAD1618D18A34246304647
:103F000006F098FA134942462A31304600F046FE40
:103F10000028DCD0618D494501D9A4F82A900127F9
:103F2000D5E7002F13D0232111A002F075F9022844
:103F30000BD0062805D0072809D1BDE8F047FFF7C8
:103F400077BBBDE8F047FFF755BC0125BAE7BDE8F0
:103F5000F08700007C430020646C0108206B5061F6
:103F600000000000205BCDA3D3C35D202000000033
:103F7000B1A3B4E6D0DEB8C4BDE1B9FB203F000078
:103F80002DE9FF5F9448DFF854820125D0E9001243
:103F9000CDE90212D0E90210CDE900100DF1080BB5
:103FA000A8F107064FF003098D48002490F824106B
:103FB00061B1012902D0022905D101E0002100E010
:103FC000012188F8001000213170012490F825109B
:103FD00069B1012902D0022906D103E0022108F8C3
:103FE000041001E008F8049001213155641C90F898
:103FF000261069B1012902D0022906D103E002226C
:1040000008F8042001E008F8049002213155641CEE
:1040100090F8271069B1012902D0022906D103E0E6
:10402000022208F8042001E008F8049006F8049041
:10403000641C90F8281069B1012902D0022906D128
:1040400003E0022108F8041001E008F804900421BC
:104050003155641C90F8291061B1012902D0022960
:1040600005D101E0042200E0052208F80420052122
:104070003155641C007A90B1012808D0022802D082
:10408000032809D105E0062008F8040004E0072110
:1040900000E0082108F8041006203055641C022DA9
:1040A0002AD0032D4DD00AF05BF80027A7421ED27C
:1040B000032C01D84BA100E04EA1002001F06CFBC5
:1040C000B7FBF9F109FB117A4349F25D10313BF876
:1040D0001A0051F8221001F05FFB3F4918F8072041
:1040E0002C313DF81A0051F8221001F055FB7F1CCD
:1040F000FFB2032FDAD348E00AF032F8032741A1D8
:10410000002001F049FBA74216D2B7FBF9F109FBE9
:10411000117A3149F25D10313BF81A0051F8221042
:1041200001F03AFB2C4918F807202C313DF81A0011
:1041300051F8221001F030FB7F1CFFB2062FDED3B6
:1041400023E00AF00DF8062732A1002001F024FB3D
:10415000A74216D2B7FBF9F109FB117A1E49F25DAD
:1041600010313BF81A0051F8221001F015FB1A49E2
:1041700018F807202C313DF81A0051F8221001F0F0
:104180000BFB7F1CFFB2092FDED3A41CB4FBF9F09C
:10419000C4B20AF069FC082818D007DC012803D053
:1041A000022810D004280ED1BDE8FF9F102804D0AB
:1041B000202802D0402806D108E06D1E15F0FF052A
:1041C0007FF4F2AE2546002DFAD1EDE76D1CEDB27D
:1041D000A542F8D90125E7E6EC6D0108BD010020F4
:1041E0007C430020B1C3B0B2D7B0C7E9BFF62020EE
:1041F00000000000B1C3B0B2D7B0C7E9BFF62031AC
:1042000000000000B1C3B0B2D7B0C7E9BFF620329A
:1042100000000000B1C3B0B2D7B0C7E9BFF6203389
:10422000000000002DE9FF5F00249B4691468A466E
:10423000264625463AF814000FF08EF917490FF07C
:10424000D3F9B04659F8246001462F4630460FF0A6
:1042500089F80546014600980FF092FA03D2641CD3
:10426000E4B25C45E6D3394628460FF04DFB0446E0
:10427000414630460FF048FB21460FF073F80446E4
:10428000394600980FF040FB21460FF0ADF904B01D
:104290004146BDE8F05F0EF0F1BF00006F12833AB7
:1042A00002490A78012A00D148607047280000209E
:1042B00001494870FDF7AEBC280000200A4980B1D2
:1042C000012806D0022807D0032808D04FF0FF307D
:1042D00007E043F6982004E047F2305001E04EF644
:1042E00060204860704700000800002010B506F00C
:1042F000ECFC074928B101200870BDE8104006F029
:1043000057BC00200870BDE8104001F0D3BF00008A
:1043100028000020C0B2202800D27F20024901EBF3
:104320000010A0F500707047F03A010870B5C0B2F7
:104330000123104C60F31F21E4229818400804EB7D
:10434000400514F810606D7805EB0625ADB2A94262
:1043500003D1094901EB401070BD03D900F1010000
:1043600083B202E0A0F1010082B29342E5D9024893
:1043700070BD0000F0400108BA42010870B50C465B
:10438000064615460021A02009F09CFE60B1300AC7
:1043900009F066FE40B1F0B209F062FE20B10121E1
:1043A000A02009F08FFE48B909F0C6FE002070BDBC
:1043B000002009F01FFEC04304F8010B6D1E15F02C
:1043C000FF05F5D1012009F015FEC043207009F06A
:1043D000B3FE012070BD000070B50C4606461546C0
:1043E0000021A02009F06EFE08B3300A09F038FE63
:1043F000E8B1F0B209F034FEC8B100BF14F8010B07
:10440000C043C0B209F02CFE88B16D1E15F0FF0547
:10441000F4D109F091FEA0254FF4C874002128467C
:1044200009F050FE30B109F087FE012070BD09F09F
:1044300083FE03E0641E2404240CEFD1002070BD31
:1044400010B501F0F1F810BD0349012008700349CF
:104450004003086070470000380000201404014049
:1044600010B501F0E1F810BD10B501F0DDF810BD98
:1044700010B501F0D9F810BD10B501F0D5F810BD98
:1044800010B501F0D1F810BD2DE9F34FDF4897B01A
:104490004FF00108858803A91898FCF717FB0898C6
:1044A000DFF86CB300F26C7087B207984FF4FA6AC9
:1044B000401CC4B2069840F63309C6B223463A46B9
:1044C000D4A111A80096FBF785FF11A9179801F058
:1044D00063F94046B8F1010F05D0022806D0B8F1C3
:1044E000030F08D116E00421179802E01798401D29
:1044F00012E001F047F90AF0B7FA10282DD00EDCCF
:104500000A28DBD2DFE800F005F00505EF05050518
:10451000EEEDD3E71798083080B20221E9E72128B1
:104520006FD00BDC11286DD02028C7D1A8F1010075
:1045300010F0FF08C2D103208046BFE740287FD09B
:104540004128BBD1C82D01D96D1EADB264214120D7
:104550000DF08CFA002872D04BE14046B8F1010F03
:104560000BD002282BD0B8F1030FA7D13C2110208B
:104570000DF07CFA00285AD026E03C2110200DF0E6
:1045800075FAA8B17F1CBFB24F4500D9574691E0DC
:104590007F1CBFB24F4500D9574623463A469DA1DE
:1045A00011A80096FBF716FF11A9179801F0F4F86F
:1045B0000F2110200DF05AFA0028E9D07AE03C21B2
:1045C00010200DF053FAA8B1641CE4B20C2CA0D951
:1045D000012473E7641CE4B20C2C00D901242346A7
:1045E0003A468CA111A80096FBF7F4FE11A9179882
:1045F00001F0D2F80F2110200DF038FA002888D1F0
:10460000E8E7F2E0BDE02146384609F0B3FD761C4C
:10461000F6B2B04200D2012623463A467DA111A847
:104620000096FBF7D7FE11A9179801F0B5F80F21F6
:1046300010200DF01BFA0028CBD1E4E700E0C7E022
:104640004046B8F1010F14D002283FD0B8F1030F53
:10465000BFD13C2140200DF009FA002870D0761E11
:1046600016F0FF06B5D12146384609F083FD06460F
:1046700024E73C2140200DF0F9F9A8B17F1EBFB21C
:10468000574517D24F4615E07F1EBFB2574500D29F
:104690004F4623463A465FA111A80096FBF79AFEC3
:1046A00011A9179801F078F80F2140200DF0DEF9DC
:1046B0000028E9D023463A4656A111A80096FBF7F8
:1046C00089FE11A9179801F067F80CE73C214020FA
:1046D0000DF0CCF9C8B1641E14F0FF04C8D10C244D
:1046E000ECE67CE033E04AE03AE0641E14F0FF04BC
:1046F00000D10C2423463A4646A111A80096FBF7A8
:1047000069FE11A9179801F047F80F2140200DF01C
:10471000ADF90028ACD1E8E7761E16F0FF0604D10B
:104720002146384609F026FD064623463A4639A179
:1047300011A80096FBF74EFE11A9179801F02CF86E
:104740000F2140200DF092F9002891D1E4E708F103
:10475000010000F0FF08B8F1030F89D90120EBE652
:10476000641ECDE90664A7F26C7703A80897FCF7EE
:10477000F6F818990860012019B0BDE8F08F002004
:10478000FAE740F60200854201D26D1CADB2642109
:1047900011200DF06BF950B12BE06D1CADB2284625
:1047A0000EF0DAFE59460EF01FFFFFF779FD0321E8
:1047B00011200DF05BF90028EFD01AE06D1EADB2AC
:1047C00028460EF0C9FE59460EF00EFFFFF768FDB1
:1047D000012141200DF04AF90028EFD009E040F214
:1047E0009E70854205D2643502E0DC2D01D9143D6E
:1047F000ADB228460EF0B0FE59460EF0F5FEFFF7BA
:104800004FFD02488580FEF7F5FF57E67C43002008
:104810000AD7233C253034752D253032752D2530AF
:10482000327500002DE9F04FDFF858938A4691B0B9
:1048300083460125B9F8044001A95046FCF746F922
:104840001827DFF844833C260198DDE90232009006
:10485000CEA10CA8FBF7BEFD0CA9584600F09CFFAA
:10486000012D04D0022D05D0032D08D116E0022120
:10487000584602E00BF1030012E000F083FF0AF05B
:10488000F3F810282BD00EDC0A28DDD2DFE800F088
:1048900005EF0505EE050505EDECD5E70BF1060086
:1048A00080B20221E9E721287DD009DC11287BD0E4
:1048B0002028C9D16D1E15F0FF05C5D10325C3E71A
:1048C00040287DD04128BFD1C82C01D9641EA4B294
:1048D000642141200DF0CAF8002867D044E1012D81
:1048E0000CD0022D2CD0032DAED13C2110200DF088
:1048F000BDF800285DD00198401C6FE03C211020DD
:104900000DF0B4F8A8B10398401C74E00398401C63
:10491000B0FBF7F107FB110003900198DDE90232CB
:1049200000909AA10CA8FBF755FD0CA9584600F081
:1049300033FF0F2110200DF099F80028E6D079E020
:104940003C2110200DF092F8A8B10298401C85E09F
:104950000298401CB0FBF6F106FB11000290019892
:10496000DDE90232009089A10CA8FBF733FD0CA908
:10497000584600F011FF0F2110200DF077F80028A5
:104980008BD1E5E70198DDE90232401CB0FBF6F17E
:1049900006FB1100019000907CA10CA8FBF71AFD0A
:1049A0000CA9584603E0DBE095E009E0BAE000F02E
:1049B000F3FE0F2110200DF059F8002894D1E1E703
:1049C000012D11D0022D42D0032D8DD13C2140204C
:1049D0000DF04CF8002877D001983B30B0FBF6F191
:1049E00006FB110001902FE73C2140200DF03EF81E
:1049F000D0B103981730B0FBF7F107FB110003901B
:104A000018E003981730B0FBF7F107FB1100039093
:104A10000198DDE9023200905CA10CA8FBF7DAFCFA
:104A20000CA9584600F0B8FE0F2140200DF01EF8EA
:104A30000028E6D00198DDE90232009053A10CA8CD
:104A4000FBF7C8FC0CA9584600F0A6FE0FE73C2176
:104A500040200DF00BF8F0B102983B30B0FBF6F1BE
:104A600006FB11000290EFE674E062E070E066E0A1
:104A700002983B30B0FBF6F106FB11000290019862
:104A8000DDE90232009041A10CA8FBF7A3FC0CA9C0
:104A9000584600F081FE0F2140200CF0E7FF00286F
:104AA000A1D1E5E70198DDE902323B30B0FBF6F138
:104AB00006FB11000190009034A10CA8FBF78AFCC2
:104AC0000CA9584600F068FE0F2140200CF0CEFFE4
:104AD000002888D1E6E740F60200844201D2641C37
:104AE000A4B2642111200CF0C1FF50B13CE0641C61
:104AF000A4B220460EF030FD41460EF075FDFFF7E2
:104B0000CFFB032111200CF0B1FF0028EFD02BE0E8
:104B1000641EA4B220460EF01FFD41460EF064FD57
:104B2000FFF7BEFB012141200CF0A0FF0028EFD0D1
:104B30001AE06D1CEDB2032D95D9012584E601A87C
:104B4000FBF70DFFCAF80000012011B0BDE8F08F9F
:104B50000020FAE740F29E70844205D2643402E0FD
:104B6000DC2C01D9143CA4B220460EF0F5FC4146E1
:104B70000EF03AFDFFF794FBA9F80440FEF73AFE69
:104B800062E600007C4300200AD7233C25303275C2
:104B90003A253032753A25303275000038B50C466A
:104BA00009880091694600F007F8002802D00098B3
:104BB0002080012038BD00002DE9F74F90B000257E
:104BC0001198904612F0FF070168714884884FEAF7
:104BD0001220814601D0A9F10100C6B26D48A6EBB2
:104BE000070A50F82600B1FBF0F200FB121B5846F2
:104BF0000EF0B2FC6749283151F827100EF0B2FBD5
:104C00000EF010FBCDE9000108F0FF034A4662A157
:104C10000AA8FBF7DFFB0AA9109800F0BDFD109869
:104C2000AA45284400DC401C80B2012100F0AAFD06
:104C3000681C0090864206D35648711B00EB810029
:104C400050F8040C00E00120019009F00DFF11283C
:104C500057D01CDC082843D007DC01284CD004289E
:104C6000C5D1002013B0BDE8F08F092879D01028F5
:104C7000BDD101990A20BBFBF1F1B1FBF0F200FBC1
:104C80001210092815D001990BEB010020E0202813
:104C90002AD021286BD040280ED04128A7D1C82C7B
:104CA00001D9641EA4B2642141200CF0DFFEA0B340
:104CB00061E0019840420EE001990A20BBFBF1F14E
:104CC000B1FBF0F200FB121020B10199ABEB010037
:104CD00083468CE7019800EBC00101EB0B00F7E77E
:104CE0000098B0FBF6F103E0A819401E90FBF6F126
:104CF00006FB1100C5B27AE711990120C1F800B096
:104D0000B0E740F60200844201D2641CA4B26421E0
:104D100011200CF0ABFE58B12DE01AE0641CA4B2D7
:104D200020460EF019FC1E490EF05EFCFFF7B8FAA3
:104D3000032111200CF09AFE0028EFD01BE0641E26
:104D4000A4B220460EF008FC15490EF04DFCFFF70A
:104D5000A7FA012141200CF089FE0028EFD00AE0DB
:104D6000FFE740F29E70844205D2643402E0DC2CFE
:104D700001D9143CA4B220460EF0EEFB08490EF017
:104D800033FCFFF78DFA02488480FEF733FD2EE7EF
:104D90007C4300206864010825302A2E2A66000022
:104DA0000AD7233C2DE9F35F0A8888464FF03C0B75
:104DB000B2FBFBF14FF06409B1FBF9F45B4809FB6E
:104DC00014140BFB11250027B0F804A0012600BF26
:104DD000C4EB041005EB8001009805F065FD012E81
:104DE00006D0022E07D0032E18D0042E08D118E0CA
:104DF0000121009802E00098401C14E000F0C2FC81
:104E000009F032FE102818D010DC012865D00428E3
:104E10006BD0082855D0092852D168E00098C01CF2
:104E200001E00098001D80B20121E7E720284ED064
:104E3000212863D0402874D110E0012E06D0022E24
:104E400006D0032E06D0042E6BD105E00A340FE005
:104E5000611C14E00A3520E0691C25E0012E06D013
:104E6000022E0AD0032E17D0042E5AD11AE05A343B
:104E7000B4FBF9F109FB1144AAE704F109010A2086
:104E8000B1FBF0F200FB1211B4FBF0F000EB80007C
:104E900001EB4000C4B29BE73235B5FBFBF10BFBE5
:104EA000115595E705F109010A20B1FBF0F200FB6D
:104EB0001211B5FBF0F000EB800001EB4000C5B231
:104EC0002FE0761CF6B2042E2BD9012629E0761E9F
:104ED00016F0FF0625D1042623E0C4EB041005EBF1
:104EE0008001A8F8001001271DE000271BE040F218
:104EF0009E7150468A4508D2643004E05046BAF1AB
:104F0000DC0F02D9143880B282460EF025FB084926
:104F10000EF06AFBFFF7C4F90449A1F804A0FEF7FC
:104F200069FC002EA8D13846BDE8FC9F7C430020D8
:104F30000AD7233C70B514460D46064609F04CF8D6
:104F4000E2B229463046FFF719FA044609F04CF858
:104F5000204670BD70B514460D46064609F03CF873
:104F6000E2B229463046FFF737FA044609F03CF82A
:104F7000204670BD10B51BA0FCF7CAFE10221B49CD
:104F80001BA0FCF7D7FE3022102119A0FCF74EFE23
:104F90001BA0FCF7BDFE102214491BA0FCF7CAFEA3
:104FA0004022102118A0FCF741FE1BA0FCF7B0FE28
:104FB00010220E491AA0FCF7BDFE7022102118A085
:104FC000FCF734FE1AA0FCF7A3FE102207491AA032
:104FD000FCF7B0FE7022BDE81040102116A0FCF7CF
:104FE00025BE00005C53445F41495200240100206B
:104FF0005C53445F4149525C4149522E545854001D
:105000005C53445F545350005C53445F5453505CB2
:105010005453502E545854005C53445F5232340061
:105020005C53445F5232345C5232342E5458540034
:105030005C53445F534849005C53445F5348495CA8
:105040005348492E5458540010B50C4641011023C2
:10505000224603A004F0DEF9002800D1206010BD34
:105060005C53445F4149525C4149522E54585400AC
:1050700010B50C4681014023224603A004F0CAF972
:10508000002800D1206010BD5C53445F5232345C74
:105090005232342E5458540010B50C46810140232E
:1050A000224603A004F0B6F9002800D1206010BD0C
:1050B0005C53445F5348495C5348492E545854004C
:1050C00010B50C4600EB8000C1002423224603A04B
:1050D00004F0A0F9002800D1206010BD5C53445FAB
:1050E0005453505C5453502E5458540070B50D46D0
:1050F000044664210748FBF7CEFB102229460548E9
:10510000FBF752FB6101BDE870402023014A02A079
:1051100004F082B9284000205C53445F4149525C4E
:105120004149522E5458540070B50D46044664212E
:105130000748FBF7B0FB402229460548FBF734FB44
:10514000A101BDE870404023014A02A004F064B907
:10515000284000205C53445F5232345C5232342E7B
:105160005458540070B50D46044664210748FBF7B7
:1051700092FB402229460548FBF716FBA101BDE83A
:1051800070404023014A02A004F046B928400020A4
:105190005C53445F5348495C5348492E545854006B
:1051A00070B50D46044664210848FBF774FB2422C1
:1051B00029460648FBF7F8FA04EB8400BDE8704086
:1051C000C1002823014A02A004F026B9284000208B
:1051D0005C53445F5453505C5453502E5458540005
:1051E00070B5144C144E2046217A457A4089012925
:1051F00015D0022909D003291BD10EF0ADF9314693
:105200000EF0F2F929460DF04DFAA0890EF0A4F93E
:1052100031460EF0E9F9BDE870400DF057BA0EF0D6
:105220009BF931460EF0E0F92946BDE870400DF0DB
:1052300039BA70BD7C430020CDCCCC3D114881698A
:1052400041F0010181611049202048610F48016847
:1052500021F400510160001F016821F45C410160EC
:105260000A49091D0A680A60091D0A6842F40052C9
:105270000A60064A411410321160016841F400517D
:10528000016070470010024000000140040401402A
:1052900008B50020009008F063FF07A1002000F08F
:1052A0007BFA4FF4C062694640F20530FFF784FC98
:1052B000002800D0009808BDCAE4C8EBC3DCC2EBEC
:1052C0003A0000002DE9F04F0746B048884699B0F3
:1052D000848805A91691AE480AA9149100260FA941
:1052E000354600EB480A00EB47091591B9F826103E
:1052F00068462DF8161000EB4600BAF82610818299
:10530000B9F81A100185761CBAF81A10F6B281871E
:105310000A2E02D025B10A2103E000260125FAE772
:105320003146684608F0DAFDDFF868B22BF817005E
:105330000DB10A2100E03146169808F0CFFD2BF898
:1053400018000DB10A2100E03146149808F0C6FD9E
:10535000904901EB470BABF814000DB10A2100E0B6
:105360003146159808F0BAFD8A49474501EB4801D6
:105370001791888232D10DB10A2100E0314668468A
:1053800008F0ACFD0146834820F817100DB10A2142
:1053900000E03146149808F0A1FDABF814007EA19E
:1053A00040F2012000F0F8F9384609F0FBFC014614
:1053B00040F2026B00235A4640F2014004F082FFA3
:1053C00077A140F2092000F0E7F9384609F050FCD7
:1053D000014600235A4640F2094063E00DB10A211C
:1053E00000E03146684608F079FD6A4921F8170067
:1053F0000DB10A2100E03146169808F06FFD014614
:10540000644820F818100DB10A2100E031461498C4
:1054100008F064FDABF814000DB10A2100E031463C
:10542000159808F05BFD179988825BA140F2012076
:1054300000F0B2F95CA14FF4806000F0ADF95BA11F
:105440004FF4C06000F0A8F9384609F0ABFC014603
:1054500040F2036B00235A4640F2024004F032FF50
:10546000404609F09FFC5A46014640F2026B002379
:10547000584604F027FF4AA140F2092000F08CF9B9
:10548000384609F0F5FB014600235A4640F2094030
:1054900004F018FF404609F0EBFB014600235A4692
:1054A00040F2096004F00EFF282009F09BFC002860
:1054B0003FF41CAF09F0D8FA112820D00CDC0128E9
:1054C00018D0042816D009287FF410AF40F29E703F
:1054D00084424DD264344AE0212845D04128F3D19A
:1054E000C82C01D9641EA4B2642141200CF0BEFA7C
:1054F00080B33DE0FDF732FD19B0BDE8F08F40F616
:105500000200844201D2641CA4B2642111200CF078
:10551000ADFA58B12CE0641CA4B220460EF01CF881
:1055200059460EF061F8FEF7BBFE01E0DFF880B0EF
:10553000032111200CF09AFA0028ECD018E0641E28
:10554000A4B220460EF008F859460EF04DF8FEF7CA
:10555000A7FE02E0FFE7DFF858B0012141200CF080
:1055600085FA0028EBD003E0DC2C01D9143CA4B26E
:1055700020460DF0F1FF0E490EF036F8FEF790FED2
:1055800002488480FEF736F9B0E600007C43002034
:10559000F040002008430020C1F7C1BF3A000000DE
:1055A000BCC6D1B93A000000433A0000443A0000BA
:1055B0000AD7233C0449FF200860034814380168D7
:1055C0006FF30901016070471404014013488169B9
:1055D00041F0010181611248012181600021C16017
:1055E000104801686FF309010160001F016821F490
:1055F000407101600B49091D0A6842F0FF020A6010
:10560000091D0A6842F0FF020A60064AFF211032B3
:105610001160016841F0FD01016070470010024017
:10562000000001400404014010B5FFF7C3FF034828
:10563000C068BDE810400CF089B9000008000020E7
:1056400010B5002108480CF069F9084C0021E06011
:105650000548001D0CF062F9A06003480021BDE878
:10566000104008300CF09CB9D83A0108080000201E
:105670000F48816941F004018161816941F00801AD
:1056800081610C49FC2008600B490320086009482F
:1056900010380168094AC9B2114301600648103840
:1056A000016821F00F0141F008010160704700001E
:1056B0000010024010080140100C0140008888884A
:1056C000064800680649C0F38500096801F0010139
:1056D00040EA81117F20884370470000080801409C
:1056E000080C01402DE9F0411D48C08907F034FA4B
:1056F00080F000411B4800680EF006F91A4C1B4D63
:1057000007462946E0600DF06FFF61680DF0B6FDB9
:1057100006466060164938460DF066FF31460DF0CA
:10572000ADFD14490DF060FF06461349A0680DF069
:105730005BFF31460DF0A2FD1049A060884201DDFB
:10574000A16002E0A84200DAA5600D49A0680DF052
:105750004BFF0DF0C9FEBDE8F04180B200F058BF2C
:10576000DC4000202C000020900000200AD7A33C41
:105770000AD7A33B6666663FCDCCCC3DCDCC4C3E34
:105780000000D846034A1278012A01D000F07ABE00
:1057900005F05ABB28000020034A1278012A01D0E4
:1057A00000F0B0BE05F092BB2800002008498A69CD
:1057B00042F010028A6108B1891501E04FF0807152
:1057C00004480161416821F00F01C91C4160704724
:1057D000001002400010014070B50C46054600EB79
:1057E000C4004068FAF76AFFC1B235F83400BDE87A
:1057F0007040FFF7C7BF000070B501880546080A72
:10580000CEB201D07043C6B2696811B10020FFF773
:10581000C3FF012409E000BF05EBC400416835F86F
:105820003400FFF7B9FF641CE4B2B442F4D970BD90
:10583000002200F015B91346002200F0E1B913462A
:10584000002200F0C5BA00F001B800002DE9F05FB9
:105850000C46DFF8E4B101880646BBF804509046D8
:10586000080ACFB230D0784300F0FF0A0CB154459B
:1058700000D9012406EBC409D9F80400FAF71EFF89
:10588000C1B236F83400FFF77DFF00BF5FEA0800C1
:1058900000D08047322009F0A5FA0028F6D036F86B
:1058A0003400D9F80410FFF777FF09F0DDF810286D
:1058B0003DD00BDC0A28DDD2DFE800F005404305CF
:1058C000B9059205277BD5E7BA46CFE7212876D0E0
:1058D0000DDC112837D02028CCD1641EE4B2B4FBF3
:1058E000F7F007FB10400028C4D1E0191DE0402864
:1058F00015D04128BED1C82D01D96D1EADB264218D
:1059000041200CF0B3F8A8B35DE0B4FBF7F007FB5F
:10591000104008B9E01BC4B2641CE4B2AAE7E01965
:10592000C4B25445A6D9A4EB0A00C4B2A2E7BC4253
:1059300002D804EB0A00C4B2E01BF6E72046BDE83B
:10594000F09FFF20FBE740F60200854201D26D1C6C
:10595000ADB2642111200CF089F860B133E06D1C08
:10596000ADB228460DF0F8FD49460DF03DFEFEF7BC
:1059700097FC02E013E0DFF8C490032111200CF043
:1059800075F80028EBD01EE06D1EADB228460DF074
:10599000E3FD49460DF028FEFEF782FC01E0DFF84A
:1059A0009C90012141200CF061F80028ECD00AE025
:1059B00005E040F29E70854205D2643502E0DC2DA0
:1059C00001D9143DADB228460DF0C6FD1B490DF0BE
:1059D0000BFEFEF765FCABF80450FDF70BFF49E743
:1059E0004FF4967106200CF041F800BB08F085FAE0
:1059F000642008F003FC08F080FA08F0B1FB10A165
:105A000040F20120FFF7C8FEFDF712FE0A494FF4ED
:105A1000E062383140F20550FFF7CEF838B104218A
:105A20000BA000F0F9FB062803D0FDF701FE0020D3
:105A300085E7FDF7DFFEFAE77C4300200AD7233C29
:105A4000C7EBCAE4C8EBB3F6B3A7B1E0BAC53A00F6
:105A5000CAC7B7F1B1A3B4E6B1E0BAC53F000000D0
:105A60002DE9F05F0C46DFF890B101880646BBF8DF
:105A700004509046080ACFB230D0784300F0FF0AB5
:105A80000CB1544500D9012406EBC409D9F804002F
:105A9000FAF714FEC1B236F83400FFF773FE00BF08
:105AA0005FEA080000D08047322009F09BF9002807
:105AB000F6D036F83400D9F80410FFF76DFE08F080
:105AC000D3FF10283DD00BDC0A28DDD2DFE800F040
:105AD0000540450543050505277DD5E7BA46CFE7CF
